{
  "abi": [
    {
      "inputs": [
        {
          "internalType": "uint256",
          "name": "_N",
          "type": "uint256"
        },
        {
          "internalType": "bytes",
          "name": "_obstacles",
          "type": "bytes"
        }
      ],
      "stateMutability": "nonpayable",
      "type": "constructor"
    },
    {
      "anonymous": false,
      "inputs": [
        {
          "indexed": false,
          "internalType": "address",
          "name": "player",
          "type": "address"
        },
        {
          "indexed": false,
          "internalType": "address",
          "name": "target",
          "type": "address"
        },
        {
          "indexed": false,
          "internalType": "uint256",
          "name": "spellId",
          "type": "uint256"
        }
      ],
      "name": "CastedSpell",
      "type": "event"
    },
    {
      "anonymous": false,
      "inputs": [
        {
          "indexed": false,
          "internalType": "address",
          "name": "player",
          "type": "address"
        },
        {
          "indexed": false,
          "internalType": "uint256",
          "name": "steps",
          "type": "uint256"
        }
      ],
      "name": "Movement",
      "type": "event"
    },
    {
      "anonymous": false,
      "inputs": [
        {
          "indexed": false,
          "internalType": "address",
          "name": "player",
          "type": "address"
        },
        {
          "indexed": false,
          "internalType": "uint256",
          "name": "x",
          "type": "uint256"
        },
        {
          "indexed": false,
          "internalType": "uint256",
          "name": "y",
          "type": "uint256"
        }
      ],
      "name": "PlayerAdded",
      "type": "event"
    },
    {
      "anonymous": false,
      "inputs": [
        {
          "indexed": false,
          "internalType": "address",
          "name": "skeleton",
          "type": "address"
        },
        {
          "indexed": false,
          "internalType": "uint256",
          "name": "x",
          "type": "uint256"
        },
        {
          "indexed": false,
          "internalType": "uint256",
          "name": "y",
          "type": "uint256"
        }
      ],
      "name": "SkeletonAdded",
      "type": "event"
    },
    {
      "inputs": [],
      "name": "N",
      "outputs": [
        {
          "internalType": "uint256",
          "name": "",
          "type": "uint256"
        }
      ],
      "stateMutability": "view",
      "type": "function"
    },
    {
      "inputs": [
        {
          "internalType": "uint256",
          "name": "x",
          "type": "uint256"
        },
        {
          "internalType": "uint256",
          "name": "y",
          "type": "uint256"
        }
      ],
      "name": "addPlayer",
      "outputs": [],
      "stateMutability": "nonpayable",
      "type": "function"
    },
    {
      "inputs": [
        {
          "internalType": "address",
          "name": "skeleton",
          "type": "address"
        },
        {
          "internalType": "uint256",
          "name": "x",
          "type": "uint256"
        },
        {
          "internalType": "uint256",
          "name": "y",
          "type": "uint256"
        }
      ],
      "name": "addSkeleton",
      "outputs": [],
      "stateMutability": "nonpayable",
      "type": "function"
    },
    {
      "inputs": [
        {
          "internalType": "uint256",
          "name": "spellId",
          "type": "uint256"
        },
        {
          "internalType": "address",
          "name": "target",
          "type": "address"
        }
      ],
      "name": "castSpell",
      "outputs": [],
      "stateMutability": "nonpayable",
      "type": "function"
    },
    {
      "inputs": [
        {
          "internalType": "uint256",
          "name": "x",
          "type": "uint256"
        },
        {
          "internalType": "uint256",
          "name": "y",
          "type": "uint256"
        }
      ],
      "name": "getCell",
      "outputs": [
        {
          "internalType": "uint8",
          "name": "",
          "type": "uint8"
        }
      ],
      "stateMutability": "view",
      "type": "function"
    },
    {
      "inputs": [
        {
          "internalType": "uint256",
          "name": "steps",
          "type": "uint256"
        }
      ],
      "name": "move",
      "outputs": [],
      "stateMutability": "nonpayable",
      "type": "function"
    },
    {
      "inputs": [],
      "name": "obstacles",
      "outputs": [
        {
          "internalType": "bytes",
          "name": "",
          "type": "bytes"
        }
      ],
      "stateMutability": "view",
      "type": "function"
    },
    {
      "inputs": [
        {
          "internalType": "address",
          "name": "",
          "type": "address"
        }
      ],
      "name": "players",
      "outputs": [
        {
          "internalType": "uint8",
          "name": "damage",
          "type": "uint8"
        },
        {
          "internalType": "uint8",
          "name": "direction",
          "type": "uint8"
        }
      ],
      "stateMutability": "view",
      "type": "function"
    },
    {
      "inputs": [
        {
          "internalType": "uint256",
          "name": "",
          "type": "uint256"
        }
      ],
      "name": "skeletons",
      "outputs": [
        {
          "internalType": "address",
          "name": "",
          "type": "address"
        }
      ],
      "stateMutability": "view",
      "type": "function"
    }
  ],
  "bytecode": {
    "object": "0x60a06040523480156200001157600080fd5b5060405162000d5738038062000d578339810160408190526200003491620000e2565b80516008620000448480620001c2565b620000509190620001ee565b14620000b05760405162461bcd60e51b815260206004820152602560248201527f4461746120646f6573206e6f74206d61746368206578706563746564204e784e6044820152642073697a6560d81b606482015260840160405180910390fd5b60808290526000620000c38282620002a0565b5050506200036c565b634e487b7160e01b600052604160045260246000fd5b60008060408385031215620000f657600080fd5b8251602080850151919350906001600160401b03808211156200011857600080fd5b818601915086601f8301126200012d57600080fd5b815181811115620001425762000142620000cc565b604051601f8201601f19908116603f011681019083821181831017156200016d576200016d620000cc565b8160405282815289868487010111156200018657600080fd5b600093505b82841015620001aa57848401860151818501870152928501926200018b565b60008684830101528096505050505050509250929050565b8082028115828204841417620001e857634e487b7160e01b600052601160045260246000fd5b92915050565b6000826200020c57634e487b7160e01b600052601260045260246000fd5b500490565b600181811c908216806200022657607f821691505b6020821081036200024757634e487b7160e01b600052602260045260246000fd5b50919050565b601f8211156200029b57600081815260208120601f850160051c81016020861015620002765750805b601f850160051c820191505b81811015620002975782815560010162000282565b5050505b505050565b81516001600160401b03811115620002bc57620002bc620000cc565b620002d481620002cd845462000211565b846200024d565b602080601f8311600181146200030c5760008415620002f35750858301515b600019600386901b1c1916600185901b17855562000297565b600085815260208120601f198616915b828110156200033d578886015182559484019460019091019084016200031c565b50858210156200035c5787850151600019600388901b60f8161c191681555b5050505050600190811b01905550565b6080516109b3620003a460003960008181610142015281816101cf015281816101f90152818161026601526102ab01526109b36000f3fe608060405234801561001057600080fd5b50600436106100935760003560e01c806397002e351161006657806397002e3514610115578063c42df0ae14610128578063c9e525df1461013d578063d0964dbb14610172578063e2eb41ff1461018557600080fd5b8063035f2333146100985780630cbef7e7146100c257806342ce274b146100d757806387cb15f714610102575b600080fd5b6100ab6100a6366004610734565b6101cb565b60405160ff90911681526020015b60405180910390f35b6100d56100d0366004610772565b61034d565b005b6100ea6100e536600461079e565b61039b565b6040516001600160a01b0390911681526020016100b9565b6100d561011036600461079e565b6103c5565b6100d5610123366004610734565b610401565b6101306104d2565b6040516100b991906107b7565b6101647f000000000000000000000000000000000000000000000000000000000000000081565b6040519081526020016100b9565b6100d5610180366004610805565b610560565b6101b1610193366004610838565b60016020526000908152604090205460ff8082169161010090041682565b6040805160ff9384168152929091166020830152016100b9565b60007f00000000000000000000000000000000000000000000000000000000000000008310801561021b57507f000000000000000000000000000000000000000000000000000000000000000082105b61025c5760405162461bcd60e51b815260206004820152600d60248201526c4f7574206f6620626f756e647360981b60448201526064015b60405180910390fd5b600060088361028b7f000000000000000000000000000000000000000000000000000000000000000087610870565b6102959190610887565b61029f91906108b0565b905060006008846102d07f000000000000000000000000000000000000000000000000000000000000000088610870565b6102da9190610887565b6102e491906108c4565b905060008160008481546102f7906108d8565b811061030557610305610912565b8154600116156103245790600052602060002090602091828204019190065b90546001911a600160f81b026001600160f81b03191690911c60f81c1693505050505b92915050565b604080513381526001600160a01b03831660208201529081018390527fdf6a64b48b2e4945b72a2a850d22327a706e34c9c3a203e26759f78a07234563906060015b60405180910390a15050565b600281815481106103ab57600080fd5b6000918252602090912001546001600160a01b0316905081565b60408051338152602081018390527ff19c2fd76c91c01ffe1e45cf5c7a887801a4ffd944ecc05badb3bea1ddda6dd4910160405180910390a150565b3360009081526001602052604090205460ff16156104585760405162461bcd60e51b8152602060048201526014602482015273141b185e595c88185b1c9958591e48185919195960621b6044820152606401610253565b6040805180820182526000808252602080830182815233808452600183529285902093518454915160ff9081166101000261ffff199093169116171790925582519081529081018490529081018290527f9ce26e43f9e01eae89b457f930f3de51c547a2ab3e2ca1bbbcd9369109a39a289060600161038f565b600080546104df906108d8565b80601f016020809104026020016040519081016040528092919081815260200182805461050b906108d8565b80156105585780601f1061052d57610100808354040283529160200191610558565b820191906000526020600020905b81548152906001019060200180831161053b57829003601f168201915b505050505081565b6001600160a01b0383166105b65760405162461bcd60e51b815260206004820152601860248201527f496e76616c696420736b656c65746f6e206164647265737300000000000000006044820152606401610253565b6001600160a01b03831660009081526001602052604090205460ff16156106185760405162461bcd60e51b815260206004820152601660248201527514dad95b195d1bdb88185b1c9958591e48185919195960521b6044820152606401610253565b600380546001600160a01b031690600061063183610928565b82546101009290920a6001600160a01b0381810219909316918316021790915560035460009250610663911685610956565b604080518082018252600080825260208083018281526001600160a01b038616808452600180845286852095518654935160ff9081166101000261ffff19909516911617929092179094556002805491820181559092527f405787fa12a823e0f2b7631cc41b3ba8828b3321ca811111fa75cd3aa3bb5ace90910180546001600160a01b03191683179055825191825281018690529081018490529091507f211961673dbefcd7f69ea92e7a04b832c24a1ca1aff9ea90dd7140a0656e961b9060600160405180910390a150505050565b6000806040838503121561074757600080fd5b50508035926020909101359150565b80356001600160a01b038116811461076d57600080fd5b919050565b6000806040838503121561078557600080fd5b8235915061079560208401610756565b90509250929050565b6000602082840312156107b057600080fd5b5035919050565b600060208083528351808285015260005b818110156107e4578581018301518582016040015282016107c8565b506000604082860101526040601f19601f8301168501019250505092915050565b60008060006060848603121561081a57600080fd5b61082384610756565b95602085013595506040909401359392505050565b60006020828403121561084a57600080fd5b61085382610756565b9392505050565b634e487b7160e01b600052601160045260246000fd5b80820281158282048414176103475761034761085a565b808201808211156103475761034761085a565b634e487b7160e01b600052601260045260246000fd5b6000826108bf576108bf61089a565b500490565b6000826108d3576108d361089a565b500690565b600181811c908216806108ec57607f821691505b60208210810361090c57634e487b7160e01b600052602260045260246000fd5b50919050565b634e487b7160e01b600052603260045260246000fd5b60006001600160a01b038281166002600160a01b0319810161094c5761094c61085a565b6001019392505050565b6001600160a01b038181168382160190808211156109765761097661085a565b509291505056fea2646970667358221220bce409f5626703bff0467b4af97e0fb9ea08a7e9b36243e1a5b29803d9996e2f64736f6c63430008150033",
    "linkReferences": {}
  },
  "methodIdentifiers": {
    "N()": "c9e525df",
    "addPlayer(uint256,uint256)": "97002e35",
    "addSkeleton(address,uint256,uint256)": "d0964dbb",
    "castSpell(uint256,address)": "0cbef7e7",
    "getCell(uint256,uint256)": "035f2333",
    "move(uint256)": "87cb15f7",
    "obstacles()": "c42df0ae",
    "players(address)": "e2eb41ff",
    "skeletons(uint256)": "42ce274b"
  },
  "id": 0
}