{
  "abi": [
    {
      "inputs": [
        {
          "internalType": "uint256",
          "name": "_N",
          "type": "uint256"
        },
        {
          "internalType": "uint8[]",
          "name": "_obstacles",
          "type": "uint8[]"
        },
        {
          "internalType": "uint256",
          "name": "_maxSkeletons",
          "type": "uint256"
        }
      ],
      "stateMutability": "nonpayable",
      "type": "constructor"
    },
    {
      "anonymous": false,
      "inputs": [
        {
          "indexed": false,
          "internalType": "address",
          "name": "player",
          "type": "address"
        },
        {
          "indexed": false,
          "internalType": "uint256",
          "name": "p",
          "type": "uint256"
        }
      ],
      "name": "PlayerAdded",
      "type": "event"
    },
    {
      "anonymous": false,
      "inputs": [
        {
          "indexed": false,
          "internalType": "address",
          "name": "player",
          "type": "address"
        },
        {
          "indexed": false,
          "internalType": "uint256",
          "name": "steps",
          "type": "uint256"
        }
      ],
      "name": "PlayerMoved",
      "type": "event"
    },
    {
      "anonymous": false,
      "inputs": [
        {
          "indexed": false,
          "internalType": "address",
          "name": "player",
          "type": "address"
        },
        {
          "indexed": false,
          "internalType": "uint256",
          "name": "p",
          "type": "uint256"
        }
      ],
      "name": "PlayerRemoved",
      "type": "event"
    },
    {
      "anonymous": false,
      "inputs": [
        {
          "indexed": false,
          "internalType": "address",
          "name": "skeleton",
          "type": "address"
        },
        {
          "indexed": false,
          "internalType": "uint256",
          "name": "p",
          "type": "uint256"
        }
      ],
      "name": "SkeletonAdded",
      "type": "event"
    },
    {
      "anonymous": false,
      "inputs": [
        {
          "indexed": false,
          "internalType": "address",
          "name": "skeleton",
          "type": "address"
        },
        {
          "indexed": false,
          "internalType": "uint256",
          "name": "p",
          "type": "uint256"
        }
      ],
      "name": "SkeletonRemoved",
      "type": "event"
    },
    {
      "inputs": [],
      "name": "N",
      "outputs": [
        {
          "internalType": "uint256",
          "name": "",
          "type": "uint256"
        }
      ],
      "stateMutability": "view",
      "type": "function"
    },
    {
      "inputs": [],
      "name": "getFullState",
      "outputs": [
        {
          "internalType": "uint8[]",
          "name": "obstacles_",
          "type": "uint8[]"
        },
        {
          "internalType": "address[]",
          "name": "skeletonAddresses_",
          "type": "address[]"
        },
        {
          "internalType": "address[]",
          "name": "playerAddresses_",
          "type": "address[]"
        },
        {
          "components": [
            {
              "internalType": "uint256",
              "name": "position",
              "type": "uint256"
            },
            {
              "internalType": "uint256",
              "name": "step",
              "type": "uint256"
            }
          ],
          "internalType": "struct Skeleton[]",
          "name": "skeletons_",
          "type": "tuple[]"
        },
        {
          "components": [
            {
              "internalType": "uint256",
              "name": "position",
              "type": "uint256"
            },
            {
              "internalType": "uint256",
              "name": "nonce",
              "type": "uint256"
            },
            {
              "internalType": "uint256",
              "name": "damage",
              "type": "uint256"
            },
            {
              "internalType": "bool",
              "name": "isActive",
              "type": "bool"
            }
          ],
          "internalType": "struct Player[]",
          "name": "players_",
          "type": "tuple[]"
        }
      ],
      "stateMutability": "view",
      "type": "function"
    },
    {
      "inputs": [],
      "name": "getObstacles",
      "outputs": [
        {
          "internalType": "uint8[]",
          "name": "",
          "type": "uint8[]"
        }
      ],
      "stateMutability": "view",
      "type": "function"
    },
    {
      "inputs": [],
      "name": "getPlayerAddresses",
      "outputs": [
        {
          "internalType": "address[]",
          "name": "",
          "type": "address[]"
        }
      ],
      "stateMutability": "view",
      "type": "function"
    },
    {
      "inputs": [],
      "name": "getSkeletonAddresses",
      "outputs": [
        {
          "internalType": "address[]",
          "name": "",
          "type": "address[]"
        }
      ],
      "stateMutability": "view",
      "type": "function"
    },
    {
      "inputs": [],
      "name": "maxSkeletons",
      "outputs": [
        {
          "internalType": "uint256",
          "name": "",
          "type": "uint256"
        }
      ],
      "stateMutability": "view",
      "type": "function"
    },
    {
      "inputs": [],
      "name": "nextRandomPositionWithoutObstacle",
      "outputs": [
        {
          "internalType": "uint256",
          "name": "",
          "type": "uint256"
        }
      ],
      "stateMutability": "nonpayable",
      "type": "function"
    },
    {
      "inputs": [
        {
          "internalType": "uint256",
          "name": "",
          "type": "uint256"
        }
      ],
      "name": "obstacles",
      "outputs": [
        {
          "internalType": "uint8",
          "name": "",
          "type": "uint8"
        }
      ],
      "stateMutability": "view",
      "type": "function"
    },
    {
      "inputs": [
        {
          "internalType": "address",
          "name": "",
          "type": "address"
        }
      ],
      "name": "playerAddressToState",
      "outputs": [
        {
          "internalType": "uint256",
          "name": "position",
          "type": "uint256"
        },
        {
          "internalType": "uint256",
          "name": "nonce",
          "type": "uint256"
        },
        {
          "internalType": "uint256",
          "name": "damage",
          "type": "uint256"
        },
        {
          "internalType": "bool",
          "name": "isActive",
          "type": "bool"
        }
      ],
      "stateMutability": "view",
      "type": "function"
    },
    {
      "inputs": [
        {
          "internalType": "uint256",
          "name": "",
          "type": "uint256"
        }
      ],
      "name": "playerAddresses",
      "outputs": [
        {
          "internalType": "address",
          "name": "",
          "type": "address"
        }
      ],
      "stateMutability": "view",
      "type": "function"
    },
    {
      "inputs": [
        {
          "internalType": "address",
          "name": "",
          "type": "address"
        }
      ],
      "name": "skeletonAddressToState",
      "outputs": [
        {
          "internalType": "uint256",
          "name": "position",
          "type": "uint256"
        },
        {
          "internalType": "uint256",
          "name": "step",
          "type": "uint256"
        }
      ],
      "stateMutability": "view",
      "type": "function"
    },
    {
      "inputs": [
        {
          "internalType": "uint256",
          "name": "",
          "type": "uint256"
        }
      ],
      "name": "skeletonAddresses",
      "outputs": [
        {
          "internalType": "address",
          "name": "",
          "type": "address"
        }
      ],
      "stateMutability": "view",
      "type": "function"
    },
    {
      "inputs": [],
      "name": "spawnSkeletons",
      "outputs": [],
      "stateMutability": "nonpayable",
      "type": "function"
    },
    {
      "inputs": [],
      "name": "teleportIn",
      "outputs": [],
      "stateMutability": "nonpayable",
      "type": "function"
    },
    {
      "inputs": [],
      "name": "teleportOut",
      "outputs": [],
      "stateMutability": "nonpayable",
      "type": "function"
    },
    {
      "inputs": [],
      "name": "version",
      "outputs": [
        {
          "internalType": "uint256",
          "name": "",
          "type": "uint256"
        }
      ],
      "stateMutability": "view",
      "type": "function"
    }
  ],
  "bytecode": {
    "object": "0x60a060405260016080523480156200001657600080fd5b506040516200191038038062001910833981016040819052620000399162000511565b8151600862000049858062000610565b62000055919062000640565b146200008b5760405162461bcd60e51b81526020600482015260016024820152602760f91b604482015260640160405180910390fd5b60018390558151620000a590600290602085019062000420565b506005819055620000b5620000be565b505050620006fd565b6005546004541015620000e557620000df620000d9620000e7565b6200016e565b620000be565b565b600080620000f462000282565b905060005b60015462000108908062000610565b811015620001695760015460009062000122908062000610565b6200012e848462000657565b6200013a91906200066d565b90506200014781620002c8565b62000153579392505050565b5080620001608162000684565b915050620000f9565b600080fd5b6200017981620002c8565b156200018457600080fd5b60068054600091908290620001a2906001600160a01b0316620006a0565b82546001600160a01b038083166101009490940a848102910219909116179092556040805180820182528581526000602080830182815285835260039091529281209151825591516001918201556004805491820181559091527f8a35acfbc15ff81a39ae7d344fd709f28e8600b4aa8c65c6b64bfe7fe36bd19b0180546001600160a01b031916909117905590506200023c82620002dd565b604080516001600160a01b0383168152602081018490527f0e83e6d9e51041870d443b1514f32f096c9f81ef34268e7e84fd463c69003564910160405180910390a15050565b600080548180620002938362000684565b91905055604051602001620002aa91815260200190565b6040516020818303038152906040528051906020012060001c905090565b6000620002d7600283620002ed565b92915050565b620002ea6002826200036b565b50565b600080620002fd60088462000640565b905060006200030e6008856200066d565b6200031b906007620006d1565b905080858381548110620003335762000333620006e7565b90600052602060002090602091828204019190069054906101000a900460ff1660ff16901c60011660ff166001149250505092915050565b60006200037a60088362000640565b905060006200038b6008846200066d565b62000398906007620006d1565b90506000816001901b905080858481548110620003b957620003b9620006e7565b90600052602060002090602091828204019190069054906101000a900460ff1617858481548110620003ef57620003ef620006e7565b90600052602060002090602091828204019190066101000a81548160ff021916908360ff1602179055505050505050565b82805482825590600052602060002090601f01602090048101928215620004bb5791602002820160005b838211156200048a57835183826101000a81548160ff021916908360ff16021790555092602001926001016020816000010492830192600103026200044a565b8015620004b95782816101000a81549060ff02191690556001016020816000010492830192600103026200048a565b505b50620004c9929150620004cd565b5090565b5b80821115620004c95760008155600101620004ce565b634e487b7160e01b600052604160045260246000fd5b805160ff811681146200050c57600080fd5b919050565b6000806000606084860312156200052757600080fd5b8351602080860151919450906001600160401b03808211156200054957600080fd5b818701915087601f8301126200055e57600080fd5b815181811115620005735762000573620004e4565b8060051b604051601f19603f830116810181811085821117156200059b576200059b620004e4565b60405291825284820192508381018501918a831115620005ba57600080fd5b938501935b82851015620005e357620005d385620004fa565b84529385019392850192620005bf565b809750505050505050604084015190509250925092565b634e487b7160e01b600052601160045260246000fd5b8082028115828204841417620002d757620002d7620005fa565b634e487b7160e01b600052601260045260246000fd5b6000826200065257620006526200062a565b500490565b80820180821115620002d757620002d7620005fa565b6000826200067f576200067f6200062a565b500690565b600060018201620006995762000699620005fa565b5060010190565b60006001600160a01b038281166002600160a01b03198101620006c757620006c7620005fa565b6001019392505050565b81810381811115620002d757620002d7620005fa565b634e487b7160e01b600052603260045260246000fd5b6080516111f76200071960003960006101d001526111f76000f3fe608060405234801561001057600080fd5b50600436106101005760003560e01c8063833d2bea11610097578063a6bfd86c11610066578063a6bfd86c14610278578063c9e525df14610280578063e9659ed114610289578063f6a5414d1461029257600080fd5b8063833d2bea1461023a578063972161f71461024f5780639dc9cbeb14610268578063a2b142af1461027057600080fd5b8063682676aa116100d3578063682676aa146102005780637140ae661461020a578063724d49241461021257806379c9f9a71461022757600080fd5b80630cc06d9d1461010557806315c6aee2146101465780632d82e2a61461017157806354fd4d50146101cb575b600080fd5b61012c610113366004610ed3565b6003602052600090815260409020805460019091015482565b604080519283526020830191909152015b60405180910390f35b610159610154366004610f03565b6102b7565b6040516001600160a01b03909116815260200161013d565b6101a961017f366004610ed3565b60076020526000908152604090208054600182015460028301546003909301549192909160ff1684565b604080519485526020850193909352918301521515606082015260800161013d565b6101f27f000000000000000000000000000000000000000000000000000000000000000081565b60405190815260200161013d565b6102086102e1565b005b6101f2610362565b61021a6103d3565b60405161013d9190610f60565b610159610235366004610f03565b610435565b610242610445565b60405161013d9190610fa6565b6102576104ba565b60405161013d95949392919061100b565b610208610893565b61021a61095a565b6102086109ba565b6101f260015481565b6101f260055481565b6102a56102a0366004610f03565b6109dd565b60405160ff909116815260200161013d565b600881815481106102c757600080fd5b6000918252602090912001546001600160a01b0316905081565b336000908152600760205260409020600381015460ff1661030157600080fd5b60038101805460ff19169055610318600833610a11565b805461032390610b4b565b80546040805133815260208101929092527f9196f2b6f4a943b126dfa008d4d988cc157821a99ada5566b73e9f1c6d9d513d910160405180910390a150565b60008061036d610b59565b905060005b60015461037f90806110bd565b8110156101005760015460009061039690806110bd565b6103a084846110d4565b6103aa91906110fd565b90506103b581610b9c565b6103c0579392505050565b50806103cb81611111565b915050610372565b6060600880548060200260200160405190810160405280929190818152602001828054801561042b57602002820191906000526020600020905b81546001600160a01b0316815260019091019060200180831161040d575b5050505050905090565b600481815481106102c757600080fd5b6060600280548060200260200160405190810160405280929190818152602001828054801561042b57602002820191906000526020600020906000905b825461010083900a900460ff168152602060019283018181049485019490930390920291018084116104825790505050505050905090565b6060806060806060600280548060200260200160405190810160405280929190818152602001828054801561052c57602002820191906000526020600020906000905b825461010083900a900460ff168152602060019283018181049485019490930390920291018084116104fd5790505b50505050509450600480548060200260200160405190810160405280929190818152602001828054801561058957602002820191906000526020600020905b81546001600160a01b0316815260019091019060200180831161056b575b5050505050935060088054806020026020016040519081016040528092919081815260200182805480156105e657602002820191906000526020600020905b81546001600160a01b031681526001909101906020018083116105c8575b50505050509250835167ffffffffffffffff8111156106075761060761112a565b60405190808252806020026020018201604052801561064c57816020015b60408051808201909152600080825260208201528152602001906001900390816106255790505b50915060005b84518110156106e8576003600086838151811061067157610671611140565b60200260200101516001600160a01b03166001600160a01b03168152602001908152602001600020604051806040016040529081600082015481526020016001820154815250508382815181106106ca576106ca611140565b602002602001018190525080806106e090611111565b915050610652565b50825167ffffffffffffffff8111156107035761070361112a565b60405190808252806020026020018201604052801561076157816020015b61074e60405180608001604052806000815260200160008152602001600081526020016000151581525090565b8152602001906001900390816107215790505b50905060005b8351811015610810576007600085838151811061078657610786611140565b6020908102919091018101516001600160a01b031682528181019290925260409081016000208151608081018352815481526001820154938101939093526002810154918301919091526003015460ff161515606082015282518390839081106107f2576107f2611140565b6020026020010181905250808061080890611111565b915050610767565b5060005b8251811015610856576108448684838151811061083357610833611140565b602002602001015160000151610baf565b8061084e81611111565b915050610814565b5060005b815181101561088b576108798683838151811061083357610833611140565b8061088381611111565b91505061085a565b509091929394565b336000908152600760205260409020600381015460ff16156108b457600080fd5b60006108be610362565b60038301805460ff191660019081179091558184556008805491820181556000527ff3f7a9fe364faab93b216da50a3214154f22a0a2b415b23a84c8169e8b636ee30180546001600160a01b03191633179055905061091c81610c2b565b60408051338152602081018390527f0c1de8e9993c058a253c96414b4215583b25fa35e1b6e0facf4d5a0dc2a6f3f891015b60405180910390a15050565b6060600480548060200260200160405190810160405280929190818152602001828054801561042b576020028201919060005260206000209081546001600160a01b0316815260019091019060200180831161040d575050505050905090565b60055460045410156109db576109d66109d1610362565b610c36565b6109ba565b565b600281815481106109ed57600080fd5b9060005260206000209060209182820401919006915054906101000a900460ff1681565b60005b8254811015610b1a57816001600160a01b0316838281548110610a3957610a39611140565b6000918252602090912001546001600160a01b031603610b085782548390610a6390600190611156565b81548110610a7357610a73611140565b9060005260206000200160009054906101000a90046001600160a01b0316838281548110610aa357610aa3611140565b9060005260206000200160006101000a8154816001600160a01b0302191690836001600160a01b0316021790555082805480610ae157610ae1611169565b600082815260209020810160001990810180546001600160a01b0319169055019055505050565b80610b1281611111565b915050610a14565b5060405162461bcd60e51b81526020600482015260016024820152602960f91b604482015260640160405180910390fd5b610b56600282610d3c565b50565b600080548180610b6883611111565b91905055604051602001610b7e91815260200190565b6040516020818303038152906040528051906020012060001c905090565b6000610ba9600283610de6565b92915050565b6000610bbc60088361117f565b90506000610bcb6008846110fd565b610bd6906007611156565b90506000816001901b90508019858481518110610bf557610bf5611140565b602002602001015116858481518110610c1057610c10611140565b602002602001019060ff16908160ff16815250505050505050565b610b56600282610e5b565b610c3f81610b9c565b15610c4957600080fd5b60068054600091908290610c65906001600160a01b0316611193565b82546001600160a01b038083166101009490940a848102910219909116179092556040805180820182528581526000602080830182815285835260039091529281209151825591516001918201556004805491820181559091527f8a35acfbc15ff81a39ae7d344fd709f28e8600b4aa8c65c6b64bfe7fe36bd19b0180546001600160a01b03191690911790559050610cfd82610c2b565b604080516001600160a01b0383168152602081018490527f0e83e6d9e51041870d443b1514f32f096c9f81ef34268e7e84fd463c69003564910161094e565b6000610d4960088361117f565b90506000610d586008846110fd565b610d63906007611156565b90506000816001901b90508019858481548110610d8257610d82611140565b90600052602060002090602091828204019190069054906101000a900460ff1616858481548110610db557610db5611140565b90600052602060002090602091828204019190066101000a81548160ff021916908360ff1602179055505050505050565b600080610df460088461117f565b90506000610e036008856110fd565b610e0e906007611156565b905080858381548110610e2357610e23611140565b90600052602060002090602091828204019190069054906101000a900460ff1660ff16901c60011660ff166001149250505092915050565b6000610e6860088361117f565b90506000610e776008846110fd565b610e82906007611156565b90506000816001901b905080858481548110610ea057610ea0611140565b90600052602060002090602091828204019190069054906101000a900460ff1617858481548110610db557610db5611140565b600060208284031215610ee557600080fd5b81356001600160a01b0381168114610efc57600080fd5b9392505050565b600060208284031215610f1557600080fd5b5035919050565b600081518084526020808501945080840160005b83811015610f555781516001600160a01b031687529582019590820190600101610f30565b509495945050505050565b602081526000610efc6020830184610f1c565b600081518084526020808501945080840160005b83811015610f5557815160ff1687529582019590820190600101610f87565b602081526000610efc6020830184610f73565b600081518084526020808501945080840160005b83811015610f555781518051885283810151848901526040808201519089015260609081015115159088015260809096019590820190600101610fcd565b60a08152600061101e60a0830188610f73565b6020838203818501526110318289610f1c565b91506040848303818601526110468389610f1c565b8581036060870152875180825283890194509083019060005b818110156110845785518051845285015185840152948401949183019160010161105f565b505085810360808701526110988188610fb9565b9b9a5050505050505050505050565b634e487b7160e01b600052601160045260246000fd5b8082028115828204841417610ba957610ba96110a7565b80820180821115610ba957610ba96110a7565b634e487b7160e01b600052601260045260246000fd5b60008261110c5761110c6110e7565b500690565b600060018201611123576111236110a7565b5060010190565b634e487b7160e01b600052604160045260246000fd5b634e487b7160e01b600052603260045260246000fd5b81810381811115610ba957610ba96110a7565b634e487b7160e01b600052603160045260246000fd5b60008261118e5761118e6110e7565b500490565b60006001600160a01b038281166002600160a01b031981016111b7576111b76110a7565b600101939250505056fea264697066735822122068bd1e2f0adfadeef304e46adb04585d9c1333a9faa08717651778ae4888403d64736f6c63430008150033",
    "linkReferences": {}
  },
  "methodIdentifiers": {
    "N()": "c9e525df",
    "getFullState()": "972161f7",
    "getObstacles()": "833d2bea",
    "getPlayerAddresses()": "724d4924",
    "getSkeletonAddresses()": "a2b142af",
    "maxSkeletons()": "e9659ed1",
    "nextRandomPositionWithoutObstacle()": "7140ae66",
    "obstacles(uint256)": "f6a5414d",
    "playerAddressToState(address)": "2d82e2a6",
    "playerAddresses(uint256)": "15c6aee2",
    "skeletonAddressToState(address)": "0cc06d9d",
    "skeletonAddresses(uint256)": "79c9f9a7",
    "spawnSkeletons()": "a6bfd86c",
    "teleportIn()": "9dc9cbeb",
    "teleportOut()": "682676aa",
    "version()": "54fd4d50"
  },
  "id": 0
}