{
  "abi": [
    {
      "inputs": [
        {
          "internalType": "uint256",
          "name": "_N",
          "type": "uint256"
        },
        {
          "internalType": "uint8[]",
          "name": "_obstacles",
          "type": "uint8[]"
        },
        {
          "internalType": "uint256",
          "name": "_maxSkeletons",
          "type": "uint256"
        }
      ],
      "stateMutability": "nonpayable",
      "type": "constructor"
    },
    {
      "anonymous": false,
      "inputs": [
        {
          "indexed": false,
          "internalType": "address",
          "name": "player",
          "type": "address"
        },
        {
          "indexed": false,
          "internalType": "uint256",
          "name": "p",
          "type": "uint256"
        }
      ],
      "name": "PlayerAdded",
      "type": "event"
    },
    {
      "anonymous": false,
      "inputs": [
        {
          "indexed": false,
          "internalType": "address",
          "name": "player",
          "type": "address"
        },
        {
          "indexed": false,
          "internalType": "uint256",
          "name": "stepsDone",
          "type": "uint256"
        },
        {
          "indexed": false,
          "internalType": "uint256",
          "name": "newPosition",
          "type": "uint256"
        }
      ],
      "name": "PlayerMoved",
      "type": "event"
    },
    {
      "anonymous": false,
      "inputs": [
        {
          "indexed": false,
          "internalType": "address",
          "name": "player",
          "type": "address"
        },
        {
          "indexed": false,
          "internalType": "uint256",
          "name": "p",
          "type": "uint256"
        }
      ],
      "name": "PlayerRemoved",
      "type": "event"
    },
    {
      "anonymous": false,
      "inputs": [
        {
          "indexed": false,
          "internalType": "address",
          "name": "skeleton",
          "type": "address"
        },
        {
          "indexed": false,
          "internalType": "uint256",
          "name": "p",
          "type": "uint256"
        }
      ],
      "name": "SkeletonAdded",
      "type": "event"
    },
    {
      "anonymous": false,
      "inputs": [
        {
          "indexed": false,
          "internalType": "address",
          "name": "skeleton",
          "type": "address"
        },
        {
          "indexed": false,
          "internalType": "uint256",
          "name": "p",
          "type": "uint256"
        }
      ],
      "name": "SkeletonRemoved",
      "type": "event"
    },
    {
      "anonymous": false,
      "inputs": [
        {
          "indexed": false,
          "internalType": "uint256",
          "name": "asset",
          "type": "uint256"
        },
        {
          "indexed": false,
          "internalType": "uint256",
          "name": "position",
          "type": "uint256"
        }
      ],
      "name": "SpellCasted",
      "type": "event"
    },
    {
      "anonymous": false,
      "inputs": [],
      "name": "log",
      "type": "event"
    },
    {
      "anonymous": false,
      "inputs": [
        {
          "indexed": false,
          "internalType": "int256",
          "name": "x",
          "type": "int256"
        }
      ],
      "name": "logInt",
      "type": "event"
    },
    {
      "anonymous": false,
      "inputs": [
        {
          "indexed": false,
          "internalType": "uint256",
          "name": "x",
          "type": "uint256"
        }
      ],
      "name": "logUint",
      "type": "event"
    },
    {
      "inputs": [],
      "name": "N",
      "outputs": [
        {
          "internalType": "uint256",
          "name": "",
          "type": "uint256"
        }
      ],
      "stateMutability": "view",
      "type": "function"
    },
    {
      "inputs": [
        {
          "internalType": "uint256",
          "name": "asset",
          "type": "uint256"
        },
        {
          "internalType": "uint256",
          "name": "position",
          "type": "uint256"
        }
      ],
      "name": "castSpell",
      "outputs": [],
      "stateMutability": "nonpayable",
      "type": "function"
    },
    {
      "inputs": [],
      "name": "getFullState",
      "outputs": [
        {
          "internalType": "uint8[]",
          "name": "obstacles_",
          "type": "uint8[]"
        },
        {
          "internalType": "address[]",
          "name": "skeletonAddresses_",
          "type": "address[]"
        },
        {
          "internalType": "address[]",
          "name": "playerAddresses_",
          "type": "address[]"
        },
        {
          "components": [
            {
              "internalType": "uint256",
              "name": "position",
              "type": "uint256"
            },
            {
              "internalType": "uint256",
              "name": "step",
              "type": "uint256"
            }
          ],
          "internalType": "struct Skeleton[]",
          "name": "skeletons_",
          "type": "tuple[]"
        },
        {
          "components": [
            {
              "internalType": "uint256",
              "name": "position",
              "type": "uint256"
            },
            {
              "internalType": "uint256",
              "name": "nonce",
              "type": "uint256"
            },
            {
              "internalType": "uint256",
              "name": "damage",
              "type": "uint256"
            },
            {
              "internalType": "bool",
              "name": "isActive",
              "type": "bool"
            }
          ],
          "internalType": "struct Player[]",
          "name": "players_",
          "type": "tuple[]"
        }
      ],
      "stateMutability": "view",
      "type": "function"
    },
    {
      "inputs": [],
      "name": "getObstacles",
      "outputs": [
        {
          "internalType": "uint8[]",
          "name": "",
          "type": "uint8[]"
        }
      ],
      "stateMutability": "view",
      "type": "function"
    },
    {
      "inputs": [],
      "name": "getPlayerAddresses",
      "outputs": [
        {
          "internalType": "address[]",
          "name": "",
          "type": "address[]"
        }
      ],
      "stateMutability": "view",
      "type": "function"
    },
    {
      "inputs": [],
      "name": "getSkeletonAddresses",
      "outputs": [
        {
          "internalType": "address[]",
          "name": "",
          "type": "address[]"
        }
      ],
      "stateMutability": "view",
      "type": "function"
    },
    {
      "inputs": [],
      "name": "maxSkeletons",
      "outputs": [
        {
          "internalType": "uint256",
          "name": "",
          "type": "uint256"
        }
      ],
      "stateMutability": "view",
      "type": "function"
    },
    {
      "inputs": [
        {
          "internalType": "uint256",
          "name": "nonce",
          "type": "uint256"
        },
        {
          "internalType": "uint256",
          "name": "stepsToDo",
          "type": "uint256"
        }
      ],
      "name": "move",
      "outputs": [],
      "stateMutability": "nonpayable",
      "type": "function"
    },
    {
      "inputs": [],
      "name": "nextRandomPositionWithoutObstacle",
      "outputs": [
        {
          "internalType": "uint256",
          "name": "",
          "type": "uint256"
        }
      ],
      "stateMutability": "nonpayable",
      "type": "function"
    },
    {
      "inputs": [],
      "name": "nonce",
      "outputs": [
        {
          "internalType": "uint256",
          "name": "",
          "type": "uint256"
        }
      ],
      "stateMutability": "view",
      "type": "function"
    },
    {
      "inputs": [
        {
          "internalType": "uint256",
          "name": "",
          "type": "uint256"
        }
      ],
      "name": "obstacles",
      "outputs": [
        {
          "internalType": "uint8",
          "name": "",
          "type": "uint8"
        }
      ],
      "stateMutability": "view",
      "type": "function"
    },
    {
      "inputs": [
        {
          "internalType": "address",
          "name": "",
          "type": "address"
        }
      ],
      "name": "playerAddressToState",
      "outputs": [
        {
          "internalType": "uint256",
          "name": "position",
          "type": "uint256"
        },
        {
          "internalType": "uint256",
          "name": "nonce",
          "type": "uint256"
        },
        {
          "internalType": "uint256",
          "name": "damage",
          "type": "uint256"
        },
        {
          "internalType": "bool",
          "name": "isActive",
          "type": "bool"
        }
      ],
      "stateMutability": "view",
      "type": "function"
    },
    {
      "inputs": [
        {
          "internalType": "uint256",
          "name": "",
          "type": "uint256"
        }
      ],
      "name": "playerAddresses",
      "outputs": [
        {
          "internalType": "address",
          "name": "",
          "type": "address"
        }
      ],
      "stateMutability": "view",
      "type": "function"
    },
    {
      "inputs": [
        {
          "internalType": "address",
          "name": "",
          "type": "address"
        }
      ],
      "name": "skeletonAddressToState",
      "outputs": [
        {
          "internalType": "uint256",
          "name": "position",
          "type": "uint256"
        },
        {
          "internalType": "uint256",
          "name": "step",
          "type": "uint256"
        }
      ],
      "stateMutability": "view",
      "type": "function"
    },
    {
      "inputs": [
        {
          "internalType": "uint256",
          "name": "",
          "type": "uint256"
        }
      ],
      "name": "skeletonAddresses",
      "outputs": [
        {
          "internalType": "address",
          "name": "",
          "type": "address"
        }
      ],
      "stateMutability": "view",
      "type": "function"
    },
    {
      "inputs": [],
      "name": "spawnSkeletons",
      "outputs": [],
      "stateMutability": "nonpayable",
      "type": "function"
    },
    {
      "inputs": [],
      "name": "teleportIn",
      "outputs": [],
      "stateMutability": "nonpayable",
      "type": "function"
    },
    {
      "inputs": [],
      "name": "teleportOut",
      "outputs": [],
      "stateMutability": "nonpayable",
      "type": "function"
    },
    {
      "inputs": [],
      "name": "version",
      "outputs": [
        {
          "internalType": "uint256",
          "name": "",
          "type": "uint256"
        }
      ],
      "stateMutability": "view",
      "type": "function"
    }
  ],
  "bytecode": {
    "object": "0x60a060405260016080523480156200001657600080fd5b5060405162001d2038038062001d208339810160408190526200003991620005e1565b81516008620000498580620006e0565b62000055919062000710565b146200008b5760405162461bcd60e51b81526020600482015260016024820152602760f91b604482015260640160405180910390fd5b60018390558151620000a5906002906020850190620004f0565b506005819055620000b5620000c8565b620000bf620000f1565b505050620007cd565b6005546004541015620000ef57620000e9620000e3620001bd565b62000244565b620000c8565b565b336000908152600760205260409020600381015460ff16156200011357600080fd5b60006200011f620001bd565b60038301805460ff191660019081179091558184556008805491820181556000527ff3f7a9fe364faab93b216da50a3214154f22a0a2b415b23a84c8169e8b636ee30180546001600160a01b0319163317905590506200017f8162000352565b60408051338152602081018390527f0c1de8e9993c058a253c96414b4215583b25fa35e1b6e0facf4d5a0dc2a6f3f891015b60405180910390a15050565b600080620001ca62000362565b905060005b600154620001de9080620006e0565b8110156200023f57600154600090620001f89080620006e0565b62000204848462000727565b6200021091906200073d565b90506200021d81620003a8565b62000229579392505050565b5080620002368162000754565b915050620001cf565b600080fd5b6200024f81620003a8565b156200025a57600080fd5b6006805460009190829062000278906001600160a01b031662000770565b82546001600160a01b038083166101009490940a848102910219909116179092556040805180820182528581526000602080830182815285835260039091529281209151825591516001918201556004805491820181559091527f8a35acfbc15ff81a39ae7d344fd709f28e8600b4aa8c65c6b64bfe7fe36bd19b0180546001600160a01b03191690911790559050620003128262000352565b604080516001600160a01b0383168152602081018490527f0e83e6d9e51041870d443b1514f32f096c9f81ef34268e7e84fd463c690035649101620001b1565b6200035f600282620003bd565b50565b600080548180620003738362000754565b919050556040516020016200038a91815260200190565b6040516020818303038152906040528051906020012060001c905090565b6000620003b760028362000472565b92915050565b6000620003cc60088362000710565b90506000620003dd6008846200073d565b620003ea906007620007a1565b90506000816001901b9050808584815481106200040b576200040b620007b7565b90600052602060002090602091828204019190069054906101000a900460ff1617858481548110620004415762000441620007b7565b90600052602060002090602091828204019190066101000a81548160ff021916908360ff1602179055505050505050565b6000806200048260088462000710565b90506000620004936008856200073d565b620004a0906007620007a1565b905080858381548110620004b857620004b8620007b7565b90600052602060002090602091828204019190069054906101000a900460ff1660ff16901c60011660ff166001149250505092915050565b82805482825590600052602060002090601f016020900481019282156200058b5791602002820160005b838211156200055a57835183826101000a81548160ff021916908360ff16021790555092602001926001016020816000010492830192600103026200051a565b8015620005895782816101000a81549060ff02191690556001016020816000010492830192600103026200055a565b505b50620005999291506200059d565b5090565b5b808211156200059957600081556001016200059e565b634e487b7160e01b600052604160045260246000fd5b805160ff81168114620005dc57600080fd5b919050565b600080600060608486031215620005f757600080fd5b8351602080860151919450906001600160401b03808211156200061957600080fd5b818701915087601f8301126200062e57600080fd5b815181811115620006435762000643620005b4565b8060051b604051601f19603f830116810181811085821117156200066b576200066b620005b4565b60405291825284820192508381018501918a8311156200068a57600080fd5b938501935b82851015620006b357620006a385620005ca565b845293850193928501926200068f565b809750505050505050604084015190509250925092565b634e487b7160e01b600052601160045260246000fd5b8082028115828204841417620003b757620003b7620006ca565b634e487b7160e01b600052601260045260246000fd5b600082620007225762000722620006fa565b500490565b80820180821115620003b757620003b7620006ca565b6000826200074f576200074f620006fa565b500690565b600060018201620007695762000769620006ca565b5060010190565b60006001600160a01b038281166002600160a01b03198101620007975762000797620006ca565b6001019392505050565b81810381811115620003b757620003b7620006ca565b634e487b7160e01b600052603260045260246000fd5b608051611537620007e9600039600061020601526115376000f3fe608060405234801561001057600080fd5b50600436106101215760003560e01c8063833d2bea116100ad578063affed0e011610071578063affed0e0146102b4578063c9e525df146102cc578063e9659ed1146102d5578063f6a5414d146102de578063ffd4a4f51461030357600080fd5b8063833d2bea1461026e578063972161f7146102835780639dc9cbeb1461029c578063a2b142af146102a4578063a6bfd86c146102ac57600080fd5b806354fd4d50116100f457806354fd4d5014610201578063682676aa146102365780637140ae661461023e578063724d49241461024657806379c9f9a71461025b57600080fd5b80630867408f146101265780630cc06d9d1461013b57806315c6aee21461017c5780632d82e2a6146101a7575b600080fd5b610139610134366004611186565b610316565b005b6101626101493660046111a8565b6003602052600090815260409020805460019091015482565b604080519283526020830191909152015b60405180910390f35b61018f61018a3660046111d1565b610445565b6040516001600160a01b039091168152602001610173565b6101df6101b53660046111a8565b60076020526000908152604090208054600182015460028301546003909301549192909160ff1684565b6040805194855260208501939093529183015215156060820152608001610173565b6102287f000000000000000000000000000000000000000000000000000000000000000081565b604051908152602001610173565b61013961046f565b6102286104f0565b61024e610561565b604051610173919061122e565b61018f6102693660046111d1565b6105c3565b6102766105d3565b6040516101739190611274565b61028b610648565b6040516101739594939291906112d9565b610139610a21565b61024e610ae8565b610139610b48565b33600090815260076020526040902060010154610228565b61022860015481565b61022860055481565b6102f16102ec3660046111d1565b610b6b565b60405160ff9091168152602001610173565b610139610311366004611186565b610b9f565b336000908152600760205260409020600381015460ff1661033657600080fd5b806001015483146103765760405162461bcd60e51b81526020600482015260056024820152644e6f6e636560d81b60448201526064015b60405180910390fd5b80546000608084901c815b818110156103cc576003861660006103998683610bd5565b90508581036103a95750506103cc565b600297881c979095509390931b90921791806103c48161138b565b915050610381565b5083546103d890610c1a565b8284556103e483610c28565b6001840180549060006103f68361138b565b90915550508354604080513381526020810185905280820192909252517f717c71b7226e13a6b97d602aded90ba7f6af22014b5c12d972f442a87cd2d50b9181900360600190a1505050505050565b6008818154811061045557600080fd5b6000918252602090912001546001600160a01b0316905081565b336000908152600760205260409020600381015460ff1661048f57600080fd5b60038101805460ff191690556104a6600833610c33565b80546104b190610c1a565b80546040805133815260208101929092527f9196f2b6f4a943b126dfa008d4d988cc157821a99ada5566b73e9f1c6d9d513d910160405180910390a150565b6000806104fb610d69565b905060005b60015461050d90806113a4565b8110156101215760015460009061052490806113a4565b61052e84846113bb565b61053891906113e4565b905061054381610dac565b61054e579392505050565b50806105598161138b565b915050610500565b606060088054806020026020016040519081016040528092919081815260200182805480156105b957602002820191906000526020600020905b81546001600160a01b0316815260019091019060200180831161059b575b5050505050905090565b6004818154811061045557600080fd5b606060028054806020026020016040519081016040528092919081815260200182805480156105b957602002820191906000526020600020906000905b825461010083900a900460ff168152602060019283018181049485019490930390920291018084116106105790505050505050905090565b606080606080606060028054806020026020016040519081016040528092919081815260200182805480156106ba57602002820191906000526020600020906000905b825461010083900a900460ff1681526020600192830181810494850194909303909202910180841161068b5790505b50505050509450600480548060200260200160405190810160405280929190818152602001828054801561071757602002820191906000526020600020905b81546001600160a01b031681526001909101906020018083116106f9575b50505050509350600880548060200260200160405190810160405280929190818152602001828054801561077457602002820191906000526020600020905b81546001600160a01b03168152600190910190602001808311610756575b50505050509250835167ffffffffffffffff811115610795576107956113f8565b6040519080825280602002602001820160405280156107da57816020015b60408051808201909152600080825260208201528152602001906001900390816107b35790505b50915060005b845181101561087657600360008683815181106107ff576107ff61140e565b60200260200101516001600160a01b03166001600160a01b03168152602001908152602001600020604051806040016040529081600082015481526020016001820154815250508382815181106108585761085861140e565b6020026020010181905250808061086e9061138b565b9150506107e0565b50825167ffffffffffffffff811115610891576108916113f8565b6040519080825280602002602001820160405280156108ef57816020015b6108dc60405180608001604052806000815260200160008152602001600081526020016000151581525090565b8152602001906001900390816108af5790505b50905060005b835181101561099e57600760008583815181106109145761091461140e565b6020908102919091018101516001600160a01b031682528181019290925260409081016000208151608081018352815481526001820154938101939093526002810154918301919091526003015460ff161515606082015282518390839081106109805761098061140e565b602002602001018190525080806109969061138b565b9150506108f5565b5060005b82518110156109e4576109d2868483815181106109c1576109c161140e565b602002602001015160000151610db9565b806109dc8161138b565b9150506109a2565b5060005b8151811015610a1957610a07868383815181106109c1576109c161140e565b80610a118161138b565b9150506109e8565b509091929394565b336000908152600760205260409020600381015460ff1615610a4257600080fd5b6000610a4c6104f0565b60038301805460ff191660019081179091558184556008805491820181556000527ff3f7a9fe364faab93b216da50a3214154f22a0a2b415b23a84c8169e8b636ee30180546001600160a01b031916331790559050610aaa81610c28565b60408051338152602081018390527f0c1de8e9993c058a253c96414b4215583b25fa35e1b6e0facf4d5a0dc2a6f3f891015b60405180910390a15050565b606060048054806020026020016040519081016040528092919081815260200182805480156105b9576020028201919060005260206000209081546001600160a01b0316815260019091019060200180831161059b575050505050905090565b6005546004541015610b6957610b64610b5f6104f0565b610e35565b610b48565b565b60028181548110610b7b57600080fd5b9060005260206000209060209182820401919006915054906101000a900460ff1681565b60408051838152602081018390527fd149ed399d9647d512eb573d40f21ad667c7b1573001f0c0f3c872bc19b763bc9101610adc565b6000610be082610f3b565b610bea9084611424565b9050610bf7838383610f7f565b15610c03575081610c14565b610c0c81610dac565b15610c145750815b92915050565b610c25600282610fef565b50565b610c25600282611099565b60005b8254811015610d3c57816001600160a01b0316838281548110610c5b57610c5b61140e565b6000918252602090912001546001600160a01b031603610d2a5782548390610c859060019061144c565b81548110610c9557610c9561140e565b9060005260206000200160009054906101000a90046001600160a01b0316838281548110610cc557610cc561140e565b9060005260206000200160006101000a8154816001600160a01b0302191690836001600160a01b0316021790555082805480610d0357610d0361145f565b600082815260209020810160001990810180546001600160a01b0319169055019055505050565b80610d348161138b565b915050610c36565b5060405162461bcd60e51b81526020600482015260016024820152602960f91b604482015260640161036d565b600080548180610d788361138b565b91905055604051602001610d8e91815260200190565b6040516020818303038152906040528051906020012060001c905090565b6000610c14600283611111565b6000610dc6600883611475565b90506000610dd56008846113e4565b610de090600761144c565b90506000816001901b90508019858481518110610dff57610dff61140e565b602002602001015116858481518110610e1a57610e1a61140e565b602002602001019060ff16908160ff16815250505050505050565b610e3e81610dac565b15610e4857600080fd5b60068054600091908290610e64906001600160a01b0316611489565b82546001600160a01b038083166101009490940a848102910219909116179092556040805180820182528581526000602080830182815285835260039091529281209151825591516001918201556004805491820181559091527f8a35acfbc15ff81a39ae7d344fd709f28e8600b4aa8c65c6b64bfe7fe36bd19b0180546001600160a01b03191690911790559050610efc82610c28565b604080516001600160a01b0383168152602081018490527f0e83e6d9e51041870d443b1514f32f096c9f81ef34268e7e84fd463c690035649101610adc565b600060038203610f4e5750600019919050565b60018203610f5e57506001919050565b60028203610f7257600154610c14906114b7565b8161012157505060015490565b600060018316600103610fb857600154610f9990836114d3565b600154610fa690866114d3565b14610fb357506001610fe8565b610fe4565b6000821215610fc957506001610fe8565b600154610fd690806113a4565b8210610fe457506001610fe8565b5060005b9392505050565b6000610ffc600883611475565b9050600061100b6008846113e4565b61101690600761144c565b90506000816001901b905080198584815481106110355761103561140e565b90600052602060002090602091828204019190069054906101000a900460ff16168584815481106110685761106861140e565b90600052602060002090602091828204019190066101000a81548160ff021916908360ff1602179055505050505050565b60006110a6600883611475565b905060006110b56008846113e4565b6110c090600761144c565b90506000816001901b9050808584815481106110de576110de61140e565b90600052602060002090602091828204019190069054906101000a900460ff16178584815481106110685761106861140e565b60008061111f600884611475565b9050600061112e6008856113e4565b61113990600761144c565b90508085838154811061114e5761114e61140e565b90600052602060002090602091828204019190069054906101000a900460ff1660ff16901c60011660ff166001149250505092915050565b6000806040838503121561119957600080fd5b50508035926020909101359150565b6000602082840312156111ba57600080fd5b81356001600160a01b0381168114610fe857600080fd5b6000602082840312156111e357600080fd5b5035919050565b600081518084526020808501945080840160005b838110156112235781516001600160a01b0316875295820195908201906001016111fe565b509495945050505050565b602081526000610fe860208301846111ea565b600081518084526020808501945080840160005b8381101561122357815160ff1687529582019590820190600101611255565b602081526000610fe86020830184611241565b600081518084526020808501945080840160005b83811015611223578151805188528381015184890152604080820151908901526060908101511515908801526080909601959082019060010161129b565b60a0815260006112ec60a0830188611241565b6020838203818501526112ff82896111ea565b915060408483038186015261131483896111ea565b8581036060870152875180825283890194509083019060005b818110156113525785518051845285015185840152948401949183019160010161132d565b505085810360808701526113668188611287565b9b9a5050505050505050505050565b634e487b7160e01b600052601160045260246000fd5b60006001820161139d5761139d611375565b5060010190565b8082028115828204841417610c1457610c14611375565b80820180821115610c1457610c14611375565b634e487b7160e01b600052601260045260246000fd5b6000826113f3576113f36113ce565b500690565b634e487b7160e01b600052604160045260246000fd5b634e487b7160e01b600052603260045260246000fd5b808201828112600083128015821682158216171561144457611444611375565b505092915050565b81810381811115610c1457610c14611375565b634e487b7160e01b600052603160045260246000fd5b600082611484576114846113ce565b500490565b60006001600160a01b038281166002600160a01b031981016114ad576114ad611375565b6001019392505050565b6000600160ff1b82016114cc576114cc611375565b5060000390565b6000826114e2576114e26113ce565b600160ff1b8214600019841416156114fc576114fc611375565b50059056fea26469706673582212204b86efc62bfc7b83491e4615bf9bd8c5756be5567471140a55dfc575149594ec64736f6c63430008150033",
    "linkReferences": {}
  },
  "methodIdentifiers": {
    "N()": "c9e525df",
    "castSpell(uint256,uint256)": "ffd4a4f5",
    "getFullState()": "972161f7",
    "getObstacles()": "833d2bea",
    "getPlayerAddresses()": "724d4924",
    "getSkeletonAddresses()": "a2b142af",
    "maxSkeletons()": "e9659ed1",
    "move(uint256,uint256)": "0867408f",
    "nextRandomPositionWithoutObstacle()": "7140ae66",
    "nonce()": "affed0e0",
    "obstacles(uint256)": "f6a5414d",
    "playerAddressToState(address)": "2d82e2a6",
    "playerAddresses(uint256)": "15c6aee2",
    "skeletonAddressToState(address)": "0cc06d9d",
    "skeletonAddresses(uint256)": "79c9f9a7",
    "spawnSkeletons()": "a6bfd86c",
    "teleportIn()": "9dc9cbeb",
    "teleportOut()": "682676aa",
    "version()": "54fd4d50"
  },
  "id": 0
}