{
  "abi": [
    {
      "inputs": [
        {
          "internalType": "uint256",
          "name": "_N",
          "type": "uint256"
        },
        {
          "internalType": "uint8[]",
          "name": "_obstacles",
          "type": "uint8[]"
        },
        {
          "internalType": "uint256",
          "name": "_maxSkeletons",
          "type": "uint256"
        }
      ],
      "stateMutability": "nonpayable",
      "type": "constructor"
    },
    {
      "anonymous": false,
      "inputs": [
        {
          "indexed": false,
          "internalType": "address",
          "name": "player",
          "type": "address"
        },
        {
          "indexed": false,
          "internalType": "uint256",
          "name": "p",
          "type": "uint256"
        }
      ],
      "name": "PlayerAdded",
      "type": "event"
    },
    {
      "anonymous": false,
      "inputs": [
        {
          "indexed": false,
          "internalType": "address",
          "name": "player",
          "type": "address"
        },
        {
          "indexed": false,
          "internalType": "uint256",
          "name": "stepsDone",
          "type": "uint256"
        },
        {
          "indexed": false,
          "internalType": "uint256",
          "name": "newPosition",
          "type": "uint256"
        }
      ],
      "name": "PlayerMoved",
      "type": "event"
    },
    {
      "anonymous": false,
      "inputs": [
        {
          "indexed": false,
          "internalType": "address",
          "name": "player",
          "type": "address"
        },
        {
          "indexed": false,
          "internalType": "uint256",
          "name": "p",
          "type": "uint256"
        }
      ],
      "name": "PlayerRemoved",
      "type": "event"
    },
    {
      "anonymous": false,
      "inputs": [
        {
          "indexed": false,
          "internalType": "address",
          "name": "skeleton",
          "type": "address"
        },
        {
          "indexed": false,
          "internalType": "uint256",
          "name": "p",
          "type": "uint256"
        }
      ],
      "name": "SkeletonAdded",
      "type": "event"
    },
    {
      "anonymous": false,
      "inputs": [
        {
          "indexed": false,
          "internalType": "address",
          "name": "skeleton",
          "type": "address"
        },
        {
          "indexed": false,
          "internalType": "uint256",
          "name": "p",
          "type": "uint256"
        }
      ],
      "name": "SkeletonRemoved",
      "type": "event"
    },
    {
      "anonymous": false,
      "inputs": [],
      "name": "log",
      "type": "event"
    },
    {
      "anonymous": false,
      "inputs": [
        {
          "indexed": false,
          "internalType": "int256",
          "name": "x",
          "type": "int256"
        }
      ],
      "name": "logInt",
      "type": "event"
    },
    {
      "anonymous": false,
      "inputs": [
        {
          "indexed": false,
          "internalType": "uint256",
          "name": "x",
          "type": "uint256"
        }
      ],
      "name": "logUint",
      "type": "event"
    },
    {
      "inputs": [],
      "name": "N",
      "outputs": [
        {
          "internalType": "uint256",
          "name": "",
          "type": "uint256"
        }
      ],
      "stateMutability": "view",
      "type": "function"
    },
    {
      "inputs": [],
      "name": "getFullState",
      "outputs": [
        {
          "internalType": "uint8[]",
          "name": "obstacles_",
          "type": "uint8[]"
        },
        {
          "internalType": "address[]",
          "name": "skeletonAddresses_",
          "type": "address[]"
        },
        {
          "internalType": "address[]",
          "name": "playerAddresses_",
          "type": "address[]"
        },
        {
          "components": [
            {
              "internalType": "uint256",
              "name": "position",
              "type": "uint256"
            },
            {
              "internalType": "uint256",
              "name": "step",
              "type": "uint256"
            }
          ],
          "internalType": "struct Skeleton[]",
          "name": "skeletons_",
          "type": "tuple[]"
        },
        {
          "components": [
            {
              "internalType": "uint256",
              "name": "position",
              "type": "uint256"
            },
            {
              "internalType": "uint256",
              "name": "nonce",
              "type": "uint256"
            },
            {
              "internalType": "uint256",
              "name": "damage",
              "type": "uint256"
            },
            {
              "internalType": "bool",
              "name": "isActive",
              "type": "bool"
            }
          ],
          "internalType": "struct Player[]",
          "name": "players_",
          "type": "tuple[]"
        }
      ],
      "stateMutability": "view",
      "type": "function"
    },
    {
      "inputs": [],
      "name": "getObstacles",
      "outputs": [
        {
          "internalType": "uint8[]",
          "name": "",
          "type": "uint8[]"
        }
      ],
      "stateMutability": "view",
      "type": "function"
    },
    {
      "inputs": [],
      "name": "getPlayerAddresses",
      "outputs": [
        {
          "internalType": "address[]",
          "name": "",
          "type": "address[]"
        }
      ],
      "stateMutability": "view",
      "type": "function"
    },
    {
      "inputs": [],
      "name": "getSkeletonAddresses",
      "outputs": [
        {
          "internalType": "address[]",
          "name": "",
          "type": "address[]"
        }
      ],
      "stateMutability": "view",
      "type": "function"
    },
    {
      "inputs": [],
      "name": "maxSkeletons",
      "outputs": [
        {
          "internalType": "uint256",
          "name": "",
          "type": "uint256"
        }
      ],
      "stateMutability": "view",
      "type": "function"
    },
    {
      "inputs": [
        {
          "internalType": "uint256",
          "name": "nonce",
          "type": "uint256"
        },
        {
          "internalType": "uint256",
          "name": "stepsToDo",
          "type": "uint256"
        }
      ],
      "name": "move",
      "outputs": [],
      "stateMutability": "nonpayable",
      "type": "function"
    },
    {
      "inputs": [],
      "name": "nextRandomPositionWithoutObstacle",
      "outputs": [
        {
          "internalType": "uint256",
          "name": "",
          "type": "uint256"
        }
      ],
      "stateMutability": "nonpayable",
      "type": "function"
    },
    {
      "inputs": [],
      "name": "nonce",
      "outputs": [
        {
          "internalType": "uint256",
          "name": "",
          "type": "uint256"
        }
      ],
      "stateMutability": "view",
      "type": "function"
    },
    {
      "inputs": [
        {
          "internalType": "uint256",
          "name": "",
          "type": "uint256"
        }
      ],
      "name": "obstacles",
      "outputs": [
        {
          "internalType": "uint8",
          "name": "",
          "type": "uint8"
        }
      ],
      "stateMutability": "view",
      "type": "function"
    },
    {
      "inputs": [
        {
          "internalType": "address",
          "name": "",
          "type": "address"
        }
      ],
      "name": "playerAddressToState",
      "outputs": [
        {
          "internalType": "uint256",
          "name": "position",
          "type": "uint256"
        },
        {
          "internalType": "uint256",
          "name": "nonce",
          "type": "uint256"
        },
        {
          "internalType": "uint256",
          "name": "damage",
          "type": "uint256"
        },
        {
          "internalType": "bool",
          "name": "isActive",
          "type": "bool"
        }
      ],
      "stateMutability": "view",
      "type": "function"
    },
    {
      "inputs": [
        {
          "internalType": "uint256",
          "name": "",
          "type": "uint256"
        }
      ],
      "name": "playerAddresses",
      "outputs": [
        {
          "internalType": "address",
          "name": "",
          "type": "address"
        }
      ],
      "stateMutability": "view",
      "type": "function"
    },
    {
      "inputs": [
        {
          "internalType": "address",
          "name": "",
          "type": "address"
        }
      ],
      "name": "skeletonAddressToState",
      "outputs": [
        {
          "internalType": "uint256",
          "name": "position",
          "type": "uint256"
        },
        {
          "internalType": "uint256",
          "name": "step",
          "type": "uint256"
        }
      ],
      "stateMutability": "view",
      "type": "function"
    },
    {
      "inputs": [
        {
          "internalType": "uint256",
          "name": "",
          "type": "uint256"
        }
      ],
      "name": "skeletonAddresses",
      "outputs": [
        {
          "internalType": "address",
          "name": "",
          "type": "address"
        }
      ],
      "stateMutability": "view",
      "type": "function"
    },
    {
      "inputs": [],
      "name": "spawnSkeletons",
      "outputs": [],
      "stateMutability": "nonpayable",
      "type": "function"
    },
    {
      "inputs": [],
      "name": "teleportIn",
      "outputs": [],
      "stateMutability": "nonpayable",
      "type": "function"
    },
    {
      "inputs": [],
      "name": "teleportOut",
      "outputs": [],
      "stateMutability": "nonpayable",
      "type": "function"
    },
    {
      "inputs": [],
      "name": "version",
      "outputs": [
        {
          "internalType": "uint256",
          "name": "",
          "type": "uint256"
        }
      ],
      "stateMutability": "view",
      "type": "function"
    }
  ],
  "bytecode": {
    "object": "0x60a060405260016080523480156200001657600080fd5b5060405162001d0138038062001d018339810160408190526200003991620005e1565b81516008620000498580620006e0565b62000055919062000710565b146200008b5760405162461bcd60e51b81526020600482015260016024820152602760f91b604482015260640160405180910390fd5b60018390558151620000a5906002906020850190620004f0565b506005819055620000b5620000c8565b620000bf620000f1565b505050620007cd565b6005546004541015620000ef57620000e9620000e3620001bd565b62000244565b620000c8565b565b336000908152600760205260409020600381015460ff16156200011357600080fd5b60006200011f620001bd565b60038301805460ff191660019081179091558184556008805491820181556000527ff3f7a9fe364faab93b216da50a3214154f22a0a2b415b23a84c8169e8b636ee30180546001600160a01b0319163317905590506200017f8162000352565b60408051338152602081018390527f0c1de8e9993c058a253c96414b4215583b25fa35e1b6e0facf4d5a0dc2a6f3f891015b60405180910390a15050565b600080620001ca62000362565b905060005b600154620001de9080620006e0565b8110156200023f57600154600090620001f89080620006e0565b62000204848462000727565b6200021091906200073d565b90506200021d81620003a8565b62000229579392505050565b5080620002368162000754565b915050620001cf565b600080fd5b6200024f81620003a8565b156200025a57600080fd5b6006805460009190829062000278906001600160a01b031662000770565b82546001600160a01b038083166101009490940a848102910219909116179092556040805180820182528581526000602080830182815285835260039091529281209151825591516001918201556004805491820181559091527f8a35acfbc15ff81a39ae7d344fd709f28e8600b4aa8c65c6b64bfe7fe36bd19b0180546001600160a01b03191690911790559050620003128262000352565b604080516001600160a01b0383168152602081018490527f0e83e6d9e51041870d443b1514f32f096c9f81ef34268e7e84fd463c690035649101620001b1565b6200035f600282620003bd565b50565b600080548180620003738362000754565b919050556040516020016200038a91815260200190565b6040516020818303038152906040528051906020012060001c905090565b6000620003b760028362000472565b92915050565b6000620003cc60088362000710565b90506000620003dd6008846200073d565b620003ea906007620007a1565b90506000816001901b9050808584815481106200040b576200040b620007b7565b90600052602060002090602091828204019190069054906101000a900460ff1617858481548110620004415762000441620007b7565b90600052602060002090602091828204019190066101000a81548160ff021916908360ff1602179055505050505050565b6000806200048260088462000710565b90506000620004936008856200073d565b620004a0906007620007a1565b905080858381548110620004b857620004b8620007b7565b90600052602060002090602091828204019190069054906101000a900460ff1660ff16901c60011660ff166001149250505092915050565b82805482825590600052602060002090601f016020900481019282156200058b5791602002820160005b838211156200055a57835183826101000a81548160ff021916908360ff16021790555092602001926001016020816000010492830192600103026200051a565b8015620005895782816101000a81549060ff02191690556001016020816000010492830192600103026200055a565b505b50620005999291506200059d565b5090565b5b808211156200059957600081556001016200059e565b634e487b7160e01b600052604160045260246000fd5b805160ff81168114620005dc57600080fd5b919050565b600080600060608486031215620005f757600080fd5b8351602080860151919450906001600160401b03808211156200061957600080fd5b818701915087601f8301126200062e57600080fd5b815181811115620006435762000643620005b4565b8060051b604051601f19603f830116810181811085821117156200066b576200066b620005b4565b60405291825284820192508381018501918a8311156200068a57600080fd5b938501935b82851015620006b357620006a385620005ca565b845293850193928501926200068f565b809750505050505050604084015190509250925092565b634e487b7160e01b600052601160045260246000fd5b8082028115828204841417620003b757620003b7620006ca565b634e487b7160e01b600052601260045260246000fd5b600082620007225762000722620006fa565b500490565b80820180821115620003b757620003b7620006ca565b6000826200074f576200074f620006fa565b500690565b600060018201620007695762000769620006ca565b5060010190565b60006001600160a01b038281166002600160a01b03198101620007975762000797620006ca565b6001019392505050565b81810381811115620003b757620003b7620006ca565b634e487b7160e01b600052603260045260246000fd5b608051611518620007e960003960006101fb01526115186000f3fe608060405234801561001057600080fd5b50600436106101165760003560e01c8063833d2bea116100a2578063a6bfd86c11610071578063a6bfd86c146102a1578063affed0e0146102a9578063c9e525df146102c1578063e9659ed1146102ca578063f6a5414d146102d357600080fd5b8063833d2bea14610263578063972161f7146102785780639dc9cbeb14610291578063a2b142af1461029957600080fd5b806354fd4d50116100e957806354fd4d50146101f6578063682676aa1461022b5780637140ae6614610233578063724d49241461023b57806379c9f9a71461025057600080fd5b80630867408f1461011b5780630cc06d9d1461013057806315c6aee2146101715780632d82e2a61461019c575b600080fd5b61012e610129366004611167565b6102f8565b005b61015761013e366004611189565b6003602052600090815260409020805460019091015482565b604080519283526020830191909152015b60405180910390f35b61018461017f3660046111b2565b61045c565b6040516001600160a01b039091168152602001610168565b6101d46101aa366004611189565b60076020526000908152604090208054600182015460028301546003909301549192909160ff1684565b6040805194855260208501939093529183015215156060820152608001610168565b61021d7f000000000000000000000000000000000000000000000000000000000000000081565b604051908152602001610168565b61012e610486565b61021d610507565b610243610578565b604051610168919061120f565b61018461025e3660046111b2565b6105da565b61026b6105ea565b6040516101689190611255565b61028061065f565b6040516101689594939291906112ba565b61012e610a38565b610243610aff565b61012e610b5f565b3360009081526007602052604090206001015461021d565b61021d60015481565b61021d60055481565b6102e66102e13660046111b2565b610b82565b60405160ff9091168152602001610168565b336000908152600760205260409020600381015460ff1661031857600080fd5b806001015483146103585760405162461bcd60e51b81526020600482015260056024820152644e6f6e636560d81b60448201526064015b60405180910390fd5b8054604051608084901c8082526000917f9905b744e1ac2c16b139dc8c0eca0ca4769bb0583128f9fab29c596e9db4910a9060200160405180910390a160005b818110156103e3576003861660006103b08683610bb6565b90508581036103c05750506103e3565b600297881c979095509390931b90921791806103db8161136c565b915050610398565b5083546103ef90610bfb565b8284556103fb83610c09565b60018401805490600061040d8361136c565b90915550508354604080513381526020810185905280820192909252517f717c71b7226e13a6b97d602aded90ba7f6af22014b5c12d972f442a87cd2d50b9181900360600190a1505050505050565b6008818154811061046c57600080fd5b6000918252602090912001546001600160a01b0316905081565b336000908152600760205260409020600381015460ff166104a657600080fd5b60038101805460ff191690556104bd600833610c14565b80546104c890610bfb565b80546040805133815260208101929092527f9196f2b6f4a943b126dfa008d4d988cc157821a99ada5566b73e9f1c6d9d513d910160405180910390a150565b600080610512610d4a565b905060005b6001546105249080611385565b8110156101165760015460009061053b9080611385565b610545848461139c565b61054f91906113c5565b905061055a81610d8d565b610565579392505050565b50806105708161136c565b915050610517565b606060088054806020026020016040519081016040528092919081815260200182805480156105d057602002820191906000526020600020905b81546001600160a01b031681526001909101906020018083116105b2575b5050505050905090565b6004818154811061046c57600080fd5b606060028054806020026020016040519081016040528092919081815260200182805480156105d057602002820191906000526020600020906000905b825461010083900a900460ff168152602060019283018181049485019490930390920291018084116106275790505050505050905090565b606080606080606060028054806020026020016040519081016040528092919081815260200182805480156106d157602002820191906000526020600020906000905b825461010083900a900460ff168152602060019283018181049485019490930390920291018084116106a25790505b50505050509450600480548060200260200160405190810160405280929190818152602001828054801561072e57602002820191906000526020600020905b81546001600160a01b03168152600190910190602001808311610710575b50505050509350600880548060200260200160405190810160405280929190818152602001828054801561078b57602002820191906000526020600020905b81546001600160a01b0316815260019091019060200180831161076d575b50505050509250835167ffffffffffffffff8111156107ac576107ac6113d9565b6040519080825280602002602001820160405280156107f157816020015b60408051808201909152600080825260208201528152602001906001900390816107ca5790505b50915060005b845181101561088d5760036000868381518110610816576108166113ef565b60200260200101516001600160a01b03166001600160a01b031681526020019081526020016000206040518060400160405290816000820154815260200160018201548152505083828151811061086f5761086f6113ef565b602002602001018190525080806108859061136c565b9150506107f7565b50825167ffffffffffffffff8111156108a8576108a86113d9565b60405190808252806020026020018201604052801561090657816020015b6108f360405180608001604052806000815260200160008152602001600081526020016000151581525090565b8152602001906001900390816108c65790505b50905060005b83518110156109b5576007600085838151811061092b5761092b6113ef565b6020908102919091018101516001600160a01b031682528181019290925260409081016000208151608081018352815481526001820154938101939093526002810154918301919091526003015460ff16151560608201528251839083908110610997576109976113ef565b602002602001018190525080806109ad9061136c565b91505061090c565b5060005b82518110156109fb576109e9868483815181106109d8576109d86113ef565b602002602001015160000151610d9a565b806109f38161136c565b9150506109b9565b5060005b8151811015610a3057610a1e868383815181106109d8576109d86113ef565b80610a288161136c565b9150506109ff565b509091929394565b336000908152600760205260409020600381015460ff1615610a5957600080fd5b6000610a63610507565b60038301805460ff191660019081179091558184556008805491820181556000527ff3f7a9fe364faab93b216da50a3214154f22a0a2b415b23a84c8169e8b636ee30180546001600160a01b031916331790559050610ac181610c09565b60408051338152602081018390527f0c1de8e9993c058a253c96414b4215583b25fa35e1b6e0facf4d5a0dc2a6f3f891015b60405180910390a15050565b606060048054806020026020016040519081016040528092919081815260200182805480156105d0576020028201919060005260206000209081546001600160a01b031681526001909101906020018083116105b2575050505050905090565b6005546004541015610b8057610b7b610b76610507565b610e16565b610b5f565b565b60028181548110610b9257600080fd5b9060005260206000209060209182820401919006915054906101000a900460ff1681565b6000610bc182610f1c565b610bcb9084611405565b9050610bd8838383610f60565b15610be4575081610bf5565b610bed81610d8d565b15610bf55750815b92915050565b610c06600282610fd0565b50565b610c0660028261107a565b60005b8254811015610d1d57816001600160a01b0316838281548110610c3c57610c3c6113ef565b6000918252602090912001546001600160a01b031603610d0b5782548390610c669060019061142d565b81548110610c7657610c766113ef565b9060005260206000200160009054906101000a90046001600160a01b0316838281548110610ca657610ca66113ef565b9060005260206000200160006101000a8154816001600160a01b0302191690836001600160a01b0316021790555082805480610ce457610ce4611440565b600082815260209020810160001990810180546001600160a01b0319169055019055505050565b80610d158161136c565b915050610c17565b5060405162461bcd60e51b81526020600482015260016024820152602960f91b604482015260640161034f565b600080548180610d598361136c565b91905055604051602001610d6f91815260200190565b6040516020818303038152906040528051906020012060001c905090565b6000610bf56002836110f2565b6000610da7600883611456565b90506000610db66008846113c5565b610dc190600761142d565b90506000816001901b90508019858481518110610de057610de06113ef565b602002602001015116858481518110610dfb57610dfb6113ef565b602002602001019060ff16908160ff16815250505050505050565b610e1f81610d8d565b15610e2957600080fd5b60068054600091908290610e45906001600160a01b031661146a565b82546001600160a01b038083166101009490940a848102910219909116179092556040805180820182528581526000602080830182815285835260039091529281209151825591516001918201556004805491820181559091527f8a35acfbc15ff81a39ae7d344fd709f28e8600b4aa8c65c6b64bfe7fe36bd19b0180546001600160a01b03191690911790559050610edd82610c09565b604080516001600160a01b0383168152602081018490527f0e83e6d9e51041870d443b1514f32f096c9f81ef34268e7e84fd463c690035649101610af3565b600060038203610f2f5750600019919050565b60018203610f3f57506001919050565b60028203610f5357600154610bf590611498565b8161011657505060015490565b600060018316600103610f9957600154610f7a90836114b4565b600154610f8790866114b4565b14610f9457506001610fc9565b610fc5565b6000821215610faa57506001610fc9565b600154610fb79080611385565b8210610fc557506001610fc9565b5060005b9392505050565b6000610fdd600883611456565b90506000610fec6008846113c5565b610ff790600761142d565b90506000816001901b90508019858481548110611016576110166113ef565b90600052602060002090602091828204019190069054906101000a900460ff1616858481548110611049576110496113ef565b90600052602060002090602091828204019190066101000a81548160ff021916908360ff1602179055505050505050565b6000611087600883611456565b905060006110966008846113c5565b6110a190600761142d565b90506000816001901b9050808584815481106110bf576110bf6113ef565b90600052602060002090602091828204019190069054906101000a900460ff1617858481548110611049576110496113ef565b600080611100600884611456565b9050600061110f6008856113c5565b61111a90600761142d565b90508085838154811061112f5761112f6113ef565b90600052602060002090602091828204019190069054906101000a900460ff1660ff16901c60011660ff166001149250505092915050565b6000806040838503121561117a57600080fd5b50508035926020909101359150565b60006020828403121561119b57600080fd5b81356001600160a01b0381168114610fc957600080fd5b6000602082840312156111c457600080fd5b5035919050565b600081518084526020808501945080840160005b838110156112045781516001600160a01b0316875295820195908201906001016111df565b509495945050505050565b602081526000610fc960208301846111cb565b600081518084526020808501945080840160005b8381101561120457815160ff1687529582019590820190600101611236565b602081526000610fc96020830184611222565b600081518084526020808501945080840160005b83811015611204578151805188528381015184890152604080820151908901526060908101511515908801526080909601959082019060010161127c565b60a0815260006112cd60a0830188611222565b6020838203818501526112e082896111cb565b91506040848303818601526112f583896111cb565b8581036060870152875180825283890194509083019060005b818110156113335785518051845285015185840152948401949183019160010161130e565b505085810360808701526113478188611268565b9b9a5050505050505050505050565b634e487b7160e01b600052601160045260246000fd5b60006001820161137e5761137e611356565b5060010190565b8082028115828204841417610bf557610bf5611356565b80820180821115610bf557610bf5611356565b634e487b7160e01b600052601260045260246000fd5b6000826113d4576113d46113af565b500690565b634e487b7160e01b600052604160045260246000fd5b634e487b7160e01b600052603260045260246000fd5b808201828112600083128015821682158216171561142557611425611356565b505092915050565b81810381811115610bf557610bf5611356565b634e487b7160e01b600052603160045260246000fd5b600082611465576114656113af565b500490565b60006001600160a01b038281166002600160a01b0319810161148e5761148e611356565b6001019392505050565b6000600160ff1b82016114ad576114ad611356565b5060000390565b6000826114c3576114c36113af565b600160ff1b8214600019841416156114dd576114dd611356565b50059056fea2646970667358221220bb7a0917dd45c818e77c67bdae2a2fda70e891db48a3f1c027940c8903d7ff6864736f6c63430008150033",
    "linkReferences": {}
  },
  "methodIdentifiers": {
    "N()": "c9e525df",
    "getFullState()": "972161f7",
    "getObstacles()": "833d2bea",
    "getPlayerAddresses()": "724d4924",
    "getSkeletonAddresses()": "a2b142af",
    "maxSkeletons()": "e9659ed1",
    "move(uint256,uint256)": "0867408f",
    "nextRandomPositionWithoutObstacle()": "7140ae66",
    "nonce()": "affed0e0",
    "obstacles(uint256)": "f6a5414d",
    "playerAddressToState(address)": "2d82e2a6",
    "playerAddresses(uint256)": "15c6aee2",
    "skeletonAddressToState(address)": "0cc06d9d",
    "skeletonAddresses(uint256)": "79c9f9a7",
    "spawnSkeletons()": "a6bfd86c",
    "teleportIn()": "9dc9cbeb",
    "teleportOut()": "682676aa",
    "version()": "54fd4d50"
  },
  "id": 0
}