{
  "abi": [
    {
      "inputs": [
        {
          "internalType": "uint256",
          "name": "_N",
          "type": "uint256"
        },
        {
          "internalType": "uint8[]",
          "name": "_obstacles",
          "type": "uint8[]"
        },
        {
          "internalType": "uint256",
          "name": "_maxSkeletons",
          "type": "uint256"
        },
        {
          "internalType": "uint256",
          "name": "_skeletonRespawnTime",
          "type": "uint256"
        }
      ],
      "stateMutability": "nonpayable",
      "type": "constructor"
    },
    {
      "anonymous": false,
      "inputs": [
        {
          "indexed": false,
          "internalType": "address",
          "name": "player",
          "type": "address"
        },
        {
          "indexed": false,
          "internalType": "uint256",
          "name": "p",
          "type": "uint256"
        }
      ],
      "name": "PlayerAdded",
      "type": "event"
    },
    {
      "anonymous": false,
      "inputs": [
        {
          "indexed": false,
          "internalType": "address",
          "name": "player",
          "type": "address"
        },
        {
          "indexed": false,
          "internalType": "uint256",
          "name": "damage",
          "type": "uint256"
        }
      ],
      "name": "PlayerDamaged",
      "type": "event"
    },
    {
      "anonymous": false,
      "inputs": [
        {
          "indexed": false,
          "internalType": "address",
          "name": "player",
          "type": "address"
        }
      ],
      "name": "PlayerKilled",
      "type": "event"
    },
    {
      "anonymous": false,
      "inputs": [
        {
          "indexed": false,
          "internalType": "address",
          "name": "player",
          "type": "address"
        },
        {
          "indexed": false,
          "internalType": "uint256",
          "name": "stepsDone",
          "type": "uint256"
        },
        {
          "indexed": false,
          "internalType": "uint256",
          "name": "newPosition",
          "type": "uint256"
        }
      ],
      "name": "PlayerMoved",
      "type": "event"
    },
    {
      "anonymous": false,
      "inputs": [
        {
          "indexed": false,
          "internalType": "address",
          "name": "player",
          "type": "address"
        },
        {
          "indexed": false,
          "internalType": "uint256",
          "name": "p",
          "type": "uint256"
        }
      ],
      "name": "PlayerRemoved",
      "type": "event"
    },
    {
      "anonymous": false,
      "inputs": [
        {
          "indexed": false,
          "internalType": "address",
          "name": "skeleton",
          "type": "address"
        },
        {
          "indexed": false,
          "internalType": "uint256",
          "name": "p",
          "type": "uint256"
        }
      ],
      "name": "SkeletonAdded",
      "type": "event"
    },
    {
      "anonymous": false,
      "inputs": [
        {
          "indexed": false,
          "internalType": "address",
          "name": "skeleton",
          "type": "address"
        },
        {
          "indexed": false,
          "internalType": "uint256",
          "name": "p",
          "type": "uint256"
        }
      ],
      "name": "SkeletonMoved",
      "type": "event"
    },
    {
      "anonymous": false,
      "inputs": [
        {
          "indexed": false,
          "internalType": "address",
          "name": "skeleton",
          "type": "address"
        },
        {
          "indexed": false,
          "internalType": "uint256",
          "name": "p",
          "type": "uint256"
        }
      ],
      "name": "SkeletonRemoved",
      "type": "event"
    },
    {
      "anonymous": false,
      "inputs": [
        {
          "indexed": false,
          "internalType": "uint256",
          "name": "asset",
          "type": "uint256"
        },
        {
          "indexed": false,
          "internalType": "address",
          "name": "target",
          "type": "address"
        }
      ],
      "name": "SpellCasted",
      "type": "event"
    },
    {
      "anonymous": false,
      "inputs": [],
      "name": "log",
      "type": "event"
    },
    {
      "anonymous": false,
      "inputs": [
        {
          "indexed": false,
          "internalType": "int256",
          "name": "x",
          "type": "int256"
        }
      ],
      "name": "logInt",
      "type": "event"
    },
    {
      "anonymous": false,
      "inputs": [
        {
          "indexed": false,
          "internalType": "uint256",
          "name": "x",
          "type": "uint256"
        }
      ],
      "name": "logUint",
      "type": "event"
    },
    {
      "inputs": [],
      "name": "N",
      "outputs": [
        {
          "internalType": "uint256",
          "name": "",
          "type": "uint256"
        }
      ],
      "stateMutability": "view",
      "type": "function"
    },
    {
      "inputs": [
        {
          "internalType": "uint256",
          "name": "asset",
          "type": "uint256"
        },
        {
          "internalType": "address",
          "name": "target",
          "type": "address"
        }
      ],
      "name": "castSpell",
      "outputs": [],
      "stateMutability": "nonpayable",
      "type": "function"
    },
    {
      "inputs": [],
      "name": "getFullState",
      "outputs": [
        {
          "internalType": "uint8[]",
          "name": "obstacles_",
          "type": "uint8[]"
        },
        {
          "internalType": "address[]",
          "name": "skeletonAddresses_",
          "type": "address[]"
        },
        {
          "internalType": "address[]",
          "name": "playerAddresses_",
          "type": "address[]"
        },
        {
          "components": [
            {
              "internalType": "uint256",
              "name": "position",
              "type": "uint256"
            },
            {
              "internalType": "uint256",
              "name": "step",
              "type": "uint256"
            }
          ],
          "internalType": "struct Skeleton[]",
          "name": "skeletons_",
          "type": "tuple[]"
        },
        {
          "components": [
            {
              "internalType": "uint256",
              "name": "position",
              "type": "uint256"
            },
            {
              "internalType": "uint256",
              "name": "nonce",
              "type": "uint256"
            },
            {
              "internalType": "uint256",
              "name": "damage",
              "type": "uint256"
            },
            {
              "internalType": "bool",
              "name": "isActive",
              "type": "bool"
            }
          ],
          "internalType": "struct Player[]",
          "name": "players_",
          "type": "tuple[]"
        }
      ],
      "stateMutability": "view",
      "type": "function"
    },
    {
      "inputs": [],
      "name": "getObstacles",
      "outputs": [
        {
          "internalType": "uint8[]",
          "name": "",
          "type": "uint8[]"
        }
      ],
      "stateMutability": "view",
      "type": "function"
    },
    {
      "inputs": [],
      "name": "getPlayerAddresses",
      "outputs": [
        {
          "internalType": "address[]",
          "name": "",
          "type": "address[]"
        }
      ],
      "stateMutability": "view",
      "type": "function"
    },
    {
      "inputs": [],
      "name": "getSkeletonAddresses",
      "outputs": [
        {
          "internalType": "address[]",
          "name": "",
          "type": "address[]"
        }
      ],
      "stateMutability": "view",
      "type": "function"
    },
    {
      "inputs": [],
      "name": "maxSkeletons",
      "outputs": [
        {
          "internalType": "uint256",
          "name": "",
          "type": "uint256"
        }
      ],
      "stateMutability": "view",
      "type": "function"
    },
    {
      "inputs": [
        {
          "internalType": "uint256",
          "name": "nonce",
          "type": "uint256"
        },
        {
          "internalType": "uint256",
          "name": "stepsToDo",
          "type": "uint256"
        }
      ],
      "name": "move",
      "outputs": [],
      "stateMutability": "nonpayable",
      "type": "function"
    },
    {
      "inputs": [],
      "name": "nextRandomPositionWithoutObstacle",
      "outputs": [
        {
          "internalType": "uint256",
          "name": "",
          "type": "uint256"
        }
      ],
      "stateMutability": "nonpayable",
      "type": "function"
    },
    {
      "inputs": [],
      "name": "nonce",
      "outputs": [
        {
          "internalType": "uint256",
          "name": "",
          "type": "uint256"
        }
      ],
      "stateMutability": "view",
      "type": "function"
    },
    {
      "inputs": [
        {
          "internalType": "uint256",
          "name": "",
          "type": "uint256"
        }
      ],
      "name": "obstacles",
      "outputs": [
        {
          "internalType": "uint8",
          "name": "",
          "type": "uint8"
        }
      ],
      "stateMutability": "view",
      "type": "function"
    },
    {
      "inputs": [
        {
          "internalType": "address",
          "name": "",
          "type": "address"
        }
      ],
      "name": "playerAddressToState",
      "outputs": [
        {
          "internalType": "uint256",
          "name": "position",
          "type": "uint256"
        },
        {
          "internalType": "uint256",
          "name": "nonce",
          "type": "uint256"
        },
        {
          "internalType": "uint256",
          "name": "damage",
          "type": "uint256"
        },
        {
          "internalType": "bool",
          "name": "isActive",
          "type": "bool"
        }
      ],
      "stateMutability": "view",
      "type": "function"
    },
    {
      "inputs": [
        {
          "internalType": "uint256",
          "name": "",
          "type": "uint256"
        }
      ],
      "name": "playerAddresses",
      "outputs": [
        {
          "internalType": "address",
          "name": "",
          "type": "address"
        }
      ],
      "stateMutability": "view",
      "type": "function"
    },
    {
      "inputs": [],
      "name": "runLife",
      "outputs": [],
      "stateMutability": "nonpayable",
      "type": "function"
    },
    {
      "inputs": [
        {
          "internalType": "address",
          "name": "",
          "type": "address"
        }
      ],
      "name": "skeletonAddressToState",
      "outputs": [
        {
          "internalType": "uint256",
          "name": "position",
          "type": "uint256"
        },
        {
          "internalType": "uint256",
          "name": "step",
          "type": "uint256"
        }
      ],
      "stateMutability": "view",
      "type": "function"
    },
    {
      "inputs": [
        {
          "internalType": "uint256",
          "name": "",
          "type": "uint256"
        }
      ],
      "name": "skeletonAddresses",
      "outputs": [
        {
          "internalType": "address",
          "name": "",
          "type": "address"
        }
      ],
      "stateMutability": "view",
      "type": "function"
    },
    {
      "inputs": [],
      "name": "spawnSkeletons",
      "outputs": [],
      "stateMutability": "nonpayable",
      "type": "function"
    },
    {
      "inputs": [],
      "name": "teleportIn",
      "outputs": [],
      "stateMutability": "nonpayable",
      "type": "function"
    },
    {
      "inputs": [],
      "name": "teleportOut",
      "outputs": [],
      "stateMutability": "nonpayable",
      "type": "function"
    },
    {
      "inputs": [],
      "name": "version",
      "outputs": [
        {
          "internalType": "uint256",
          "name": "",
          "type": "uint256"
        }
      ],
      "stateMutability": "view",
      "type": "function"
    }
  ],
  "bytecode": {
    "object": "0x60a060405260016080523480156200001657600080fd5b506040516200254838038062002548833981016040819052620000399162000667565b825160086200004986806200076b565b6200005591906200079b565b146200008c5760405162461bcd60e51b81526020600482015260016024820152602760f91b60448201526064015b60405180910390fd5b60018490558251620000a690600290602086019062000576565b5060058290556006819055620000bb620000cf565b620000c5620000fe565b5050505062000858565b60006007555b6005546004541015620000fc57620000f6620000f06200020b565b62000292565b620000d5565b565b3360008181526009602052604090206003015460ff1615620001485760405162461bcd60e51b81526020600482015260026024820152614f4960f01b604482015260640162000083565b33600090815260096020526040812090620001626200020b565b60038301805460ff19166001908117909155818455600a805491820181556000527fc65a7bb8d6351c1cf70c95a316cc6a92839c986682d98bc35f958f4883f9d2a80180546001600160a01b031916331790559050620001c281620003a6565b60408051338152602081018390527f0c1de8e9993c058a253c96414b4215583b25fa35e1b6e0facf4d5a0dc2a6f3f8910160405180910390a150620002089050620003b3565b50565b60008062000218620003cd565b905060005b6001546200022c90806200076b565b8110156200028d576001546000906200024690806200076b565b620002528484620007b2565b6200025e9190620007c8565b90506200026b8162000413565b62000277579392505050565b50806200028481620007df565b9150506200021d565b600080fd5b6200029d8162000413565b15620002a857600080fd5b60088054600091908290620002c6906001600160a01b0316620007fb565b82546001600160a01b038083166101009490940a848102910219909116179092556040805180820182528581526000602080830182815285835260039091529281209151825591516001918201556004805491820181559091527f8a35acfbc15ff81a39ae7d344fd709f28e8600b4aa8c65c6b64bfe7fe36bd19b0180546001600160a01b031916909117905590506200036082620003a6565b604080516001600160a01b0383168152602081018490527f0e83e6d9e51041870d443b1514f32f096c9f81ef34268e7e84fd463c69003564910160405180910390a15050565b6200020860028262000428565b620003bd620004dd565b15620000fc57620000fc620000cf565b600080548180620003de83620007df565b91905055604051602001620003f591815260200190565b6040516020818303038152906040528051906020012060001c905090565b600062000422600283620004f8565b92915050565b6000620004376008836200079b565b9050600062000448600884620007c8565b620004559060076200082c565b90506000816001901b90508085848154811062000476576200047662000842565b90600052602060002090602091828204019190069054906101000a900460ff1617858481548110620004ac57620004ac62000842565b90600052602060002090602091828204019190066101000a81548160ff021916908360ff1602179055505050505050565b600042600654600754620004f29190620007b2565b10905090565b600080620005086008846200079b565b9050600062000519600885620007c8565b620005269060076200082c565b9050808583815481106200053e576200053e62000842565b90600052602060002090602091828204019190069054906101000a900460ff1660ff16901c60011660ff166001149250505092915050565b82805482825590600052602060002090601f01602090048101928215620006115791602002820160005b83821115620005e057835183826101000a81548160ff021916908360ff1602179055509260200192600101602081600001049283019260010302620005a0565b80156200060f5782816101000a81549060ff0219169055600101602081600001049283019260010302620005e0565b505b506200061f92915062000623565b5090565b5b808211156200061f576000815560010162000624565b634e487b7160e01b600052604160045260246000fd5b805160ff811681146200066257600080fd5b919050565b600080600080608085870312156200067e57600080fd5b8451602080870151919550906001600160401b0380821115620006a057600080fd5b818801915088601f830112620006b557600080fd5b815181811115620006ca57620006ca6200063a565b8060051b604051601f19603f83011681018181108582111715620006f257620006f26200063a565b60405291825284820192508381018501918b8311156200071157600080fd5b938501935b828510156200073a576200072a8562000650565b8452938501939285019262000716565b60408b01516060909b0151999c909b50975050505050505050565b634e487b7160e01b600052601160045260246000fd5b808202811582820484141762000422576200042262000755565b634e487b7160e01b600052601260045260246000fd5b600082620007ad57620007ad62000785565b500490565b8082018082111562000422576200042262000755565b600082620007da57620007da62000785565b500690565b600060018201620007f457620007f462000755565b5060010190565b60006001600160a01b038281166002600160a01b0319810162000822576200082262000755565b6001019392505050565b8181038181111562000422576200042262000755565b634e487b7160e01b600052603260045260246000fd5b608051611cd462000874600039600061022c0152611cd46000f3fe608060405234801561001057600080fd5b506004361061012c5760003560e01c806379c9f9a7116100ad578063a6bfd86c11610071578063a6bfd86c146102d2578063affed0e0146102da578063c9e525df146102f2578063e9659ed1146102fb578063f6a5414d1461030457600080fd5b806379c9f9a714610281578063833d2bea14610294578063972161f7146102a95780639dc9cbeb146102c2578063a2b142af146102ca57600080fd5b806330503f1f116100f457806330503f1f1461021f57806354fd4d5014610227578063682676aa1461025c5780637140ae6614610264578063724d49241461026c57600080fd5b80630867408f146101315780630cbef7e7146101465780630cc06d9d1461015957806315c6aee21461019a5780632d82e2a6146101c5575b600080fd5b61014461013f3660046118d2565b610329565b005b61014461015436600461190b565b6104a2565b610180610167366004611937565b6003602052600090815260409020805460019091015482565b604080519283526020830191909152015b60405180910390f35b6101ad6101a8366004611952565b61054c565b6040516001600160a01b039091168152602001610191565b6101fd6101d3366004611937565b60096020526000908152604090208054600182015460028301546003909301549192909160ff1684565b6040805194855260208501939093529183015215156060820152608001610191565b610144610576565b61024e7f000000000000000000000000000000000000000000000000000000000000000081565b604051908152602001610191565b61014461058d565b61024e61064a565b6102746106bb565b60405161019191906119af565b6101ad61028f366004611952565b61071d565b61029c61072d565b60405161019191906119f5565b6102b16107a2565b604051610191959493929190611a5a565b610144610b7b565b610274610c7c565b610144610cdc565b3360009081526009602052604090206001015461024e565b61024e60015481565b61024e60055481565b610317610312366004611952565b610d03565b60405160ff9091168152602001610191565b3360008181526009602052604090206003015460ff166103645760405162461bcd60e51b815260040161035b90611af6565b60405180910390fd5b336000908152600960205260409020600381015460ff1661038457600080fd5b806001015484146103bf5760405162461bcd60e51b81526020600482015260056024820152644e6f6e636560d81b604482015260640161035b565b80546000608085901c815b81811015610437576003871660006103e28683610d37565b90508581036103f2575050610437565b86546002998a1c9991965094901b811793859061040e90610d7c565b85875561041a86610d87565b610422610d92565b5050808061042f90611b28565b9150506103ca565b5060018401805490600061044a83611b28565b90915550508354604080513381526020810185905280820192909252517f717c71b7226e13a6b97d602aded90ba7f6af22014b5c12d972f442a87cd2d50b9181900360600190a15050505061049d610576565b505050565b3360008181526009602052604090206003015460ff166104d45760405162461bcd60e51b815260040161035b90611af6565b604080518481526001600160a01b03841660208201527f03d5bb73d05a20bf20c10ca08f297b7c1c27119bc52d321b0895c4997088ae36910160405180910390a16008546001600160a01b03908116908316116105395761053482610e15565b610544565b61054482601e610eb0565b61049d610576565b600a818154811061055c57600080fd5b6000918252602090912001546001600160a01b0316905081565b61057e611039565b1561058b5761058b610cdc565b565b3360008181526009602052604090206003015460ff166105bf5760405162461bcd60e51b815260040161035b90611af6565b336000908152600960205260409020600381015460ff166105df57600080fd5b60038101805460ff191690556105f6600a33611052565b805461060190610d7c565b80546040805133815260208101929092527f9196f2b6f4a943b126dfa008d4d988cc157821a99ada5566b73e9f1c6d9d513d91015b60405180910390a150610647610576565b50565b600080610655611188565b905060005b6001546106679080611b41565b81101561012c5760015460009061067e9080611b41565b6106888484611b58565b6106929190611b81565b905061069d816111cb565b6106a8579392505050565b50806106b381611b28565b91505061065a565b6060600a80548060200260200160405190810160405280929190818152602001828054801561071357602002820191906000526020600020905b81546001600160a01b031681526001909101906020018083116106f5575b5050505050905090565b6004818154811061055c57600080fd5b6060600280548060200260200160405190810160405280929190818152602001828054801561071357602002820191906000526020600020906000905b825461010083900a900460ff1681526020600192830181810494850194909303909202910180841161076a5790505050505050905090565b6060806060806060600280548060200260200160405190810160405280929190818152602001828054801561081457602002820191906000526020600020906000905b825461010083900a900460ff168152602060019283018181049485019490930390920291018084116107e55790505b50505050509450600480548060200260200160405190810160405280929190818152602001828054801561087157602002820191906000526020600020905b81546001600160a01b03168152600190910190602001808311610853575b50505050509350600a8054806020026020016040519081016040528092919081815260200182805480156108ce57602002820191906000526020600020905b81546001600160a01b031681526001909101906020018083116108b0575b50505050509250835167ffffffffffffffff8111156108ef576108ef611b95565b60405190808252806020026020018201604052801561093457816020015b604080518082019091526000808252602082015281526020019060019003908161090d5790505b50915060005b84518110156109d0576003600086838151811061095957610959611bab565b60200260200101516001600160a01b03166001600160a01b03168152602001908152602001600020604051806040016040529081600082015481526020016001820154815250508382815181106109b2576109b2611bab565b602002602001018190525080806109c890611b28565b91505061093a565b50825167ffffffffffffffff8111156109eb576109eb611b95565b604051908082528060200260200182016040528015610a4957816020015b610a3660405180608001604052806000815260200160008152602001600081526020016000151581525090565b815260200190600190039081610a095790505b50905060005b8351811015610af85760096000858381518110610a6e57610a6e611bab565b6020908102919091018101516001600160a01b031682528181019290925260409081016000208151608081018352815481526001820154938101939093526002810154918301919091526003015460ff16151560608201528251839083908110610ada57610ada611bab565b60200260200101819052508080610af090611b28565b915050610a4f565b5060005b8251811015610b3e57610b2c86848381518110610b1b57610b1b611bab565b6020026020010151600001516111d8565b80610b3681611b28565b915050610afc565b5060005b8151811015610b7357610b6186838381518110610b1b57610b1b611bab565b80610b6b81611b28565b915050610b42565b509091929394565b3360008181526009602052604090206003015460ff1615610bc35760405162461bcd60e51b81526020600482015260026024820152614f4960f01b604482015260640161035b565b33600090815260096020526040812090610bdb61064a565b60038301805460ff19166001908117909155818455600a805491820181556000527fc65a7bb8d6351c1cf70c95a316cc6a92839c986682d98bc35f958f4883f9d2a80180546001600160a01b031916331790559050610c3981610d87565b60408051338152602081018390527f0c1de8e9993c058a253c96414b4215583b25fa35e1b6e0facf4d5a0dc2a6f3f8910160405180910390a15050610647610576565b60606004805480602002602001604051908101604052809291908181526020018280548015610713576020028201919060005260206000209081546001600160a01b031681526001909101906020018083116106f5575050505050905090565b60006007555b600554600454101561058b57610cfe610cf961064a565b611254565b610ce2565b60028181548110610d1357600080fd5b9060005260206000209060209182820401919006915054906101000a900460ff1681565b6000610d4282611361565b610d4c9084611bc1565b9050610d59838383611410565b15610d65575081610d76565b610d6e816111cb565b15610d765750815b92915050565b6106476002826114de565b610647600282611588565b60005b60045481101561064757610dcf60048281548110610db557610db5611bab565b6000918252602090912001546001600160a01b0316611600565b610e0357610e0360048281548110610de957610de9611bab565b6000918252602090912001546001600160a01b03166116f3565b80610e0d81611b28565b915050610d95565b610e20600482611052565b6001600160a01b038116600090815260036020526040902054610e4281610d7c565b6001600160a01b03821660009081526003602052604081208181556001018190556007549003610e7157426007555b604080516001600160a01b0384168152602081018390527fb4f465201ba482972f2abcc3c617fb2bb2c8b810a93c29464a99e796e0129de39101610636565b3360008181526009602052604090206003015460ff16610ee25760405162461bcd60e51b815260040161035b90611af6565b6001600160a01b038316600090815260096020526040902060030154839060ff16610f1f5760405162461bcd60e51b815260040161035b90611af6565b6001600160a01b0384166000908152600960205260409020600381015460ff16610f4857600080fd5b604080516001600160a01b0387168152602081018690527fa084a296f38460c344b22c86fd8c343ca7ac4571cbebc2070fd2f5aa1569db11910160405180910390a16002810154610f999085611b58565b93506064841015610fb05760028101849055611032565b8054610fbb90610d7c565b610fc6600a86611052565b6001600160a01b03851660008181526009602090815260408083208381556001810184905560028101939093556003909201805460ff1916905590519182527fead27810900dffc10f8eaf4d55f4185f6a0d506f3e6ba0197bfdabd5b455106091015b60405180910390a15b5050505050565b60004260065460075461104c9190611b58565b10905090565b60005b825481101561115b57816001600160a01b031683828154811061107a5761107a611bab565b6000918252602090912001546001600160a01b03160361114957825483906110a490600190611be9565b815481106110b4576110b4611bab565b9060005260206000200160009054906101000a90046001600160a01b03168382815481106110e4576110e4611bab565b9060005260206000200160006101000a8154816001600160a01b0302191690836001600160a01b031602179055508280548061112257611122611bfc565b600082815260209020810160001990810180546001600160a01b0319169055019055505050565b8061115381611b28565b915050611055565b5060405162461bcd60e51b81526020600482015260016024820152602960f91b604482015260640161035b565b60008054818061119783611b28565b919050556040516020016111ad91815260200190565b6040516020818303038152906040528051906020012060001c905090565b6000610d766002836117c3565b60006111e5600883611c12565b905060006111f4600884611b81565b6111ff906007611be9565b90506000816001901b9050801985848151811061121e5761121e611bab565b60200260200101511685848151811061123957611239611bab565b602002602001019060ff16908160ff16815250505050505050565b61125d816111cb565b1561126757600080fd5b60088054600091908290611283906001600160a01b0316611c26565b82546001600160a01b038083166101009490940a848102910219909116179092556040805180820182528581526000602080830182815285835260039091529281209151825591516001918201556004805491820181559091527f8a35acfbc15ff81a39ae7d344fd709f28e8600b4aa8c65c6b64bfe7fe36bd19b0180546001600160a01b0319169091179055905061131b82610d87565b604080516001600160a01b0383168152602081018490527f0e83e6d9e51041870d443b1514f32f096c9f81ef34268e7e84fd463c69003564910160405180910390a15050565b6000600382036113745750600019919050565b6001820361138457506001919050565b6002820361139857600154610d7690611c54565b816113a557505060015490565b600682036113cb576113b76003611361565b6113c16002611361565b610d769190611bc1565b600782036113dd576113b76001611361565b600482036113f9576113ef6003611361565b6113c16000611361565b6005820361012c576113ef6001611361565b919050565b6000600483166001036114755760015461142a9083611c70565b6001546114379086611c70565b14611444575060016114d7565b6000821215611455575060016114d7565b6001546114629080611b41565b8210611470575060016114d7565b6114d3565b600183166001036114a75760015461148d9083611c70565b60015461149a9086611c70565b14611470575060016114d7565b60008212156114b8575060016114d7565b6001546114c59080611b41565b82106114d3575060016114d7565b5060005b9392505050565b60006114eb600883611c12565b905060006114fa600884611b81565b611505906007611be9565b90506000816001901b9050801985848154811061152457611524611bab565b90600052602060002090602091828204019190069054906101000a900460ff161685848154811061155757611557611bab565b90600052602060002090602091828204019190066101000a81548160ff021916908360ff1602179055505050505050565b6000611595600883611c12565b905060006115a4600884611b81565b6115af906007611be9565b90506000816001901b9050808584815481106115cd576115cd611bab565b90600052602060002090602091828204019190069054906101000a900460ff161785848154811061155757611557611bab565b6001600160a01b03811660009081526003602052604081208054825b60088110156116e857600061163082611361565b61163a9084611bc1565b9050611647838383611410565b1561165257506116d6565b61165b816111cb565b61166557506116d6565b600061167082611838565b90506001600160a01b0381166116875750506116d6565b60408051600181526001600160a01b03831660208201527f03d5bb73d05a20bf20c10ca08f297b7c1c27119bc52d321b0895c4997088ae36910160405180910390a15060019695505050505050565b806116e081611b28565b91505061161c565b506000949350505050565b6001600160a01b03811660009081526003602052604081208054600182015491929091815b600481101561175e57600461172d8284611b58565b6117379190611b81565b91506117438483610d37565b925083830361175e578061175681611b28565b915050611718565b5082821461103257835461177190610d7c565b81845561177d82610d87565b60018401819055604080516001600160a01b0387168152602081018490527f71e1c0ca6060b05dd587465d7912f8c5274c31eef953d39bae748b1ea1df11a59101611029565b6000806117d1600884611c12565b905060006117e0600885611b81565b6117eb906007611be9565b90508085838154811061180057611800611bab565b90600052602060002090602091828204019190069054906101000a900460ff1660ff16901c60011660ff166001149250505092915050565b6000805b600a548110156118c9578260096000600a848154811061185e5761185e611bab565b60009182526020808320909101546001600160a01b03168352820192909252604001902054036118b757600a818154811061189b5761189b611bab565b6000918252602090912001546001600160a01b03169392505050565b806118c181611b28565b91505061183c565b50600092915050565b600080604083850312156118e557600080fd5b50508035926020909101359150565b80356001600160a01b038116811461140b57600080fd5b6000806040838503121561191e57600080fd5b8235915061192e602084016118f4565b90509250929050565b60006020828403121561194957600080fd5b6114d7826118f4565b60006020828403121561196457600080fd5b5035919050565b600081518084526020808501945080840160005b838110156119a45781516001600160a01b03168752958201959082019060010161197f565b509495945050505050565b6020815260006114d7602083018461196b565b600081518084526020808501945080840160005b838110156119a457815160ff16875295820195908201906001016119d6565b6020815260006114d760208301846119c2565b600081518084526020808501945080840160005b838110156119a45781518051885283810151848901526040808201519089015260609081015115159088015260809096019590820190600101611a1c565b60a081526000611a6d60a08301886119c2565b602083820381850152611a80828961196b565b9150604084830381860152611a95838961196b565b8581036060870152875180825283890194509083019060005b81811015611ad357855180518452850151858401529484019491830191600101611aae565b50508581036080870152611ae78188611a08565b9b9a5050505050505050505050565b6020808252600290820152614f4160f01b604082015260600190565b634e487b7160e01b600052601160045260246000fd5b600060018201611b3a57611b3a611b12565b5060010190565b8082028115828204841417610d7657610d76611b12565b80820180821115610d7657610d76611b12565b634e487b7160e01b600052601260045260246000fd5b600082611b9057611b90611b6b565b500690565b634e487b7160e01b600052604160045260246000fd5b634e487b7160e01b600052603260045260246000fd5b8082018281126000831280158216821582161715611be157611be1611b12565b505092915050565b81810381811115610d7657610d76611b12565b634e487b7160e01b600052603160045260246000fd5b600082611c2157611c21611b6b565b500490565b60006001600160a01b038281166002600160a01b03198101611c4a57611c4a611b12565b6001019392505050565b6000600160ff1b8201611c6957611c69611b12565b5060000390565b600082611c7f57611c7f611b6b565b600160ff1b821460001984141615611c9957611c99611b12565b50059056fea2646970667358221220e41914d5813e5fcd37650a9e70803e9ad20e65f032e01d1834d0861fe1801f1d64736f6c63430008150033",
    "linkReferences": {}
  },
  "methodIdentifiers": {
    "N()": "c9e525df",
    "castSpell(uint256,address)": "0cbef7e7",
    "getFullState()": "972161f7",
    "getObstacles()": "833d2bea",
    "getPlayerAddresses()": "724d4924",
    "getSkeletonAddresses()": "a2b142af",
    "maxSkeletons()": "e9659ed1",
    "move(uint256,uint256)": "0867408f",
    "nextRandomPositionWithoutObstacle()": "7140ae66",
    "nonce()": "affed0e0",
    "obstacles(uint256)": "f6a5414d",
    "playerAddressToState(address)": "2d82e2a6",
    "playerAddresses(uint256)": "15c6aee2",
    "runLife()": "30503f1f",
    "skeletonAddressToState(address)": "0cc06d9d",
    "skeletonAddresses(uint256)": "79c9f9a7",
    "spawnSkeletons()": "a6bfd86c",
    "teleportIn()": "9dc9cbeb",
    "teleportOut()": "682676aa",
    "version()": "54fd4d50"
  },
  "id": 1
}