{
  "abi": [
    {
      "inputs": [
        {
          "internalType": "uint256",
          "name": "_N",
          "type": "uint256"
        },
        {
          "internalType": "uint8[]",
          "name": "_obstacles",
          "type": "uint8[]"
        },
        {
          "internalType": "uint256",
          "name": "_maxSkeletons",
          "type": "uint256"
        },
        {
          "internalType": "uint256",
          "name": "_skeletonRespawnTime",
          "type": "uint256"
        }
      ],
      "stateMutability": "nonpayable",
      "type": "constructor"
    },
    {
      "anonymous": false,
      "inputs": [
        {
          "indexed": false,
          "internalType": "address",
          "name": "player",
          "type": "address"
        },
        {
          "indexed": false,
          "internalType": "uint256",
          "name": "p",
          "type": "uint256"
        }
      ],
      "name": "PlayerAdded",
      "type": "event"
    },
    {
      "anonymous": false,
      "inputs": [
        {
          "indexed": false,
          "internalType": "address",
          "name": "player",
          "type": "address"
        },
        {
          "indexed": false,
          "internalType": "uint256",
          "name": "damage",
          "type": "uint256"
        }
      ],
      "name": "PlayerDamaged",
      "type": "event"
    },
    {
      "anonymous": false,
      "inputs": [
        {
          "indexed": false,
          "internalType": "address",
          "name": "player",
          "type": "address"
        }
      ],
      "name": "PlayerKilled",
      "type": "event"
    },
    {
      "anonymous": false,
      "inputs": [
        {
          "indexed": false,
          "internalType": "address",
          "name": "player",
          "type": "address"
        },
        {
          "indexed": false,
          "internalType": "uint256",
          "name": "stepsDone",
          "type": "uint256"
        },
        {
          "indexed": false,
          "internalType": "uint256",
          "name": "newPosition",
          "type": "uint256"
        }
      ],
      "name": "PlayerMoved",
      "type": "event"
    },
    {
      "anonymous": false,
      "inputs": [
        {
          "indexed": false,
          "internalType": "address",
          "name": "player",
          "type": "address"
        },
        {
          "indexed": false,
          "internalType": "uint256",
          "name": "p",
          "type": "uint256"
        }
      ],
      "name": "PlayerRemoved",
      "type": "event"
    },
    {
      "anonymous": false,
      "inputs": [
        {
          "indexed": false,
          "internalType": "address",
          "name": "skeleton",
          "type": "address"
        },
        {
          "indexed": false,
          "internalType": "uint256",
          "name": "p",
          "type": "uint256"
        }
      ],
      "name": "SkeletonAdded",
      "type": "event"
    },
    {
      "anonymous": false,
      "inputs": [
        {
          "indexed": false,
          "internalType": "address",
          "name": "skeleton",
          "type": "address"
        },
        {
          "indexed": false,
          "internalType": "uint256",
          "name": "p",
          "type": "uint256"
        }
      ],
      "name": "SkeletonMoved",
      "type": "event"
    },
    {
      "anonymous": false,
      "inputs": [
        {
          "indexed": false,
          "internalType": "address",
          "name": "skeleton",
          "type": "address"
        },
        {
          "indexed": false,
          "internalType": "uint256",
          "name": "p",
          "type": "uint256"
        }
      ],
      "name": "SkeletonRemoved",
      "type": "event"
    },
    {
      "anonymous": false,
      "inputs": [
        {
          "indexed": false,
          "internalType": "uint256",
          "name": "asset",
          "type": "uint256"
        },
        {
          "indexed": false,
          "internalType": "address",
          "name": "target",
          "type": "address"
        }
      ],
      "name": "SpellCasted",
      "type": "event"
    },
    {
      "anonymous": false,
      "inputs": [],
      "name": "log",
      "type": "event"
    },
    {
      "anonymous": false,
      "inputs": [
        {
          "indexed": false,
          "internalType": "int256",
          "name": "x",
          "type": "int256"
        }
      ],
      "name": "logInt",
      "type": "event"
    },
    {
      "anonymous": false,
      "inputs": [
        {
          "indexed": false,
          "internalType": "uint256",
          "name": "x",
          "type": "uint256"
        }
      ],
      "name": "logUint",
      "type": "event"
    },
    {
      "inputs": [],
      "name": "N",
      "outputs": [
        {
          "internalType": "uint256",
          "name": "",
          "type": "uint256"
        }
      ],
      "stateMutability": "view",
      "type": "function"
    },
    {
      "inputs": [
        {
          "internalType": "uint256",
          "name": "asset",
          "type": "uint256"
        },
        {
          "internalType": "address",
          "name": "target",
          "type": "address"
        }
      ],
      "name": "castSpell",
      "outputs": [],
      "stateMutability": "nonpayable",
      "type": "function"
    },
    {
      "inputs": [],
      "name": "getFullState",
      "outputs": [
        {
          "internalType": "uint8[]",
          "name": "obstacles_",
          "type": "uint8[]"
        },
        {
          "internalType": "address[]",
          "name": "skeletonAddresses_",
          "type": "address[]"
        },
        {
          "internalType": "address[]",
          "name": "playerAddresses_",
          "type": "address[]"
        },
        {
          "components": [
            {
              "internalType": "uint256",
              "name": "position",
              "type": "uint256"
            },
            {
              "internalType": "uint256",
              "name": "step",
              "type": "uint256"
            }
          ],
          "internalType": "struct Skeleton[]",
          "name": "skeletons_",
          "type": "tuple[]"
        },
        {
          "components": [
            {
              "internalType": "uint256",
              "name": "position",
              "type": "uint256"
            },
            {
              "internalType": "uint256",
              "name": "nonce",
              "type": "uint256"
            },
            {
              "internalType": "uint256",
              "name": "damage",
              "type": "uint256"
            },
            {
              "internalType": "bool",
              "name": "isActive",
              "type": "bool"
            }
          ],
          "internalType": "struct Player[]",
          "name": "players_",
          "type": "tuple[]"
        }
      ],
      "stateMutability": "view",
      "type": "function"
    },
    {
      "inputs": [],
      "name": "getObstacles",
      "outputs": [
        {
          "internalType": "uint8[]",
          "name": "",
          "type": "uint8[]"
        }
      ],
      "stateMutability": "view",
      "type": "function"
    },
    {
      "inputs": [],
      "name": "getPlayerAddresses",
      "outputs": [
        {
          "internalType": "address[]",
          "name": "",
          "type": "address[]"
        }
      ],
      "stateMutability": "view",
      "type": "function"
    },
    {
      "inputs": [],
      "name": "getSkeletonAddresses",
      "outputs": [
        {
          "internalType": "address[]",
          "name": "",
          "type": "address[]"
        }
      ],
      "stateMutability": "view",
      "type": "function"
    },
    {
      "inputs": [],
      "name": "maxSkeletons",
      "outputs": [
        {
          "internalType": "uint256",
          "name": "",
          "type": "uint256"
        }
      ],
      "stateMutability": "view",
      "type": "function"
    },
    {
      "inputs": [
        {
          "internalType": "uint256",
          "name": "nonce",
          "type": "uint256"
        },
        {
          "internalType": "uint256",
          "name": "stepsToDo",
          "type": "uint256"
        }
      ],
      "name": "move",
      "outputs": [],
      "stateMutability": "nonpayable",
      "type": "function"
    },
    {
      "inputs": [],
      "name": "nextRandomPositionWithoutObstacle",
      "outputs": [
        {
          "internalType": "uint256",
          "name": "",
          "type": "uint256"
        }
      ],
      "stateMutability": "nonpayable",
      "type": "function"
    },
    {
      "inputs": [],
      "name": "nonce",
      "outputs": [
        {
          "internalType": "uint256",
          "name": "",
          "type": "uint256"
        }
      ],
      "stateMutability": "view",
      "type": "function"
    },
    {
      "inputs": [
        {
          "internalType": "uint256",
          "name": "",
          "type": "uint256"
        }
      ],
      "name": "obstacles",
      "outputs": [
        {
          "internalType": "uint8",
          "name": "",
          "type": "uint8"
        }
      ],
      "stateMutability": "view",
      "type": "function"
    },
    {
      "inputs": [
        {
          "internalType": "address",
          "name": "",
          "type": "address"
        }
      ],
      "name": "playerAddressToState",
      "outputs": [
        {
          "internalType": "uint256",
          "name": "position",
          "type": "uint256"
        },
        {
          "internalType": "uint256",
          "name": "nonce",
          "type": "uint256"
        },
        {
          "internalType": "uint256",
          "name": "damage",
          "type": "uint256"
        },
        {
          "internalType": "bool",
          "name": "isActive",
          "type": "bool"
        }
      ],
      "stateMutability": "view",
      "type": "function"
    },
    {
      "inputs": [
        {
          "internalType": "uint256",
          "name": "",
          "type": "uint256"
        }
      ],
      "name": "playerAddresses",
      "outputs": [
        {
          "internalType": "address",
          "name": "",
          "type": "address"
        }
      ],
      "stateMutability": "view",
      "type": "function"
    },
    {
      "inputs": [],
      "name": "runLife",
      "outputs": [],
      "stateMutability": "nonpayable",
      "type": "function"
    },
    {
      "inputs": [
        {
          "internalType": "address",
          "name": "",
          "type": "address"
        }
      ],
      "name": "skeletonAddressToState",
      "outputs": [
        {
          "internalType": "uint256",
          "name": "position",
          "type": "uint256"
        },
        {
          "internalType": "uint256",
          "name": "step",
          "type": "uint256"
        }
      ],
      "stateMutability": "view",
      "type": "function"
    },
    {
      "inputs": [
        {
          "internalType": "uint256",
          "name": "",
          "type": "uint256"
        }
      ],
      "name": "skeletonAddresses",
      "outputs": [
        {
          "internalType": "address",
          "name": "",
          "type": "address"
        }
      ],
      "stateMutability": "view",
      "type": "function"
    },
    {
      "inputs": [],
      "name": "spawnSkeletons",
      "outputs": [],
      "stateMutability": "nonpayable",
      "type": "function"
    },
    {
      "inputs": [],
      "name": "teleportIn",
      "outputs": [],
      "stateMutability": "nonpayable",
      "type": "function"
    },
    {
      "inputs": [],
      "name": "teleportOut",
      "outputs": [],
      "stateMutability": "nonpayable",
      "type": "function"
    },
    {
      "inputs": [],
      "name": "version",
      "outputs": [
        {
          "internalType": "uint256",
          "name": "",
          "type": "uint256"
        }
      ],
      "stateMutability": "view",
      "type": "function"
    }
  ],
  "bytecode": {
    "object": "0x60a060405260016080523480156200001657600080fd5b506040516200249938038062002499833981016040819052620000399162000677565b825160086200004986806200077b565b620000559190620007ab565b146200008c5760405162461bcd60e51b81526020600482015260016024820152602760f91b60448201526064015b60405180910390fd5b60018490558251620000a690600290602086019062000586565b5060058290556006819055620000bb620000cf565b620000c5620000fe565b5050505062000868565b60006007555b6005546004541015620000fc57620000f6620000f06200020b565b62000292565b620000d5565b565b3360008181526009602052604090206003015460ff1615620001485760405162461bcd60e51b81526020600482015260026024820152614f4960f01b604482015260640162000083565b33600090815260096020526040812090620001626200020b565b60038301805460ff19166001908117909155818455600a805491820181556000527fc65a7bb8d6351c1cf70c95a316cc6a92839c986682d98bc35f958f4883f9d2a80180546001600160a01b031916331790559050620001c281620003a6565b60408051338152602081018390527f0c1de8e9993c058a253c96414b4215583b25fa35e1b6e0facf4d5a0dc2a6f3f8910160405180910390a150620002089050620003b3565b50565b60008062000218620003cd565b905060005b6001546200022c90806200077b565b8110156200028d576001546000906200024690806200077b565b620002528484620007c2565b6200025e9190620007d8565b90506200026b8162000413565b62000277579392505050565b50806200028481620007ef565b9150506200021d565b600080fd5b6200029d8162000413565b15620002a857600080fd5b60088054600091908290620002c6906001600160a01b03166200080b565b82546001600160a01b038083166101009490940a848102910219909116179092556040805180820182528581526000602080830182815285835260039091529281209151825591516001918201556004805491820181559091527f8a35acfbc15ff81a39ae7d344fd709f28e8600b4aa8c65c6b64bfe7fe36bd19b0180546001600160a01b031916909117905590506200036082620003a6565b604080516001600160a01b0383168152602081018490527f0e83e6d9e51041870d443b1514f32f096c9f81ef34268e7e84fd463c69003564910160405180910390a15050565b6200020860028262000428565b620003bd620004dd565b15620000fc57620000fc620000cf565b600080548180620003de83620007ef565b91905055604051602001620003f591815260200190565b6040516020818303038152906040528051906020012060001c905090565b60006200042260028362000508565b92915050565b600062000437600883620007ab565b9050600062000448600884620007d8565b620004559060076200083c565b90506000816001901b90508085848154811062000476576200047662000852565b90600052602060002090602091828204019190069054906101000a900460ff1617858481548110620004ac57620004ac62000852565b90600052602060002090602091828204019190066101000a81548160ff021916908360ff1602179055505050505050565b600060075460001415801562000503575042600654600754620005019190620007c2565b105b905090565b60008062000518600884620007ab565b9050600062000529600885620007d8565b620005369060076200083c565b9050808583815481106200054e576200054e62000852565b90600052602060002090602091828204019190069054906101000a900460ff1660ff16901c60011660ff166001149250505092915050565b82805482825590600052602060002090601f01602090048101928215620006215791602002820160005b83821115620005f057835183826101000a81548160ff021916908360ff1602179055509260200192600101602081600001049283019260010302620005b0565b80156200061f5782816101000a81549060ff0219169055600101602081600001049283019260010302620005f0565b505b506200062f92915062000633565b5090565b5b808211156200062f576000815560010162000634565b634e487b7160e01b600052604160045260246000fd5b805160ff811681146200067257600080fd5b919050565b600080600080608085870312156200068e57600080fd5b8451602080870151919550906001600160401b0380821115620006b057600080fd5b818801915088601f830112620006c557600080fd5b815181811115620006da57620006da6200064a565b8060051b604051601f19603f830116810181811085821117156200070257620007026200064a565b60405291825284820192508381018501918b8311156200072157600080fd5b938501935b828510156200074a576200073a8562000660565b8452938501939285019262000726565b60408b01516060909b0151999c909b50975050505050505050565b634e487b7160e01b600052601160045260246000fd5b808202811582820484141762000422576200042262000765565b634e487b7160e01b600052601260045260246000fd5b600082620007bd57620007bd62000795565b500490565b8082018082111562000422576200042262000765565b600082620007ea57620007ea62000795565b500690565b60006001820162000804576200080462000765565b5060010190565b60006001600160a01b038281166002600160a01b0319810162000832576200083262000765565b6001019392505050565b8181038181111562000422576200042262000765565b634e487b7160e01b600052603260045260246000fd5b608051611c1562000884600039600061022c0152611c156000f3fe608060405234801561001057600080fd5b506004361061012c5760003560e01c806379c9f9a7116100ad578063a6bfd86c11610071578063a6bfd86c146102d2578063affed0e0146102da578063c9e525df146102f2578063e9659ed1146102fb578063f6a5414d1461030457600080fd5b806379c9f9a714610281578063833d2bea14610294578063972161f7146102a95780639dc9cbeb146102c2578063a2b142af146102ca57600080fd5b806330503f1f116100f457806330503f1f1461021f57806354fd4d5014610227578063682676aa1461025c5780637140ae6614610264578063724d49241461026c57600080fd5b80630867408f146101315780630cbef7e7146101465780630cc06d9d1461015957806315c6aee21461019a5780632d82e2a6146101c5575b600080fd5b61014461013f3660046117fc565b610329565b005b610144610154366004611835565b610496565b610180610167366004611861565b6003602052600090815260409020805460019091015482565b604080519283526020830191909152015b60405180910390f35b6101ad6101a836600461187c565b610540565b6040516001600160a01b039091168152602001610191565b6101fd6101d3366004611861565b60096020526000908152604090208054600182015460028301546003909301549192909160ff1684565b6040805194855260208501939093529183015215156060820152608001610191565b61014461056a565b61024e7f000000000000000000000000000000000000000000000000000000000000000081565b604051908152602001610191565b610144610581565b61024e61063e565b6102746106af565b60405161019191906118d9565b6101ad61028f36600461187c565b610711565b61029c610721565b604051610191919061191f565b6102b1610796565b604051610191959493929190611984565b610144610b6f565b610274610c70565b610144610cd0565b3360009081526009602052604090206001015461024e565b61024e60015481565b61024e60055481565b61031761031236600461187c565b610cf7565b60405160ff9091168152602001610191565b3360008181526009602052604090206003015460ff166103645760405162461bcd60e51b815260040161035b90611a20565b60405180910390fd5b336000908152600960205260409020600381015460ff1661038457600080fd5b806001015484146103bf5760405162461bcd60e51b81526020600482015260056024820152644e6f6e636560d81b604482015260640161035b565b80546103ca81610d2b565b608084901c60005b818110156104135760006103e98488600316610d36565b90508381036103f85750610413565b60029690961c9592508061040b81611a52565b9150506103d2565b5060018301805490600061042683611a52565b909155505081835561043782610d7b565b610445826003600584610d86565b60408051338152602081018790529081018390527f717c71b7226e13a6b97d602aded90ba7f6af22014b5c12d972f442a87cd2d50b9060600160405180910390a150505061049161056a565b505050565b3360008181526009602052604090206003015460ff166104c85760405162461bcd60e51b815260040161035b90611a20565b604080518481526001600160a01b03841660208201527f03d5bb73d05a20bf20c10ca08f297b7c1c27119bc52d321b0895c4997088ae36910160405180910390a16008546001600160a01b039081169083161161052d5761052882610e2f565b610538565b61053882601e610eca565b61049161056a565b600a818154811061055057600080fd5b6000918252602090912001546001600160a01b0316905081565b610572611051565b1561057f5761057f610cd0565b565b3360008181526009602052604090206003015460ff166105b35760405162461bcd60e51b815260040161035b90611a20565b336000908152600960205260409020600381015460ff166105d357600080fd5b60038101805460ff191690556105ea600a33611079565b80546105f590610d2b565b80546040805133815260208101929092527f9196f2b6f4a943b126dfa008d4d988cc157821a99ada5566b73e9f1c6d9d513d91015b60405180910390a15061063b61056a565b50565b6000806106496111af565b905060005b60015461065b9080611a6b565b81101561012c576001546000906106729080611a6b565b61067c8484611a82565b6106869190611aab565b9050610691816111f2565b61069c579392505050565b50806106a781611a52565b91505061064e565b6060600a80548060200260200160405190810160405280929190818152602001828054801561070757602002820191906000526020600020905b81546001600160a01b031681526001909101906020018083116106e9575b5050505050905090565b6004818154811061055057600080fd5b6060600280548060200260200160405190810160405280929190818152602001828054801561070757602002820191906000526020600020906000905b825461010083900a900460ff1681526020600192830181810494850194909303909202910180841161075e5790505050505050905090565b6060806060806060600280548060200260200160405190810160405280929190818152602001828054801561080857602002820191906000526020600020906000905b825461010083900a900460ff168152602060019283018181049485019490930390920291018084116107d95790505b50505050509450600480548060200260200160405190810160405280929190818152602001828054801561086557602002820191906000526020600020905b81546001600160a01b03168152600190910190602001808311610847575b50505050509350600a8054806020026020016040519081016040528092919081815260200182805480156108c257602002820191906000526020600020905b81546001600160a01b031681526001909101906020018083116108a4575b50505050509250835167ffffffffffffffff8111156108e3576108e3611abf565b60405190808252806020026020018201604052801561092857816020015b60408051808201909152600080825260208201528152602001906001900390816109015790505b50915060005b84518110156109c4576003600086838151811061094d5761094d611ad5565b60200260200101516001600160a01b03166001600160a01b03168152602001908152602001600020604051806040016040529081600082015481526020016001820154815250508382815181106109a6576109a6611ad5565b602002602001018190525080806109bc90611a52565b91505061092e565b50825167ffffffffffffffff8111156109df576109df611abf565b604051908082528060200260200182016040528015610a3d57816020015b610a2a60405180608001604052806000815260200160008152602001600081526020016000151581525090565b8152602001906001900390816109fd5790505b50905060005b8351811015610aec5760096000858381518110610a6257610a62611ad5565b6020908102919091018101516001600160a01b031682528181019290925260409081016000208151608081018352815481526001820154938101939093526002810154918301919091526003015460ff16151560608201528251839083908110610ace57610ace611ad5565b60200260200101819052508080610ae490611a52565b915050610a43565b5060005b8251811015610b3257610b2086848381518110610b0f57610b0f611ad5565b6020026020010151600001516111ff565b80610b2a81611a52565b915050610af0565b5060005b8151811015610b6757610b5586838381518110610b0f57610b0f611ad5565b80610b5f81611a52565b915050610b36565b509091929394565b3360008181526009602052604090206003015460ff1615610bb75760405162461bcd60e51b81526020600482015260026024820152614f4960f01b604482015260640161035b565b33600090815260096020526040812090610bcf61063e565b60038301805460ff19166001908117909155818455600a805491820181556000527fc65a7bb8d6351c1cf70c95a316cc6a92839c986682d98bc35f958f4883f9d2a80180546001600160a01b031916331790559050610c2d81610d7b565b60408051338152602081018390527f0c1de8e9993c058a253c96414b4215583b25fa35e1b6e0facf4d5a0dc2a6f3f8910160405180910390a1505061063b61056a565b60606004805480602002602001604051908101604052809291908181526020018280548015610707576020028201919060005260206000209081546001600160a01b031681526001909101906020018083116106e9575050505050905090565b60006007555b600554600454101561057f57610cf2610ced61063e565b61127b565b610cd6565b60028181548110610d0757600080fd5b9060005260206000209060209182820401919006915054906101000a900460ff1681565b61063b600282611388565b6000610d4182611432565b610d4b9084611aeb565b9050610d588383836114e1565b15610d64575081610d75565b610d6d816111f2565b15610d755750815b92915050565b61063b6002826115af565b60005b600454811015610e2757600060048281548110610da857610da8611ad5565b60009182526020808320909101546001600160a01b031680835260039091526040909120546001549192508591610de191908990611627565b1115610ded5750610e15565b84600003610dfc575050610e29565b84610e0681611b13565b955050610e13818461166e565b505b80610e1f81611a52565b915050610d89565b505b50505050565b610e3a600482611079565b6001600160a01b038116600090815260036020526040902054610e5c81610d2b565b6001600160a01b03821660009081526003602052604081208181556001018190556007549003610e8b57426007555b604080516001600160a01b0384168152602081018390527fb4f465201ba482972f2abcc3c617fb2bb2c8b810a93c29464a99e796e0129de3910161062a565b3360008181526009602052604090206003015460ff16610efc5760405162461bcd60e51b815260040161035b90611a20565b6001600160a01b038316600090815260096020526040902060030154839060ff16610f395760405162461bcd60e51b815260040161035b90611a20565b6001600160a01b0384166000908152600960205260409020600381015460ff16610f6257600080fd5b604080516001600160a01b0387168152602081018690527fa084a296f38460c344b22c86fd8c343ca7ac4571cbebc2070fd2f5aa1569db11910160405180910390a16002810154610fb39085611a82565b93506064841015610fca5760028101849055610e27565b8054610fd590610d2b565b610fe0600a86611079565b6001600160a01b03851660008181526009602090815260408083208381556001810184905560028101939093556003909201805460ff1916905590519182527fead27810900dffc10f8eaf4d55f4185f6a0d506f3e6ba0197bfdabd5b4551060910160405180910390a15050505050565b60006007546000141580156110745750426006546007546110729190611a82565b105b905090565b60005b825481101561118257816001600160a01b03168382815481106110a1576110a1611ad5565b6000918252602090912001546001600160a01b03160361117057825483906110cb90600190611b2a565b815481106110db576110db611ad5565b9060005260206000200160009054906101000a90046001600160a01b031683828154811061110b5761110b611ad5565b9060005260206000200160006101000a8154816001600160a01b0302191690836001600160a01b031602179055508280548061114957611149611b3d565b600082815260209020810160001990810180546001600160a01b0319169055019055505050565b8061117a81611a52565b91505061107c565b5060405162461bcd60e51b81526020600482015260016024820152602960f91b604482015260640161035b565b6000805481806111be83611a52565b919050556040516020016111d491815260200190565b6040516020818303038152906040528051906020012060001c905090565b6000610d75600283611762565b600061120c600883611b53565b9050600061121b600884611aab565b611226906007611b2a565b90506000816001901b9050801985848151811061124557611245611ad5565b60200260200101511685848151811061126057611260611ad5565b602002602001019060ff16908160ff16815250505050505050565b611284816111f2565b1561128e57600080fd5b600880546000919082906112aa906001600160a01b0316611b67565b82546001600160a01b038083166101009490940a848102910219909116179092556040805180820182528581526000602080830182815285835260039091529281209151825591516001918201556004805491820181559091527f8a35acfbc15ff81a39ae7d344fd709f28e8600b4aa8c65c6b64bfe7fe36bd19b0180546001600160a01b0319169091179055905061134282610d7b565b604080516001600160a01b0383168152602081018490527f0e83e6d9e51041870d443b1514f32f096c9f81ef34268e7e84fd463c69003564910160405180910390a15050565b6000611395600883611b53565b905060006113a4600884611aab565b6113af906007611b2a565b90506000816001901b905080198584815481106113ce576113ce611ad5565b90600052602060002090602091828204019190069054906101000a900460ff161685848154811061140157611401611ad5565b90600052602060002090602091828204019190066101000a81548160ff021916908360ff1602179055505050505050565b6000600382036114455750600019919050565b6001820361145557506001919050565b6002820361146957600154610d7590611b95565b8161147657505060015490565b6006820361149c576114886003611432565b6114926002611432565b610d759190611aeb565b600782036114ae576114886001611432565b600482036114ca576114c06003611432565b6114926000611432565b6005820361012c576114c06001611432565b919050565b600060048316600103611546576001546114fb9083611bb1565b6001546115089086611bb1565b14611515575060016115a8565b6000821215611526575060016115a8565b6001546115339080611a6b565b8210611541575060016115a8565b6115a4565b600183166001036115785760015461155e9083611bb1565b60015461156b9086611bb1565b14611541575060016115a8565b6000821215611589575060016115a8565b6001546115969080611a6b565b82106115a4575060016115a8565b5060005b9392505050565b60006115bc600883611b53565b905060006115cb600884611aab565b6115d6906007611b2a565b90506000816001901b9050808584815481106115f4576115f4611ad5565b90600052602060002090602091828204019190069054906101000a900460ff161785848154811061140157611401611ad5565b60006116456116368386611aab565b6116408486611aab565b6117d7565b61165c6116528487611b53565b6116408587611b53565b6116669190611a82565b949350505050565b6001600160a01b0382166000908152600360205260409020805461169181610d2b565b600182015460005b841561170557846116a981611b13565b95505060005b60048110156116f55760046116c48285611a82565b6116ce9190611aab565b92506116da8484610d36565b91508382036116f557806116ed81611a52565b9150506116af565b5082811461170557809250611699565b6001840182905580845561171881610d7b565b604080516001600160a01b0388168152602081018390527f71e1c0ca6060b05dd587465d7912f8c5274c31eef953d39bae748b1ea1df11a5910160405180910390a1505050505050565b600080611770600884611b53565b9050600061177f600885611aab565b61178a906007611b2a565b90508085838154811061179f5761179f611ad5565b90600052602060002090602091828204019190069054906101000a900460ff1660ff16901c60011660ff166001149250505092915050565b6000818310156117f2576117eb8383611b2a565b9050610d75565b6117eb8284611b2a565b6000806040838503121561180f57600080fd5b50508035926020909101359150565b80356001600160a01b03811681146114dc57600080fd5b6000806040838503121561184857600080fd5b823591506118586020840161181e565b90509250929050565b60006020828403121561187357600080fd5b6115a88261181e565b60006020828403121561188e57600080fd5b5035919050565b600081518084526020808501945080840160005b838110156118ce5781516001600160a01b0316875295820195908201906001016118a9565b509495945050505050565b6020815260006115a86020830184611895565b600081518084526020808501945080840160005b838110156118ce57815160ff1687529582019590820190600101611900565b6020815260006115a860208301846118ec565b600081518084526020808501945080840160005b838110156118ce5781518051885283810151848901526040808201519089015260609081015115159088015260809096019590820190600101611946565b60a08152600061199760a08301886118ec565b6020838203818501526119aa8289611895565b91506040848303818601526119bf8389611895565b8581036060870152875180825283890194509083019060005b818110156119fd578551805184528501518584015294840194918301916001016119d8565b50508581036080870152611a118188611932565b9b9a5050505050505050505050565b6020808252600290820152614f4160f01b604082015260600190565b634e487b7160e01b600052601160045260246000fd5b600060018201611a6457611a64611a3c565b5060010190565b8082028115828204841417610d7557610d75611a3c565b80820180821115610d7557610d75611a3c565b634e487b7160e01b600052601260045260246000fd5b600082611aba57611aba611a95565b500690565b634e487b7160e01b600052604160045260246000fd5b634e487b7160e01b600052603260045260246000fd5b8082018281126000831280158216821582161715611b0b57611b0b611a3c565b505092915050565b600081611b2257611b22611a3c565b506000190190565b81810381811115610d7557610d75611a3c565b634e487b7160e01b600052603160045260246000fd5b600082611b6257611b62611a95565b500490565b60006001600160a01b038281166002600160a01b03198101611b8b57611b8b611a3c565b6001019392505050565b6000600160ff1b8201611baa57611baa611a3c565b5060000390565b600082611bc057611bc0611a95565b600160ff1b821460001984141615611bda57611bda611a3c565b50059056fea264697066735822122062133ee31885c6b3df5762465a03d15b0e396ed133c6e823d1d8f2ce7d28ab6864736f6c63430008150033",
    "linkReferences": {}
  },
  "methodIdentifiers": {
    "N()": "c9e525df",
    "castSpell(uint256,address)": "0cbef7e7",
    "getFullState()": "972161f7",
    "getObstacles()": "833d2bea",
    "getPlayerAddresses()": "724d4924",
    "getSkeletonAddresses()": "a2b142af",
    "maxSkeletons()": "e9659ed1",
    "move(uint256,uint256)": "0867408f",
    "nextRandomPositionWithoutObstacle()": "7140ae66",
    "nonce()": "affed0e0",
    "obstacles(uint256)": "f6a5414d",
    "playerAddressToState(address)": "2d82e2a6",
    "playerAddresses(uint256)": "15c6aee2",
    "runLife()": "30503f1f",
    "skeletonAddressToState(address)": "0cc06d9d",
    "skeletonAddresses(uint256)": "79c9f9a7",
    "spawnSkeletons()": "a6bfd86c",
    "teleportIn()": "9dc9cbeb",
    "teleportOut()": "682676aa",
    "version()": "54fd4d50"
  },
  "id": 1
}