{
  "abi": [
    {
      "inputs": [
        {
          "internalType": "uint256",
          "name": "_N",
          "type": "uint256"
        },
        {
          "internalType": "uint8[]",
          "name": "_obstacles",
          "type": "uint8[]"
        },
        {
          "internalType": "uint256",
          "name": "_maxSkeletons",
          "type": "uint256"
        }
      ],
      "stateMutability": "nonpayable",
      "type": "constructor"
    },
    {
      "anonymous": false,
      "inputs": [
        {
          "indexed": false,
          "internalType": "address",
          "name": "player",
          "type": "address"
        },
        {
          "indexed": false,
          "internalType": "uint256",
          "name": "p",
          "type": "uint256"
        }
      ],
      "name": "PlayerAdded",
      "type": "event"
    },
    {
      "anonymous": false,
      "inputs": [
        {
          "indexed": false,
          "internalType": "address",
          "name": "player",
          "type": "address"
        },
        {
          "indexed": false,
          "internalType": "uint256",
          "name": "stepsDone",
          "type": "uint256"
        },
        {
          "indexed": false,
          "internalType": "uint256",
          "name": "newPosition",
          "type": "uint256"
        }
      ],
      "name": "PlayerMoved",
      "type": "event"
    },
    {
      "anonymous": false,
      "inputs": [
        {
          "indexed": false,
          "internalType": "address",
          "name": "player",
          "type": "address"
        },
        {
          "indexed": false,
          "internalType": "uint256",
          "name": "p",
          "type": "uint256"
        }
      ],
      "name": "PlayerRemoved",
      "type": "event"
    },
    {
      "anonymous": false,
      "inputs": [
        {
          "indexed": false,
          "internalType": "address",
          "name": "skeleton",
          "type": "address"
        },
        {
          "indexed": false,
          "internalType": "uint256",
          "name": "p",
          "type": "uint256"
        }
      ],
      "name": "SkeletonAdded",
      "type": "event"
    },
    {
      "anonymous": false,
      "inputs": [
        {
          "indexed": false,
          "internalType": "address",
          "name": "skeleton",
          "type": "address"
        },
        {
          "indexed": false,
          "internalType": "uint256",
          "name": "p",
          "type": "uint256"
        }
      ],
      "name": "SkeletonRemoved",
      "type": "event"
    },
    {
      "anonymous": false,
      "inputs": [
        {
          "indexed": false,
          "internalType": "uint256",
          "name": "asset",
          "type": "uint256"
        },
        {
          "indexed": false,
          "internalType": "address",
          "name": "target",
          "type": "address"
        }
      ],
      "name": "SpellCasted",
      "type": "event"
    },
    {
      "anonymous": false,
      "inputs": [],
      "name": "log",
      "type": "event"
    },
    {
      "anonymous": false,
      "inputs": [
        {
          "indexed": false,
          "internalType": "int256",
          "name": "x",
          "type": "int256"
        }
      ],
      "name": "logInt",
      "type": "event"
    },
    {
      "anonymous": false,
      "inputs": [
        {
          "indexed": false,
          "internalType": "uint256",
          "name": "x",
          "type": "uint256"
        }
      ],
      "name": "logUint",
      "type": "event"
    },
    {
      "inputs": [],
      "name": "N",
      "outputs": [
        {
          "internalType": "uint256",
          "name": "",
          "type": "uint256"
        }
      ],
      "stateMutability": "view",
      "type": "function"
    },
    {
      "inputs": [
        {
          "internalType": "uint256",
          "name": "asset",
          "type": "uint256"
        },
        {
          "internalType": "address",
          "name": "target",
          "type": "address"
        }
      ],
      "name": "castSpell",
      "outputs": [],
      "stateMutability": "nonpayable",
      "type": "function"
    },
    {
      "inputs": [],
      "name": "getFullState",
      "outputs": [
        {
          "internalType": "uint8[]",
          "name": "obstacles_",
          "type": "uint8[]"
        },
        {
          "internalType": "address[]",
          "name": "skeletonAddresses_",
          "type": "address[]"
        },
        {
          "internalType": "address[]",
          "name": "playerAddresses_",
          "type": "address[]"
        },
        {
          "components": [
            {
              "internalType": "uint256",
              "name": "position",
              "type": "uint256"
            },
            {
              "internalType": "uint256",
              "name": "step",
              "type": "uint256"
            }
          ],
          "internalType": "struct Skeleton[]",
          "name": "skeletons_",
          "type": "tuple[]"
        },
        {
          "components": [
            {
              "internalType": "uint256",
              "name": "position",
              "type": "uint256"
            },
            {
              "internalType": "uint256",
              "name": "nonce",
              "type": "uint256"
            },
            {
              "internalType": "uint256",
              "name": "damage",
              "type": "uint256"
            },
            {
              "internalType": "bool",
              "name": "isActive",
              "type": "bool"
            }
          ],
          "internalType": "struct Player[]",
          "name": "players_",
          "type": "tuple[]"
        }
      ],
      "stateMutability": "view",
      "type": "function"
    },
    {
      "inputs": [],
      "name": "getObstacles",
      "outputs": [
        {
          "internalType": "uint8[]",
          "name": "",
          "type": "uint8[]"
        }
      ],
      "stateMutability": "view",
      "type": "function"
    },
    {
      "inputs": [],
      "name": "getPlayerAddresses",
      "outputs": [
        {
          "internalType": "address[]",
          "name": "",
          "type": "address[]"
        }
      ],
      "stateMutability": "view",
      "type": "function"
    },
    {
      "inputs": [],
      "name": "getSkeletonAddresses",
      "outputs": [
        {
          "internalType": "address[]",
          "name": "",
          "type": "address[]"
        }
      ],
      "stateMutability": "view",
      "type": "function"
    },
    {
      "inputs": [],
      "name": "maxSkeletons",
      "outputs": [
        {
          "internalType": "uint256",
          "name": "",
          "type": "uint256"
        }
      ],
      "stateMutability": "view",
      "type": "function"
    },
    {
      "inputs": [
        {
          "internalType": "uint256",
          "name": "nonce",
          "type": "uint256"
        },
        {
          "internalType": "uint256",
          "name": "stepsToDo",
          "type": "uint256"
        }
      ],
      "name": "move",
      "outputs": [],
      "stateMutability": "nonpayable",
      "type": "function"
    },
    {
      "inputs": [],
      "name": "nextRandomPositionWithoutObstacle",
      "outputs": [
        {
          "internalType": "uint256",
          "name": "",
          "type": "uint256"
        }
      ],
      "stateMutability": "nonpayable",
      "type": "function"
    },
    {
      "inputs": [],
      "name": "nonce",
      "outputs": [
        {
          "internalType": "uint256",
          "name": "",
          "type": "uint256"
        }
      ],
      "stateMutability": "view",
      "type": "function"
    },
    {
      "inputs": [
        {
          "internalType": "uint256",
          "name": "",
          "type": "uint256"
        }
      ],
      "name": "obstacles",
      "outputs": [
        {
          "internalType": "uint8",
          "name": "",
          "type": "uint8"
        }
      ],
      "stateMutability": "view",
      "type": "function"
    },
    {
      "inputs": [
        {
          "internalType": "address",
          "name": "",
          "type": "address"
        }
      ],
      "name": "playerAddressToState",
      "outputs": [
        {
          "internalType": "uint256",
          "name": "position",
          "type": "uint256"
        },
        {
          "internalType": "uint256",
          "name": "nonce",
          "type": "uint256"
        },
        {
          "internalType": "uint256",
          "name": "damage",
          "type": "uint256"
        },
        {
          "internalType": "bool",
          "name": "isActive",
          "type": "bool"
        }
      ],
      "stateMutability": "view",
      "type": "function"
    },
    {
      "inputs": [
        {
          "internalType": "uint256",
          "name": "",
          "type": "uint256"
        }
      ],
      "name": "playerAddresses",
      "outputs": [
        {
          "internalType": "address",
          "name": "",
          "type": "address"
        }
      ],
      "stateMutability": "view",
      "type": "function"
    },
    {
      "inputs": [
        {
          "internalType": "address",
          "name": "",
          "type": "address"
        }
      ],
      "name": "skeletonAddressToState",
      "outputs": [
        {
          "internalType": "uint256",
          "name": "position",
          "type": "uint256"
        },
        {
          "internalType": "uint256",
          "name": "step",
          "type": "uint256"
        }
      ],
      "stateMutability": "view",
      "type": "function"
    },
    {
      "inputs": [
        {
          "internalType": "uint256",
          "name": "",
          "type": "uint256"
        }
      ],
      "name": "skeletonAddresses",
      "outputs": [
        {
          "internalType": "address",
          "name": "",
          "type": "address"
        }
      ],
      "stateMutability": "view",
      "type": "function"
    },
    {
      "inputs": [],
      "name": "spawnSkeletons",
      "outputs": [],
      "stateMutability": "nonpayable",
      "type": "function"
    },
    {
      "inputs": [],
      "name": "teleportIn",
      "outputs": [],
      "stateMutability": "nonpayable",
      "type": "function"
    },
    {
      "inputs": [],
      "name": "teleportOut",
      "outputs": [],
      "stateMutability": "nonpayable",
      "type": "function"
    },
    {
      "inputs": [],
      "name": "version",
      "outputs": [
        {
          "internalType": "uint256",
          "name": "",
          "type": "uint256"
        }
      ],
      "stateMutability": "view",
      "type": "function"
    }
  ],
  "bytecode": {
    "object": "0x60a060405260016080523480156200001657600080fd5b5060405162001e0538038062001e058339810160408190526200003991620005e1565b81516008620000498580620006e0565b62000055919062000710565b146200008b5760405162461bcd60e51b81526020600482015260016024820152602760f91b604482015260640160405180910390fd5b60018390558151620000a5906002906020850190620004f0565b506005819055620000b5620000c8565b620000bf620000f1565b505050620007cd565b6005546004541015620000ef57620000e9620000e3620001bd565b62000244565b620000c8565b565b336000908152600760205260409020600381015460ff16156200011357600080fd5b60006200011f620001bd565b60038301805460ff191660019081179091558184556008805491820181556000527ff3f7a9fe364faab93b216da50a3214154f22a0a2b415b23a84c8169e8b636ee30180546001600160a01b0319163317905590506200017f8162000352565b60408051338152602081018390527f0c1de8e9993c058a253c96414b4215583b25fa35e1b6e0facf4d5a0dc2a6f3f891015b60405180910390a15050565b600080620001ca62000362565b905060005b600154620001de9080620006e0565b8110156200023f57600154600090620001f89080620006e0565b62000204848462000727565b6200021091906200073d565b90506200021d81620003a8565b62000229579392505050565b5080620002368162000754565b915050620001cf565b600080fd5b6200024f81620003a8565b156200025a57600080fd5b6006805460009190829062000278906001600160a01b031662000770565b82546001600160a01b038083166101009490940a848102910219909116179092556040805180820182528581526000602080830182815285835260039091529281209151825591516001918201556004805491820181559091527f8a35acfbc15ff81a39ae7d344fd709f28e8600b4aa8c65c6b64bfe7fe36bd19b0180546001600160a01b03191690911790559050620003128262000352565b604080516001600160a01b0383168152602081018490527f0e83e6d9e51041870d443b1514f32f096c9f81ef34268e7e84fd463c690035649101620001b1565b6200035f600282620003bd565b50565b600080548180620003738362000754565b919050556040516020016200038a91815260200190565b6040516020818303038152906040528051906020012060001c905090565b6000620003b760028362000472565b92915050565b6000620003cc60088362000710565b90506000620003dd6008846200073d565b620003ea906007620007a1565b90506000816001901b9050808584815481106200040b576200040b620007b7565b90600052602060002090602091828204019190069054906101000a900460ff1617858481548110620004415762000441620007b7565b90600052602060002090602091828204019190066101000a81548160ff021916908360ff1602179055505050505050565b6000806200048260088462000710565b90506000620004936008856200073d565b620004a0906007620007a1565b905080858381548110620004b857620004b8620007b7565b90600052602060002090602091828204019190069054906101000a900460ff1660ff16901c60011660ff166001149250505092915050565b82805482825590600052602060002090601f016020900481019282156200058b5791602002820160005b838211156200055a57835183826101000a81548160ff021916908360ff16021790555092602001926001016020816000010492830192600103026200051a565b8015620005895782816101000a81549060ff02191690556001016020816000010492830192600103026200055a565b505b50620005999291506200059d565b5090565b5b808211156200059957600081556001016200059e565b634e487b7160e01b600052604160045260246000fd5b805160ff81168114620005dc57600080fd5b919050565b600080600060608486031215620005f757600080fd5b8351602080860151919450906001600160401b03808211156200061957600080fd5b818701915087601f8301126200062e57600080fd5b815181811115620006435762000643620005b4565b8060051b604051601f19603f830116810181811085821117156200066b576200066b620005b4565b60405291825284820192508381018501918a8311156200068a57600080fd5b938501935b82851015620006b357620006a385620005ca565b845293850193928501926200068f565b809750505050505050604084015190509250925092565b634e487b7160e01b600052601160045260246000fd5b8082028115828204841417620003b757620003b7620006ca565b634e487b7160e01b600052601260045260246000fd5b600082620007225762000722620006fa565b500490565b80820180821115620003b757620003b7620006ca565b6000826200074f576200074f620006fa565b500690565b600060018201620007695762000769620006ca565b5060010190565b60006001600160a01b038281166002600160a01b03198101620007975762000797620006ca565b6001019392505050565b81810381811115620003b757620003b7620006ca565b634e487b7160e01b600052603260045260246000fd5b60805161161c620007e96000396000610219015261161c6000f3fe608060405234801561001057600080fd5b50600436106101215760003560e01c806379c9f9a7116100ad578063a6bfd86c11610071578063a6bfd86c146102bf578063affed0e0146102c7578063c9e525df146102df578063e9659ed1146102e8578063f6a5414d146102f157600080fd5b806379c9f9a71461026e578063833d2bea14610281578063972161f7146102965780639dc9cbeb146102af578063a2b142af146102b757600080fd5b80632d82e2a6116100f45780632d82e2a6146101ba57806354fd4d5014610214578063682676aa146102495780637140ae6614610251578063724d49241461025957600080fd5b80630867408f146101265780630cbef7e71461013b5780630cc06d9d1461014e57806315c6aee21461018f575b600080fd5b610139610134366004611236565b610316565b005b61013961014936600461126f565b610445565b61017561015c36600461129b565b6003602052600090815260409020805460019091015482565b604080519283526020830191909152015b60405180910390f35b6101a261019d3660046112b6565b6104aa565b6040516001600160a01b039091168152602001610186565b6101f26101c836600461129b565b60076020526000908152604090208054600182015460028301546003909301549192909160ff1684565b6040805194855260208501939093529183015215156060820152608001610186565b61023b7f000000000000000000000000000000000000000000000000000000000000000081565b604051908152602001610186565b6101396104d4565b61023b610555565b6102616105c6565b6040516101869190611313565b6101a261027c3660046112b6565b610628565b610289610638565b6040516101869190611359565b61029e6106ad565b6040516101869594939291906113be565b610139610a86565b610261610b45565b610139610ba5565b3360009081526007602052604090206001015461023b565b61023b60015481565b61023b60055481565b6103046102ff3660046112b6565b610bc8565b60405160ff9091168152602001610186565b336000908152600760205260409020600381015460ff1661033657600080fd5b806001015483146103765760405162461bcd60e51b81526020600482015260056024820152644e6f6e636560d81b60448201526064015b60405180910390fd5b80546000608084901c815b818110156103cc576003861660006103998683610bfc565b90508581036103a95750506103cc565b600297881c979095509390931b90921791806103c481611470565b915050610381565b5083546103d890610c41565b8284556103e483610c4f565b6001840180549060006103f683611470565b90915550508354604080513381526020810185905280820192909252517f717c71b7226e13a6b97d602aded90ba7f6af22014b5c12d972f442a87cd2d50b9181900360600190a1505050505050565b6006546001600160a01b03908116908216116104645761046481610c5a565b604080518381526001600160a01b03831660208201527f03d5bb73d05a20bf20c10ca08f297b7c1c27119bc52d321b0895c4997088ae3691015b60405180910390a15050565b600881815481106104ba57600080fd5b6000918252602090912001546001600160a01b0316905081565b336000908152600760205260409020600381015460ff166104f457600080fd5b60038101805460ff1916905561050b600833610cde565b805461051690610c41565b80546040805133815260208101929092527f9196f2b6f4a943b126dfa008d4d988cc157821a99ada5566b73e9f1c6d9d513d910160405180910390a150565b600080610560610e14565b905060005b6001546105729080611489565b811015610121576001546000906105899080611489565b61059384846114a0565b61059d91906114c9565b90506105a881610e57565b6105b3579392505050565b50806105be81611470565b915050610565565b6060600880548060200260200160405190810160405280929190818152602001828054801561061e57602002820191906000526020600020905b81546001600160a01b03168152600190910190602001808311610600575b5050505050905090565b600481815481106104ba57600080fd5b6060600280548060200260200160405190810160405280929190818152602001828054801561061e57602002820191906000526020600020906000905b825461010083900a900460ff168152602060019283018181049485019490930390920291018084116106755790505050505050905090565b6060806060806060600280548060200260200160405190810160405280929190818152602001828054801561071f57602002820191906000526020600020906000905b825461010083900a900460ff168152602060019283018181049485019490930390920291018084116106f05790505b50505050509450600480548060200260200160405190810160405280929190818152602001828054801561077c57602002820191906000526020600020905b81546001600160a01b0316815260019091019060200180831161075e575b5050505050935060088054806020026020016040519081016040528092919081815260200182805480156107d957602002820191906000526020600020905b81546001600160a01b031681526001909101906020018083116107bb575b50505050509250835167ffffffffffffffff8111156107fa576107fa6114dd565b60405190808252806020026020018201604052801561083f57816020015b60408051808201909152600080825260208201528152602001906001900390816108185790505b50915060005b84518110156108db5760036000868381518110610864576108646114f3565b60200260200101516001600160a01b03166001600160a01b03168152602001908152602001600020604051806040016040529081600082015481526020016001820154815250508382815181106108bd576108bd6114f3565b602002602001018190525080806108d390611470565b915050610845565b50825167ffffffffffffffff8111156108f6576108f66114dd565b60405190808252806020026020018201604052801561095457816020015b61094160405180608001604052806000815260200160008152602001600081526020016000151581525090565b8152602001906001900390816109145790505b50905060005b8351811015610a035760076000858381518110610979576109796114f3565b6020908102919091018101516001600160a01b031682528181019290925260409081016000208151608081018352815481526001820154938101939093526002810154918301919091526003015460ff161515606082015282518390839081106109e5576109e56114f3565b602002602001018190525080806109fb90611470565b91505061095a565b5060005b8251811015610a4957610a3786848381518110610a2657610a266114f3565b602002602001015160000151610e64565b80610a4181611470565b915050610a07565b5060005b8151811015610a7e57610a6c86838381518110610a2657610a266114f3565b80610a7681611470565b915050610a4d565b509091929394565b336000908152600760205260409020600381015460ff1615610aa757600080fd5b6000610ab1610555565b60038301805460ff191660019081179091558184556008805491820181556000527ff3f7a9fe364faab93b216da50a3214154f22a0a2b415b23a84c8169e8b636ee30180546001600160a01b031916331790559050610b0f81610c4f565b60408051338152602081018390527f0c1de8e9993c058a253c96414b4215583b25fa35e1b6e0facf4d5a0dc2a6f3f8910161049e565b6060600480548060200260200160405190810160405280929190818152602001828054801561061e576020028201919060005260206000209081546001600160a01b03168152600190910190602001808311610600575050505050905090565b6005546004541015610bc657610bc1610bbc610555565b610ee0565b610ba5565b565b60028181548110610bd857600080fd5b9060005260206000209060209182820401919006915054906101000a900460ff1681565b6000610c0782610fe6565b610c119084611509565b9050610c1e83838361102f565b15610c2a575081610c3b565b610c3381610e57565b15610c3b5750815b92915050565b610c4c60028261109f565b50565b610c4c600282611149565b610c65600482610cde565b6001600160a01b038116600090815260036020526040902054610c8781610c41565b6001600160a01b038216600081815260036020908152604080832083815560010192909255815192835282018390527fb4f465201ba482972f2abcc3c617fb2bb2c8b810a93c29464a99e796e0129de3910161049e565b60005b8254811015610de757816001600160a01b0316838281548110610d0657610d066114f3565b6000918252602090912001546001600160a01b031603610dd55782548390610d3090600190611531565b81548110610d4057610d406114f3565b9060005260206000200160009054906101000a90046001600160a01b0316838281548110610d7057610d706114f3565b9060005260206000200160006101000a8154816001600160a01b0302191690836001600160a01b0316021790555082805480610dae57610dae611544565b600082815260209020810160001990810180546001600160a01b0319169055019055505050565b80610ddf81611470565b915050610ce1565b5060405162461bcd60e51b81526020600482015260016024820152602960f91b604482015260640161036d565b600080548180610e2383611470565b91905055604051602001610e3991815260200190565b6040516020818303038152906040528051906020012060001c905090565b6000610c3b6002836111c1565b6000610e7160088361155a565b90506000610e806008846114c9565b610e8b906007611531565b90506000816001901b90508019858481518110610eaa57610eaa6114f3565b602002602001015116858481518110610ec557610ec56114f3565b602002602001019060ff16908160ff16815250505050505050565b610ee981610e57565b15610ef357600080fd5b60068054600091908290610f0f906001600160a01b031661156e565b82546001600160a01b038083166101009490940a848102910219909116179092556040805180820182528581526000602080830182815285835260039091529281209151825591516001918201556004805491820181559091527f8a35acfbc15ff81a39ae7d344fd709f28e8600b4aa8c65c6b64bfe7fe36bd19b0180546001600160a01b03191690911790559050610fa782610c4f565b604080516001600160a01b0383168152602081018490527f0e83e6d9e51041870d443b1514f32f096c9f81ef34268e7e84fd463c69003564910161049e565b600060038203610ff95750600019919050565b6001820361100957506001919050565b6002820361101d57600154610c3b9061159c565b8161012157505060015490565b919050565b6000600183166001036110685760015461104990836115b8565b60015461105690866115b8565b1461106357506001611098565b611094565b600082121561107957506001611098565b6001546110869080611489565b821061109457506001611098565b5060005b9392505050565b60006110ac60088361155a565b905060006110bb6008846114c9565b6110c6906007611531565b90506000816001901b905080198584815481106110e5576110e56114f3565b90600052602060002090602091828204019190069054906101000a900460ff1616858481548110611118576111186114f3565b90600052602060002090602091828204019190066101000a81548160ff021916908360ff1602179055505050505050565b600061115660088361155a565b905060006111656008846114c9565b611170906007611531565b90506000816001901b90508085848154811061118e5761118e6114f3565b90600052602060002090602091828204019190069054906101000a900460ff1617858481548110611118576111186114f3565b6000806111cf60088461155a565b905060006111de6008856114c9565b6111e9906007611531565b9050808583815481106111fe576111fe6114f3565b90600052602060002090602091828204019190069054906101000a900460ff1660ff16901c60011660ff166001149250505092915050565b6000806040838503121561124957600080fd5b50508035926020909101359150565b80356001600160a01b038116811461102a57600080fd5b6000806040838503121561128257600080fd5b8235915061129260208401611258565b90509250929050565b6000602082840312156112ad57600080fd5b61109882611258565b6000602082840312156112c857600080fd5b5035919050565b600081518084526020808501945080840160005b838110156113085781516001600160a01b0316875295820195908201906001016112e3565b509495945050505050565b60208152600061109860208301846112cf565b600081518084526020808501945080840160005b8381101561130857815160ff168752958201959082019060010161133a565b6020815260006110986020830184611326565b600081518084526020808501945080840160005b838110156113085781518051885283810151848901526040808201519089015260609081015115159088015260809096019590820190600101611380565b60a0815260006113d160a0830188611326565b6020838203818501526113e482896112cf565b91506040848303818601526113f983896112cf565b8581036060870152875180825283890194509083019060005b8181101561143757855180518452850151858401529484019491830191600101611412565b5050858103608087015261144b818861136c565b9b9a5050505050505050505050565b634e487b7160e01b600052601160045260246000fd5b6000600182016114825761148261145a565b5060010190565b8082028115828204841417610c3b57610c3b61145a565b80820180821115610c3b57610c3b61145a565b634e487b7160e01b600052601260045260246000fd5b6000826114d8576114d86114b3565b500690565b634e487b7160e01b600052604160045260246000fd5b634e487b7160e01b600052603260045260246000fd5b80820182811260008312801582168215821617156115295761152961145a565b505092915050565b81810381811115610c3b57610c3b61145a565b634e487b7160e01b600052603160045260246000fd5b600082611569576115696114b3565b500490565b60006001600160a01b038281166002600160a01b031981016115925761159261145a565b6001019392505050565b6000600160ff1b82016115b1576115b161145a565b5060000390565b6000826115c7576115c76114b3565b600160ff1b8214600019841416156115e1576115e161145a565b50059056fea26469706673582212201ef9af8032ce323d6c601e181e04c9caf20990046bfb1fb2d0153cff982ef37064736f6c63430008150033",
    "linkReferences": {}
  },
  "methodIdentifiers": {
    "N()": "c9e525df",
    "castSpell(uint256,address)": "0cbef7e7",
    "getFullState()": "972161f7",
    "getObstacles()": "833d2bea",
    "getPlayerAddresses()": "724d4924",
    "getSkeletonAddresses()": "a2b142af",
    "maxSkeletons()": "e9659ed1",
    "move(uint256,uint256)": "0867408f",
    "nextRandomPositionWithoutObstacle()": "7140ae66",
    "nonce()": "affed0e0",
    "obstacles(uint256)": "f6a5414d",
    "playerAddressToState(address)": "2d82e2a6",
    "playerAddresses(uint256)": "15c6aee2",
    "skeletonAddressToState(address)": "0cc06d9d",
    "skeletonAddresses(uint256)": "79c9f9a7",
    "spawnSkeletons()": "a6bfd86c",
    "teleportIn()": "9dc9cbeb",
    "teleportOut()": "682676aa",
    "version()": "54fd4d50"
  },
  "id": 0
}