{
  "abi": [
    {
      "inputs": [
        {
          "internalType": "uint256",
          "name": "_N",
          "type": "uint256"
        },
        {
          "internalType": "bytes",
          "name": "_obstacles",
          "type": "bytes"
        }
      ],
      "stateMutability": "nonpayable",
      "type": "constructor"
    },
    {
      "anonymous": false,
      "inputs": [
        {
          "indexed": false,
          "internalType": "address",
          "name": "player",
          "type": "address"
        },
        {
          "indexed": false,
          "internalType": "address",
          "name": "target",
          "type": "address"
        },
        {
          "indexed": false,
          "internalType": "uint256",
          "name": "spellId",
          "type": "uint256"
        }
      ],
      "name": "CastedSpell",
      "type": "event"
    },
    {
      "anonymous": false,
      "inputs": [
        {
          "indexed": false,
          "internalType": "address",
          "name": "player",
          "type": "address"
        },
        {
          "indexed": false,
          "internalType": "uint256",
          "name": "steps",
          "type": "uint256"
        }
      ],
      "name": "Movement",
      "type": "event"
    },
    {
      "anonymous": false,
      "inputs": [
        {
          "indexed": false,
          "internalType": "address",
          "name": "player",
          "type": "address"
        },
        {
          "indexed": false,
          "internalType": "uint256",
          "name": "i",
          "type": "uint256"
        }
      ],
      "name": "PlayerAdded",
      "type": "event"
    },
    {
      "anonymous": false,
      "inputs": [
        {
          "indexed": false,
          "internalType": "address",
          "name": "skeleton",
          "type": "address"
        },
        {
          "indexed": false,
          "internalType": "uint256",
          "name": "i",
          "type": "uint256"
        }
      ],
      "name": "SkeletonAdded",
      "type": "event"
    },
    {
      "inputs": [],
      "name": "N",
      "outputs": [
        {
          "internalType": "uint256",
          "name": "",
          "type": "uint256"
        }
      ],
      "stateMutability": "view",
      "type": "function"
    },
    {
      "inputs": [
        {
          "internalType": "uint256",
          "name": "i",
          "type": "uint256"
        }
      ],
      "name": "addPlayer",
      "outputs": [],
      "stateMutability": "nonpayable",
      "type": "function"
    },
    {
      "inputs": [
        {
          "internalType": "address",
          "name": "skeleton",
          "type": "address"
        },
        {
          "internalType": "uint256",
          "name": "i",
          "type": "uint256"
        }
      ],
      "name": "addSkeleton",
      "outputs": [],
      "stateMutability": "nonpayable",
      "type": "function"
    },
    {
      "inputs": [
        {
          "internalType": "uint256",
          "name": "spellId",
          "type": "uint256"
        },
        {
          "internalType": "address",
          "name": "target",
          "type": "address"
        }
      ],
      "name": "castSpell",
      "outputs": [],
      "stateMutability": "nonpayable",
      "type": "function"
    },
    {
      "inputs": [
        {
          "internalType": "uint256",
          "name": "steps",
          "type": "uint256"
        }
      ],
      "name": "move",
      "outputs": [],
      "stateMutability": "nonpayable",
      "type": "function"
    },
    {
      "inputs": [],
      "name": "obstacles",
      "outputs": [
        {
          "internalType": "bytes",
          "name": "",
          "type": "bytes"
        }
      ],
      "stateMutability": "view",
      "type": "function"
    },
    {
      "inputs": [
        {
          "internalType": "address",
          "name": "",
          "type": "address"
        }
      ],
      "name": "players",
      "outputs": [
        {
          "internalType": "uint8",
          "name": "damage",
          "type": "uint8"
        },
        {
          "internalType": "uint8",
          "name": "direction",
          "type": "uint8"
        }
      ],
      "stateMutability": "view",
      "type": "function"
    },
    {
      "inputs": [
        {
          "internalType": "uint256",
          "name": "",
          "type": "uint256"
        }
      ],
      "name": "skeletons",
      "outputs": [
        {
          "internalType": "address",
          "name": "",
          "type": "address"
        }
      ],
      "stateMutability": "view",
      "type": "function"
    }
  ],
  "bytecode": {
    "object": "0x60a06040523480156200001157600080fd5b5060405162000ad438038062000ad48339810160408190526200003491620000e2565b80516008620000448480620001c2565b620000509190620001ee565b14620000b05760405162461bcd60e51b815260206004820152602560248201527f4461746120646f6573206e6f74206d61746368206578706563746564204e784e6044820152642073697a6560d81b606482015260840160405180910390fd5b60808290526000620000c38282620002a0565b5050506200036c565b634e487b7160e01b600052604160045260246000fd5b60008060408385031215620000f657600080fd5b8251602080850151919350906001600160401b03808211156200011857600080fd5b818601915086601f8301126200012d57600080fd5b815181811115620001425762000142620000cc565b604051601f8201601f19908116603f011681019083821181831017156200016d576200016d620000cc565b8160405282815289868487010111156200018657600080fd5b600093505b82841015620001aa57848401860151818501870152928501926200018b565b60008684830101528096505050505050509250929050565b8082028115828204841417620001e857634e487b7160e01b600052601160045260246000fd5b92915050565b6000826200020c57634e487b7160e01b600052601260045260246000fd5b500490565b600181811c908216806200022657607f821691505b6020821081036200024757634e487b7160e01b600052602260045260246000fd5b50919050565b601f8211156200029b57600081815260208120601f850160051c81016020861015620002765750805b601f850160051c820191505b81811015620002975782815560010162000282565b5050505b505050565b81516001600160401b03811115620002bc57620002bc620000cc565b620002d481620002cd845462000211565b846200024d565b602080601f8311600181146200030c5760008415620002f35750858301515b600019600386901b1c1916600185901b17855562000297565b600085815260208120601f198616915b828110156200033d578886015182559484019460019091019084016200031c565b50858210156200035c5787850151600019600388901b60f8161c191681555b5050505050600190811b01905550565b60805161074c620003886000396000610112015261074c6000f3fe608060405234801561001057600080fd5b50600436106100885760003560e01c8063c42df0ae1161005b578063c42df0ae146100f8578063c9e525df1461010d578063e2eb41ff14610142578063ec4a8b171461018857600080fd5b80630cbef7e71461008d5780632a957441146100a257806342ce274b146100b557806387cb15f7146100e5575b600080fd5b6100a061009b366004610592565b61019b565b005b6100a06100b03660046105be565b6101e8565b6100c86100c33660046105e8565b6103b8565b6040516001600160a01b0390911681526020015b60405180910390f35b6100a06100f33660046105e8565b6103e2565b61010061041f565b6040516100dc9190610601565b6101347f000000000000000000000000000000000000000000000000000000000000000081565b6040519081526020016100dc565b61016e61015036600461064f565b60016020526000908152604090205460ff8082169161010090041682565b6040805160ff9384168152929091166020830152016100dc565b6100a06101963660046105e8565b6104ad565b604080513381526001600160a01b03831660208201529081018390527fdf6a64b48b2e4945b72a2a850d22327a706e34c9c3a203e26759f78a072345639060600160405180910390a15050565b6001600160a01b0382166102435760405162461bcd60e51b815260206004820152601860248201527f496e76616c696420736b656c65746f6e2061646472657373000000000000000060448201526064015b60405180910390fd5b6001600160a01b03821660009081526001602052604090205460ff16156102a55760405162461bcd60e51b815260206004820152601660248201527514dad95b195d1bdb88185b1c9958591e48185919195960521b604482015260640161023a565b600380546001600160a01b03169060006102be83610687565b82546101009290920a6001600160a01b03818102199093169183160217909155600354600092506102f09116846106b5565b604080518082018252600080825260208083018281526001600160a01b038616808452600180845286852095518654935160ff9081166101000261ffff19909516911617929092179094556002805491820181559092527f405787fa12a823e0f2b7631cc41b3ba8828b3321ca811111fa75cd3aa3bb5ace90910180546001600160a01b03191683179055825191825281018590529192507f0e83e6d9e51041870d443b1514f32f096c9f81ef34268e7e84fd463c69003564910160405180910390a1505050565b600281815481106103c857600080fd5b6000918252602090912001546001600160a01b0316905081565b60408051338152602081018390527ff19c2fd76c91c01ffe1e45cf5c7a887801a4ffd944ecc05badb3bea1ddda6dd491015b60405180910390a150565b6000805461042c906106dc565b80601f0160208091040260200160405190810160405280929190818152602001828054610458906106dc565b80156104a55780601f1061047a576101008083540402835291602001916104a5565b820191906000526020600020905b81548152906001019060200180831161048857829003601f168201915b505050505081565b3360009081526001602052604090205460ff16156105045760405162461bcd60e51b8152602060048201526014602482015273141b185e595c88185b1c9958591e48185919195960621b604482015260640161023a565b6040805180820182526000808252602080830182815233808452600183529285902093518454915160ff9081166101000261ffff199093169116171790925582519081529081018390527f0c1de8e9993c058a253c96414b4215583b25fa35e1b6e0facf4d5a0dc2a6f3f89101610414565b80356001600160a01b038116811461058d57600080fd5b919050565b600080604083850312156105a557600080fd5b823591506105b560208401610576565b90509250929050565b600080604083850312156105d157600080fd5b6105da83610576565b946020939093013593505050565b6000602082840312156105fa57600080fd5b5035919050565b600060208083528351808285015260005b8181101561062e57858101830151858201604001528201610612565b506000604082860101526040601f19601f8301168501019250505092915050565b60006020828403121561066157600080fd5b61066a82610576565b9392505050565b634e487b7160e01b600052601160045260246000fd5b60006001600160a01b038281166002600160a01b031981016106ab576106ab610671565b6001019392505050565b6001600160a01b038181168382160190808211156106d5576106d5610671565b5092915050565b600181811c908216806106f057607f821691505b60208210810361071057634e487b7160e01b600052602260045260246000fd5b5091905056fea26469706673582212205ff4a18ee598acaf6f466412f002ac7789c79d52d36a18844c7a94c7052a1cd964736f6c63430008150033",
    "linkReferences": {}
  },
  "methodIdentifiers": {
    "N()": "c9e525df",
    "addPlayer(uint256)": "ec4a8b17",
    "addSkeleton(address,uint256)": "2a957441",
    "castSpell(uint256,address)": "0cbef7e7",
    "move(uint256)": "87cb15f7",
    "obstacles()": "c42df0ae",
    "players(address)": "e2eb41ff",
    "skeletons(uint256)": "42ce274b"
  },
  "id": 0
}