{
  "abi": [
    {
      "inputs": [
        {
          "internalType": "uint256",
          "name": "_N",
          "type": "uint256"
        },
        {
          "internalType": "bytes",
          "name": "_obstacles",
          "type": "bytes"
        },
        {
          "internalType": "uint256",
          "name": "_maxSkeletons",
          "type": "uint256"
        }
      ],
      "stateMutability": "nonpayable",
      "type": "constructor"
    },
    {
      "anonymous": false,
      "inputs": [
        {
          "indexed": false,
          "internalType": "address",
          "name": "player",
          "type": "address"
        },
        {
          "indexed": false,
          "internalType": "address",
          "name": "target",
          "type": "address"
        },
        {
          "indexed": false,
          "internalType": "uint256",
          "name": "spellId",
          "type": "uint256"
        }
      ],
      "name": "CastedSpell",
      "type": "event"
    },
    {
      "anonymous": false,
      "inputs": [
        {
          "indexed": false,
          "internalType": "address",
          "name": "player",
          "type": "address"
        },
        {
          "indexed": false,
          "internalType": "uint256",
          "name": "steps",
          "type": "uint256"
        }
      ],
      "name": "Movement",
      "type": "event"
    },
    {
      "anonymous": false,
      "inputs": [
        {
          "indexed": false,
          "internalType": "address",
          "name": "player",
          "type": "address"
        },
        {
          "indexed": false,
          "internalType": "uint256",
          "name": "i",
          "type": "uint256"
        }
      ],
      "name": "PlayerAdded",
      "type": "event"
    },
    {
      "anonymous": false,
      "inputs": [
        {
          "indexed": false,
          "internalType": "address",
          "name": "skeleton",
          "type": "address"
        },
        {
          "indexed": false,
          "internalType": "uint256",
          "name": "i",
          "type": "uint256"
        }
      ],
      "name": "SkeletonAdded",
      "type": "event"
    },
    {
      "inputs": [],
      "name": "N",
      "outputs": [
        {
          "internalType": "uint256",
          "name": "",
          "type": "uint256"
        }
      ],
      "stateMutability": "view",
      "type": "function"
    },
    {
      "inputs": [
        {
          "internalType": "uint256",
          "name": "i",
          "type": "uint256"
        }
      ],
      "name": "_addSkeleton",
      "outputs": [],
      "stateMutability": "nonpayable",
      "type": "function"
    },
    {
      "inputs": [
        {
          "internalType": "uint256",
          "name": "i",
          "type": "uint256"
        }
      ],
      "name": "addPlayer",
      "outputs": [],
      "stateMutability": "nonpayable",
      "type": "function"
    },
    {
      "inputs": [
        {
          "internalType": "uint256",
          "name": "spellId",
          "type": "uint256"
        },
        {
          "internalType": "address",
          "name": "target",
          "type": "address"
        }
      ],
      "name": "castSpell",
      "outputs": [],
      "stateMutability": "nonpayable",
      "type": "function"
    },
    {
      "inputs": [
        {
          "internalType": "address",
          "name": "",
          "type": "address"
        }
      ],
      "name": "characterAddressToCharacterState",
      "outputs": [
        {
          "internalType": "uint256",
          "name": "position",
          "type": "uint256"
        },
        {
          "internalType": "uint8",
          "name": "damage",
          "type": "uint8"
        },
        {
          "internalType": "uint8",
          "name": "asset",
          "type": "uint8"
        },
        {
          "internalType": "uint8",
          "name": "direction",
          "type": "uint8"
        }
      ],
      "stateMutability": "view",
      "type": "function"
    },
    {
      "inputs": [
        {
          "internalType": "uint256",
          "name": "",
          "type": "uint256"
        }
      ],
      "name": "characterAddresses",
      "outputs": [
        {
          "internalType": "address",
          "name": "",
          "type": "address"
        }
      ],
      "stateMutability": "view",
      "type": "function"
    },
    {
      "inputs": [
        {
          "internalType": "uint256",
          "name": "",
          "type": "uint256"
        }
      ],
      "name": "characterPositionToCharacterAddress",
      "outputs": [
        {
          "internalType": "address",
          "name": "",
          "type": "address"
        }
      ],
      "stateMutability": "view",
      "type": "function"
    },
    {
      "inputs": [],
      "name": "getCharacterAddresses",
      "outputs": [
        {
          "internalType": "address[]",
          "name": "",
          "type": "address[]"
        }
      ],
      "stateMutability": "view",
      "type": "function"
    },
    {
      "inputs": [],
      "name": "getCurrentRandomNumber",
      "outputs": [
        {
          "internalType": "uint256",
          "name": "",
          "type": "uint256"
        }
      ],
      "stateMutability": "view",
      "type": "function"
    },
    {
      "inputs": [],
      "name": "getCurrentRandomPositionWithoutObstacle",
      "outputs": [
        {
          "internalType": "uint256",
          "name": "",
          "type": "uint256"
        }
      ],
      "stateMutability": "view",
      "type": "function"
    },
    {
      "inputs": [],
      "name": "getSkeletonAddresses",
      "outputs": [
        {
          "internalType": "address[]",
          "name": "",
          "type": "address[]"
        }
      ],
      "stateMutability": "view",
      "type": "function"
    },
    {
      "inputs": [
        {
          "internalType": "uint256",
          "name": "i",
          "type": "uint256"
        }
      ],
      "name": "hasObstacle",
      "outputs": [
        {
          "internalType": "bool",
          "name": "",
          "type": "bool"
        }
      ],
      "stateMutability": "view",
      "type": "function"
    },
    {
      "inputs": [],
      "name": "maxSkeletons",
      "outputs": [
        {
          "internalType": "uint256",
          "name": "",
          "type": "uint256"
        }
      ],
      "stateMutability": "view",
      "type": "function"
    },
    {
      "inputs": [
        {
          "internalType": "uint256",
          "name": "steps",
          "type": "uint256"
        }
      ],
      "name": "move",
      "outputs": [],
      "stateMutability": "nonpayable",
      "type": "function"
    },
    {
      "inputs": [],
      "name": "obstacles",
      "outputs": [
        {
          "internalType": "bytes",
          "name": "",
          "type": "bytes"
        }
      ],
      "stateMutability": "view",
      "type": "function"
    },
    {
      "inputs": [
        {
          "internalType": "uint256",
          "name": "",
          "type": "uint256"
        }
      ],
      "name": "skeletonAddresses",
      "outputs": [
        {
          "internalType": "address",
          "name": "",
          "type": "address"
        }
      ],
      "stateMutability": "view",
      "type": "function"
    },
    {
      "inputs": [],
      "name": "updateSkeletons",
      "outputs": [],
      "stateMutability": "nonpayable",
      "type": "function"
    }
  ],
  "bytecode": {
    "object": "0x60c06040523480156200001157600080fd5b50604051620012a5380380620012a5833981016040819052620000349162000434565b8151600862000044858062000533565b62000050919062000569565b14620000b05760405162461bcd60e51b815260206004820152602560248201527f4461746120646f6573206e6f74206d61746368206578706563746564204e784e6044820152642073697a6560d81b606482015260840160405180910390fd5b60808390526000620000c383826200060f565b5060a0819052620000d3620000dc565b50505062000781565b60a05160035410156200011a57620000fd620000f76200011c565b620001a3565b600680549060006200010f83620006db565b9190505550620000dc565b565b6000806200012962000311565b905060005b6080516200013d908062000533565b8110156200019e5760805160009062000157908062000533565b620001638484620006f7565b6200016f91906200070d565b90506200017c8162000347565b62000188579392505050565b50806200019581620006db565b9150506200012e565b600080fd5b60058054600091908290620001c1906001600160a01b031662000724565b82546001600160a01b0382811661010094850a81810292021990921617909355604080516080810182528681526000602080830182815283850183815260608501848152898552600180855287862096518755925195830180549251915160ff908116620100000262ff000019938216909b0261ffff19909416971696909617919091171696909617909255600380548087019091557fc2575a0e9e593c00f959f8c92f12db2869c3395a3b0502d05e2516446f71f85b0180546001600160a01b031990811688179091556004805496870190557f8a35acfbc15ff81a39ae7d344fd709f28e8600b4aa8c65c6b64bfe7fe36bd19b90950180548616871790558781526002825282902080549094168517909355805193845291830185905292507f0e83e6d9e51041870d443b1514f32f096c9f81ef34268e7e84fd463c69003564910160405180910390a15050565b60006006546040516020016200032991815260200190565b6040516020818303038152906040528051906020012060001c905090565b6000620003548262000390565b156200036257506001919050565b6000828152600260205260409020546001600160a01b0316156200038857506001919050565b506000919050565b600080620003a060088462000569565b90506000620003b16008856200070d565b90506001620003c282600762000755565b6000848154620003d29062000580565b8110620003e357620003e36200076b565b815460011615620004035790600052602060002090602091828204019190065b9054901a600160f81b0260f81c901c60011614949350505050565b634e487b7160e01b600052604160045260246000fd5b6000806000606084860312156200044a57600080fd5b8351602080860151919450906001600160401b03808211156200046c57600080fd5b818701915087601f8301126200048157600080fd5b8151818111156200049657620004966200041e565b604051601f8201601f19908116603f01168101908382118183101715620004c157620004c16200041e565b816040528281528a86848701011115620004da57600080fd5b600093505b82841015620004fe5784840186015181850187015292850192620004df565b6000868483010152809750505050505050604084015190509250925092565b634e487b7160e01b600052601160045260246000fd5b80820281158282048414176200054d576200054d6200051d565b92915050565b634e487b7160e01b600052601260045260246000fd5b6000826200057b576200057b62000553565b500490565b600181811c908216806200059557607f821691505b602082108103620005b657634e487b7160e01b600052602260045260246000fd5b50919050565b601f8211156200060a57600081815260208120601f850160051c81016020861015620005e55750805b601f850160051c820191505b818110156200060657828155600101620005f1565b5050505b505050565b81516001600160401b038111156200062b576200062b6200041e565b62000643816200063c845462000580565b84620005bc565b602080601f8311600181146200067b5760008415620006625750858301515b600019600386901b1c1916600185901b17855562000606565b600085815260208120601f198616915b82811015620006ac578886015182559484019460019091019084016200068b565b5085821015620006cb5787850151600019600388901b60f8161c191681555b5050505050600190811b01905550565b600060018201620006f057620006f06200051d565b5060010190565b808201808211156200054d576200054d6200051d565b6000826200071f576200071f62000553565b500690565b60006001600160a01b038281166002600160a01b031981016200074b576200074b6200051d565b6001019392505050565b818103818111156200054d576200054d6200051d565b634e487b7160e01b600052603260045260246000fd5b60805160a051610ae9620007bc600039600081816102c4015261034a01526000818161029d015281816103ab01526103de0152610ae96000f3fe608060405234801561001057600080fd5b506004361061010b5760003560e01c806383d9e20c116100a2578063ab7c13dc11610071578063ab7c13dc14610270578063c42df0ae14610283578063c9e525df14610298578063e9659ed1146102bf578063ec4a8b17146102e657600080fd5b806383d9e20c1461022d57806387cb15f714610240578063a2b142af14610253578063a6e0d6351461026857600080fd5b806344730da4116100de57806344730da4146101d957806362a72804146101ef5780636e7b0fed1461021257806379c9f9a71461021a57600080fd5b8063093ed6af146101105780630cbef7e71461017b5780632472d44914610190578063340369f3146101d1575b600080fd5b61014d61011e366004610883565b6001602081905260009182526040909120805491015460ff808216916101008104821691620100009091041684565b6040805194855260ff9384166020860152918316918401919091521660608201526080015b60405180910390f35b61018e6101893660046108a5565b6102f7565b005b6101b961019e3660046108d1565b6002602052600090815260409020546001600160a01b031681565b6040516001600160a01b039091168152602001610172565b61018e610345565b6101e1610396565b604051908152602001610172565b6102026101fd3660046108d1565b610440565b6040519015158152602001610172565b6101e1610485565b6101b96102283660046108d1565b6104ba565b6101b961023b3660046108d1565b6104e4565b61018e61024e3660046108d1565b6104f4565b61025b610530565b60405161017291906108ea565b61025b610592565b61018e61027e3660046108d1565b6105f2565b61028b610757565b6040516101729190610937565b6101e17f000000000000000000000000000000000000000000000000000000000000000081565b6101e17f000000000000000000000000000000000000000000000000000000000000000081565b61018e6102f43660046108d1565b50565b604080513381526001600160a01b03831660208201529081018390527fdf6a64b48b2e4945b72a2a850d22327a706e34c9c3a203e26759f78a07234563906060015b60405180910390a15050565b6003547f000000000000000000000000000000000000000000000000000000000000000011156103945761037a61027e610396565b6006805490600061038a8361099b565b9190505550610345565b565b6000806103a1610485565b905060005b6103d07f0000000000000000000000000000000000000000000000000000000000000000806109b4565b81101561010b5760006104037f0000000000000000000000000000000000000000000000000000000000000000806109b4565b61040d84846109d1565b61041791906109fa565b905061042281610440565b61042d579392505050565b50806104388161099b565b9150506103a6565b600061044b826107e5565b1561045857506001919050565b6000828152600260205260409020546001600160a01b03161561047d57506001919050565b506000919050565b600060065460405160200161049c91815260200190565b6040516020818303038152906040528051906020012060001c905090565b600381815481106104ca57600080fd5b6000918252602090912001546001600160a01b0316905081565b600481815481106104ca57600080fd5b60408051338152602081018390527ff19c2fd76c91c01ffe1e45cf5c7a887801a4ffd944ecc05badb3bea1ddda6dd4910160405180910390a150565b6060600380548060200260200160405190810160405280929190818152602001828054801561058857602002820191906000526020600020905b81546001600160a01b0316815260019091019060200180831161056a575b5050505050905090565b60606004805480602002602001604051908101604052809291908181526020018280548015610588576020028201919060005260206000209081546001600160a01b0316815260019091019060200180831161056a575050505050905090565b6005805460009190829061060e906001600160a01b0316610a0e565b82546001600160a01b0382811661010094850a81810292021990921617909355604080516080810182528681526000602080830182815283850183815260608501848152898552600180855287862096518755925195830180549251915160ff908116620100000262ff000019938216909b0261ffff19909416971696909617919091171696909617909255600380548087019091557fc2575a0e9e593c00f959f8c92f12db2869c3395a3b0502d05e2516446f71f85b0180546001600160a01b031990811688179091556004805496870190557f8a35acfbc15ff81a39ae7d344fd709f28e8600b4aa8c65c6b64bfe7fe36bd19b90950180548616871790558781526002825282902080549094168517909355805193845291830185905292507f0e83e6d9e51041870d443b1514f32f096c9f81ef34268e7e84fd463c690035649101610339565b6000805461076490610a3c565b80601f016020809104026020016040519081016040528092919081815260200182805461079090610a3c565b80156107dd5780601f106107b2576101008083540402835291602001916107dd565b820191906000526020600020905b8154815290600101906020018083116107c057829003601f168201915b505050505081565b6000806107f3600884610a76565b905060006108026008856109fa565b90506001610811826007610a8a565b600084815461081f90610a3c565b811061082d5761082d610a9d565b81546001161561084c5790600052602060002090602091828204019190065b9054901a600160f81b0260f81c901c60011614949350505050565b80356001600160a01b038116811461087e57600080fd5b919050565b60006020828403121561089557600080fd5b61089e82610867565b9392505050565b600080604083850312156108b857600080fd5b823591506108c860208401610867565b90509250929050565b6000602082840312156108e357600080fd5b5035919050565b6020808252825182820181905260009190848201906040850190845b8181101561092b5783516001600160a01b031683529284019291840191600101610906565b50909695505050505050565b600060208083528351808285015260005b8181101561096457858101830151858201604001528201610948565b506000604082860101526040601f19601f8301168501019250505092915050565b634e487b7160e01b600052601160045260246000fd5b6000600182016109ad576109ad610985565b5060010190565b80820281158282048414176109cb576109cb610985565b92915050565b808201808211156109cb576109cb610985565b634e487b7160e01b600052601260045260246000fd5b600082610a0957610a096109e4565b500690565b60006001600160a01b038281166002600160a01b03198101610a3257610a32610985565b6001019392505050565b600181811c90821680610a5057607f821691505b602082108103610a7057634e487b7160e01b600052602260045260246000fd5b50919050565b600082610a8557610a856109e4565b500490565b818103818111156109cb576109cb610985565b634e487b7160e01b600052603260045260246000fdfea264697066735822122054c266fba10dcd411b77e754567e760f2a8ef935a0ccf39bf7a48a403a98fb2864736f6c63430008150033",
    "linkReferences": {}
  },
  "methodIdentifiers": {
    "N()": "c9e525df",
    "_addSkeleton(uint256)": "ab7c13dc",
    "addPlayer(uint256)": "ec4a8b17",
    "castSpell(uint256,address)": "0cbef7e7",
    "characterAddressToCharacterState(address)": "093ed6af",
    "characterAddresses(uint256)": "83d9e20c",
    "characterPositionToCharacterAddress(uint256)": "2472d449",
    "getCharacterAddresses()": "a6e0d635",
    "getCurrentRandomNumber()": "6e7b0fed",
    "getCurrentRandomPositionWithoutObstacle()": "44730da4",
    "getSkeletonAddresses()": "a2b142af",
    "hasObstacle(uint256)": "62a72804",
    "maxSkeletons()": "e9659ed1",
    "move(uint256)": "87cb15f7",
    "obstacles()": "c42df0ae",
    "skeletonAddresses(uint256)": "79c9f9a7",
    "updateSkeletons()": "340369f3"
  },
  "id": 0
}