{
  "abi": [
    {
      "inputs": [
        {
          "internalType": "uint256",
          "name": "_N",
          "type": "uint256"
        },
        {
          "internalType": "bytes",
          "name": "_obstacles",
          "type": "bytes"
        },
        {
          "internalType": "uint256",
          "name": "_maxSkeletons",
          "type": "uint256"
        }
      ],
      "stateMutability": "nonpayable",
      "type": "constructor"
    },
    {
      "anonymous": false,
      "inputs": [
        {
          "indexed": false,
          "internalType": "address",
          "name": "player",
          "type": "address"
        },
        {
          "indexed": false,
          "internalType": "address",
          "name": "target",
          "type": "address"
        },
        {
          "indexed": false,
          "internalType": "uint256",
          "name": "spellId",
          "type": "uint256"
        }
      ],
      "name": "CastedSpell",
      "type": "event"
    },
    {
      "anonymous": false,
      "inputs": [
        {
          "indexed": false,
          "internalType": "address",
          "name": "player",
          "type": "address"
        },
        {
          "indexed": false,
          "internalType": "uint256",
          "name": "steps",
          "type": "uint256"
        }
      ],
      "name": "Movement",
      "type": "event"
    },
    {
      "anonymous": false,
      "inputs": [
        {
          "indexed": false,
          "internalType": "address",
          "name": "player",
          "type": "address"
        },
        {
          "indexed": false,
          "internalType": "uint256",
          "name": "p",
          "type": "uint256"
        }
      ],
      "name": "PlayerAdded",
      "type": "event"
    },
    {
      "anonymous": false,
      "inputs": [
        {
          "indexed": false,
          "internalType": "address",
          "name": "player",
          "type": "address"
        }
      ],
      "name": "PlayerRemoved",
      "type": "event"
    },
    {
      "anonymous": false,
      "inputs": [
        {
          "indexed": false,
          "internalType": "address",
          "name": "skeleton",
          "type": "address"
        },
        {
          "indexed": false,
          "internalType": "uint256",
          "name": "p",
          "type": "uint256"
        }
      ],
      "name": "SkeletonAdded",
      "type": "event"
    },
    {
      "inputs": [],
      "name": "N",
      "outputs": [
        {
          "internalType": "uint256",
          "name": "",
          "type": "uint256"
        }
      ],
      "stateMutability": "view",
      "type": "function"
    },
    {
      "inputs": [
        {
          "internalType": "uint256",
          "name": "p",
          "type": "uint256"
        }
      ],
      "name": "_addSkeleton",
      "outputs": [],
      "stateMutability": "nonpayable",
      "type": "function"
    },
    {
      "inputs": [
        {
          "internalType": "uint256",
          "name": "spellId",
          "type": "uint256"
        },
        {
          "internalType": "address",
          "name": "target",
          "type": "address"
        }
      ],
      "name": "castSpell",
      "outputs": [],
      "stateMutability": "nonpayable",
      "type": "function"
    },
    {
      "inputs": [
        {
          "internalType": "address",
          "name": "",
          "type": "address"
        }
      ],
      "name": "characterAddressToCharacterState",
      "outputs": [
        {
          "internalType": "uint256",
          "name": "position",
          "type": "uint256"
        },
        {
          "internalType": "uint8",
          "name": "damage",
          "type": "uint8"
        },
        {
          "internalType": "uint8",
          "name": "asset",
          "type": "uint8"
        },
        {
          "internalType": "uint8",
          "name": "direction",
          "type": "uint8"
        }
      ],
      "stateMutability": "view",
      "type": "function"
    },
    {
      "inputs": [
        {
          "internalType": "uint256",
          "name": "",
          "type": "uint256"
        }
      ],
      "name": "characterAddresses",
      "outputs": [
        {
          "internalType": "address",
          "name": "",
          "type": "address"
        }
      ],
      "stateMutability": "view",
      "type": "function"
    },
    {
      "inputs": [
        {
          "internalType": "uint256",
          "name": "",
          "type": "uint256"
        }
      ],
      "name": "characterPositionToCharacterAddress",
      "outputs": [
        {
          "internalType": "address",
          "name": "",
          "type": "address"
        }
      ],
      "stateMutability": "view",
      "type": "function"
    },
    {
      "inputs": [],
      "name": "getCharacterAddresses",
      "outputs": [
        {
          "internalType": "address[]",
          "name": "",
          "type": "address[]"
        }
      ],
      "stateMutability": "view",
      "type": "function"
    },
    {
      "inputs": [],
      "name": "getSkeletonAddresses",
      "outputs": [
        {
          "internalType": "address[]",
          "name": "",
          "type": "address[]"
        }
      ],
      "stateMutability": "view",
      "type": "function"
    },
    {
      "inputs": [
        {
          "internalType": "uint256",
          "name": "p",
          "type": "uint256"
        }
      ],
      "name": "hasObstacle",
      "outputs": [
        {
          "internalType": "bool",
          "name": "",
          "type": "bool"
        }
      ],
      "stateMutability": "view",
      "type": "function"
    },
    {
      "inputs": [
        {
          "internalType": "address",
          "name": "",
          "type": "address"
        }
      ],
      "name": "home",
      "outputs": [
        {
          "internalType": "uint256",
          "name": "position",
          "type": "uint256"
        },
        {
          "internalType": "uint8",
          "name": "damage",
          "type": "uint8"
        },
        {
          "internalType": "uint8",
          "name": "asset",
          "type": "uint8"
        },
        {
          "internalType": "uint8",
          "name": "direction",
          "type": "uint8"
        }
      ],
      "stateMutability": "view",
      "type": "function"
    },
    {
      "inputs": [],
      "name": "maxSkeletons",
      "outputs": [
        {
          "internalType": "uint256",
          "name": "",
          "type": "uint256"
        }
      ],
      "stateMutability": "view",
      "type": "function"
    },
    {
      "inputs": [
        {
          "internalType": "uint256",
          "name": "steps",
          "type": "uint256"
        }
      ],
      "name": "move",
      "outputs": [],
      "stateMutability": "nonpayable",
      "type": "function"
    },
    {
      "inputs": [],
      "name": "nextRandomPositionWithoutObstacle",
      "outputs": [
        {
          "internalType": "uint256",
          "name": "",
          "type": "uint256"
        }
      ],
      "stateMutability": "nonpayable",
      "type": "function"
    },
    {
      "inputs": [],
      "name": "obstacles",
      "outputs": [
        {
          "internalType": "bytes",
          "name": "",
          "type": "bytes"
        }
      ],
      "stateMutability": "view",
      "type": "function"
    },
    {
      "inputs": [
        {
          "internalType": "uint256",
          "name": "",
          "type": "uint256"
        }
      ],
      "name": "skeletonAddresses",
      "outputs": [
        {
          "internalType": "address",
          "name": "",
          "type": "address"
        }
      ],
      "stateMutability": "view",
      "type": "function"
    },
    {
      "inputs": [],
      "name": "teleportIn",
      "outputs": [],
      "stateMutability": "nonpayable",
      "type": "function"
    },
    {
      "inputs": [],
      "name": "teleportOut",
      "outputs": [],
      "stateMutability": "nonpayable",
      "type": "function"
    },
    {
      "inputs": [],
      "name": "updateSkeletons",
      "outputs": [],
      "stateMutability": "nonpayable",
      "type": "function"
    }
  ],
  "bytecode": {
    "object": "0x60c06040523480156200001157600080fd5b50604051620017023803806200170283398101604081905262000034916200042f565b815160086200004485806200052e565b62000050919062000564565b14620000b05760405162461bcd60e51b815260206004820152602560248201527f4461746120646f6573206e6f74206d61746368206578706563746564204e784e6044820152642073697a6560d81b606482015260840160405180910390fd5b60808390526000620000c383826200060a565b5060a0819052620000d3620000dc565b5050506200077c565b60a05160045410156200010357620000fd620000f762000105565b6200018c565b620000dc565b565b60008062000112620002fa565b905060005b6080516200012690806200052e565b81101562000187576080516000906200014090806200052e565b6200014c8484620006d6565b620001589190620006ec565b9050620001658162000342565b62000171579392505050565b50806200017e8162000703565b91505062000117565b600080fd5b60068054600091908290620001aa906001600160a01b03166200071f565b82546001600160a01b0382811661010094850a81810292021990921617909355604080516080810182528681526000602080830182815283850183815260608501848152898552600180855287862096518755925195830180549251915160ff908116620100000262ff000019938216909b0261ffff19909416971696909617919091171696909617909255600480548087019091557f8a35acfbc15ff81a39ae7d344fd709f28e8600b4aa8c65c6b64bfe7fe36bd19b0180546001600160a01b031990811688179091556005805496870190557f036b6384b5eca791c62761152d0c79bb0604c104a5fb6f4eb0703f3154bb3db090950180548616871790558781526003825282902080549094168517909355805193845291830185905292507f0e83e6d9e51041870d443b1514f32f096c9f81ef34268e7e84fd463c69003564910160405180910390a15050565b60078054600091826200030d8362000703565b919050556040516020016200032491815260200190565b6040516020818303038152906040528051906020012060001c905090565b60006200034f826200038b565b156200035d57506001919050565b6000828152600360205260409020546001600160a01b0316156200038357506001919050565b506000919050565b6000806200039b60088462000564565b90506000620003ac600885620006ec565b90506001620003bd82600762000750565b6000848154620003cd906200057b565b8110620003de57620003de62000766565b815460011615620003fe5790600052602060002090602091828204019190065b9054901a600160f81b0260f81c901c60011614949350505050565b634e487b7160e01b600052604160045260246000fd5b6000806000606084860312156200044557600080fd5b8351602080860151919450906001600160401b03808211156200046757600080fd5b818701915087601f8301126200047c57600080fd5b81518181111562000491576200049162000419565b604051601f8201601f19908116603f01168101908382118183101715620004bc57620004bc62000419565b816040528281528a86848701011115620004d557600080fd5b600093505b82841015620004f95784840186015181850187015292850192620004da565b6000868483010152809750505050505050604084015190509250925092565b634e487b7160e01b600052601160045260246000fd5b808202811582820484141762000548576200054862000518565b92915050565b634e487b7160e01b600052601260045260246000fd5b6000826200057657620005766200054e565b500490565b600181811c908216806200059057607f821691505b602082108103620005b157634e487b7160e01b600052602260045260246000fd5b50919050565b601f8211156200060557600081815260208120601f850160051c81016020861015620005e05750805b601f850160051c820191505b818110156200060157828155600101620005ec565b5050505b505050565b81516001600160401b0381111562000626576200062662000419565b6200063e816200063784546200057b565b84620005b7565b602080601f8311600181146200067657600084156200065d5750858301515b600019600386901b1c1916600185901b17855562000601565b600085815260208120601f198616915b82811015620006a75788860151825594840194600190910190840162000686565b5085821015620006c65787850151600019600388901b60f8161c191681555b5050505050600190811b01905550565b8082018082111562000548576200054862000518565b600082620006fe57620006fe6200054e565b500690565b60006001820162000718576200071862000518565b5060010190565b60006001600160a01b038281166002600160a01b0319810162000746576200074662000518565b6001019392505050565b8181038181111562000548576200054862000518565b634e487b7160e01b600052603260045260246000fd5b60805160a051610f4b620007b7600039600081816102d701526103890152600081816102b00152818161065b015261068e0152610f4b6000f3fe608060405234801561001057600080fd5b50600436106101165760003560e01c806387cb15f7116100a2578063ab7c13dc11610071578063ab7c13dc14610283578063c42df0ae14610296578063c9e525df146102ab578063e9659ed1146102d2578063f3ca85f2146102f957600080fd5b806387cb15f71461024b5780639dc9cbeb1461025e578063a2b142af14610266578063a6e0d6351461027b57600080fd5b806362a72804116100e957806362a72804146101e4578063682676aa146102075780637140ae661461020f57806379c9f9a71461022557806383d9e20c1461023857600080fd5b8063093ed6af1461011b5780630cbef7e7146101865780632472d4491461019b578063340369f3146101dc575b600080fd5b610158610129366004610ccf565b6001602081905260009182526040909120805491015460ff808216916101008104821691620100009091041684565b6040805194855260ff9384166020860152918316918401919091521660608201526080015b60405180910390f35b610199610194366004610cf1565b610336565b005b6101c46101a9366004610d1d565b6003602052600090815260409020546001600160a01b031681565b6040516001600160a01b03909116815260200161017d565b610199610384565b6101f76101f2366004610d1d565b6103c0565b604051901515815260200161017d565b610199610405565b610217610646565b60405190815260200161017d565b6101c4610233366004610d1d565b6106f0565b6101c4610246366004610d1d565b61071a565b610199610259366004610d1d565b61072a565b610199610760565b61026e610937565b60405161017d9190610d36565b61026e610999565b610199610291366004610d1d565b6109f9565b61029e610b5e565b60405161017d9190610d83565b6102177f000000000000000000000000000000000000000000000000000000000000000081565b6102177f000000000000000000000000000000000000000000000000000000000000000081565b610158610307366004610ccf565b6002602052600090815260409020805460019091015460ff808216916101008104821691620100009091041684565b604080513381526001600160a01b03831660208201529081018390527fdf6a64b48b2e4945b72a2a850d22327a706e34c9c3a203e26759f78a07234563906060015b60405180910390a15050565b6004547f000000000000000000000000000000000000000000000000000000000000000011156103be576103b9610291610646565b610384565b565b60006103cb82610bec565b156103d857506001919050565b6000828152600360205260409020546001600160a01b0316156103fd57506001919050565b506000919050565b33600090815260026020526040902060010154610100900460ff1615801561044757503360009081526001602081905260409091200154610100900460ff1615155b61045057600080fd5b33600081815260016020818152604080842081516080810183528154808252828601805460ff8082168589019081526101008084048316878a019081526201000094859004841660608901908152968d5260038b52898d2080546001600160a01b03191690559c8c52968b9055835462ffffff19169093556002909752948820835181559051960180549851915162ff00001997871661ffff19909a169990991791861690930217949094169590921602939093179092555b60055481101561060e57336001600160a01b03166005828154811061053057610530610dd1565b6000918252602090912001546001600160a01b0316036105fc576005805461055a90600190610dfd565b8154811061056a5761056a610dd1565b600091825260209091200154600580546001600160a01b03909216918390811061059657610596610dd1565b9060005260206000200160006101000a8154816001600160a01b0302191690836001600160a01b0316021790555060058054806105d5576105d5610e16565b600082815260209020810160001990810180546001600160a01b031916905501905561060e565b8061060681610e2c565b915050610509565b506040513381527f9ac3117b086b001d2bcd36ff49e64f86a26f25d7c9ff453e9dbd9d496b8bf084906020015b60405180910390a150565b600080610651610c6e565b905060005b6106807f000000000000000000000000000000000000000000000000000000000000000080610e45565b8110156101165760006106b37f000000000000000000000000000000000000000000000000000000000000000080610e45565b6106bd8484610e5c565b6106c79190610e85565b90506106d2816103c0565b6106dd579392505050565b50806106e881610e2c565b915050610656565b6004818154811061070057600080fd5b6000918252602090912001546001600160a01b0316905081565b6005818154811061070057600080fd5b60408051338152602081018390527ff19c2fd76c91c01ffe1e45cf5c7a887801a4ffd944ecc05badb3bea1ddda6dd4910161063b565b600061076a610646565b33600090815260026020526040902060010154909150610100900460ff1615610813573360009081526002602081815260408084206001808452918520815481558282018054938201805460ff95861660ff19821681178355835461ffff199092161761010091829004871690910217808255825462ff0000199091166201000091829004909616029490941790935586905592909152919055805462ffffff191690556108a7565b3360009081526001602081905260409091200154610100900460ff161561083957600080fd5b6040805160808101825282815260006020808301828152600184860181815260608601858152338652938290529590932093518455519290910180549351915160ff908116620100000262ff0000199382166101000261ffff19909616949091169390931793909317161790555b60058054600181019091557f036b6384b5eca791c62761152d0c79bb0604c104a5fb6f4eb0703f3154bb3db0018054336001600160a01b031991821681179092556000838152600360209081526040918290208054909316841790925580519283529082018390527f0c1de8e9993c058a253c96414b4215583b25fa35e1b6e0facf4d5a0dc2a6f3f8910161063b565b6060600480548060200260200160405190810160405280929190818152602001828054801561098f57602002820191906000526020600020905b81546001600160a01b03168152600190910190602001808311610971575b5050505050905090565b6060600580548060200260200160405190810160405280929190818152602001828054801561098f576020028201919060005260206000209081546001600160a01b03168152600190910190602001808311610971575050505050905090565b60068054600091908290610a15906001600160a01b0316610e99565b82546001600160a01b0382811661010094850a81810292021990921617909355604080516080810182528681526000602080830182815283850183815260608501848152898552600180855287862096518755925195830180549251915160ff908116620100000262ff000019938216909b0261ffff19909416971696909617919091171696909617909255600480548087019091557f8a35acfbc15ff81a39ae7d344fd709f28e8600b4aa8c65c6b64bfe7fe36bd19b0180546001600160a01b031990811688179091556005805496870190557f036b6384b5eca791c62761152d0c79bb0604c104a5fb6f4eb0703f3154bb3db090950180548616871790558781526003825282902080549094168517909355805193845291830185905292507f0e83e6d9e51041870d443b1514f32f096c9f81ef34268e7e84fd463c690035649101610378565b60008054610b6b90610ec7565b80601f0160208091040260200160405190810160405280929190818152602001828054610b9790610ec7565b8015610be45780601f10610bb957610100808354040283529160200191610be4565b820191906000526020600020905b815481529060010190602001808311610bc757829003601f168201915b505050505081565b600080610bfa600884610f01565b90506000610c09600885610e85565b90506001610c18826007610dfd565b6000848154610c2690610ec7565b8110610c3457610c34610dd1565b815460011615610c535790600052602060002090602091828204019190065b9054901a600160f81b0260f81c901c60011614949350505050565b6007805460009182610c7f83610e2c565b91905055604051602001610c9591815260200190565b6040516020818303038152906040528051906020012060001c905090565b80356001600160a01b0381168114610cca57600080fd5b919050565b600060208284031215610ce157600080fd5b610cea82610cb3565b9392505050565b60008060408385031215610d0457600080fd5b82359150610d1460208401610cb3565b90509250929050565b600060208284031215610d2f57600080fd5b5035919050565b6020808252825182820181905260009190848201906040850190845b81811015610d775783516001600160a01b031683529284019291840191600101610d52565b50909695505050505050565b600060208083528351808285015260005b81811015610db057858101830151858201604001528201610d94565b506000604082860101526040601f19601f8301168501019250505092915050565b634e487b7160e01b600052603260045260246000fd5b634e487b7160e01b600052601160045260246000fd5b81810381811115610e1057610e10610de7565b92915050565b634e487b7160e01b600052603160045260246000fd5b600060018201610e3e57610e3e610de7565b5060010190565b8082028115828204841417610e1057610e10610de7565b80820180821115610e1057610e10610de7565b634e487b7160e01b600052601260045260246000fd5b600082610e9457610e94610e6f565b500690565b60006001600160a01b038281166002600160a01b03198101610ebd57610ebd610de7565b6001019392505050565b600181811c90821680610edb57607f821691505b602082108103610efb57634e487b7160e01b600052602260045260246000fd5b50919050565b600082610f1057610f10610e6f565b50049056fea2646970667358221220449467502799d3f5ab676638b938b8cbaf78dd99a1afc275b7b86b71cbfb03cc64736f6c63430008150033",
    "linkReferences": {}
  },
  "methodIdentifiers": {
    "N()": "c9e525df",
    "_addSkeleton(uint256)": "ab7c13dc",
    "castSpell(uint256,address)": "0cbef7e7",
    "characterAddressToCharacterState(address)": "093ed6af",
    "characterAddresses(uint256)": "83d9e20c",
    "characterPositionToCharacterAddress(uint256)": "2472d449",
    "getCharacterAddresses()": "a6e0d635",
    "getSkeletonAddresses()": "a2b142af",
    "hasObstacle(uint256)": "62a72804",
    "home(address)": "f3ca85f2",
    "maxSkeletons()": "e9659ed1",
    "move(uint256)": "87cb15f7",
    "nextRandomPositionWithoutObstacle()": "7140ae66",
    "obstacles()": "c42df0ae",
    "skeletonAddresses(uint256)": "79c9f9a7",
    "teleportIn()": "9dc9cbeb",
    "teleportOut()": "682676aa",
    "updateSkeletons()": "340369f3"
  },
  "id": 0
}